{
	"contracts/uretici_kayit.sol": {
		"UreticiKaydi": {
			"abi": [
				{
					"inputs": [
						{
							"internalType": "address",
							"name": "_kullaniciBilgileriContractAdres",
							"type": "address"
						}
					],
					"stateMutability": "nonpayable",
					"type": "constructor"
				},
				{
					"inputs": [],
					"name": "kullaniciBilgileriContract",
					"outputs": [
						{
							"internalType": "contract KullaniciBilgileri",
							"name": "",
							"type": "address"
						}
					],
					"stateMutability": "view",
					"type": "function"
				},
				{
					"inputs": [
						{
							"internalType": "address",
							"name": "_walletAdresi",
							"type": "address"
						}
					],
					"name": "kullaniciMersisNoGetir",
					"outputs": [
						{
							"internalType": "string",
							"name": "",
							"type": "string"
						}
					],
					"stateMutability": "view",
					"type": "function"
				},
				{
					"inputs": [
						{
							"internalType": "string",
							"name": "_mersisNo",
							"type": "string"
						},
						{
							"internalType": "string",
							"name": "_firmaAdi",
							"type": "string"
						},
						{
							"internalType": "string",
							"name": "_eposta",
							"type": "string"
						},
						{
							"internalType": "string",
							"name": "_telefonNo",
							"type": "string"
						}
					],
					"name": "ureticiKaydiOlustur",
					"outputs": [
						{
							"internalType": "bool",
							"name": "",
							"type": "bool"
						}
					],
					"stateMutability": "nonpayable",
					"type": "function"
				}
			],
			"devdoc": {
				"kind": "dev",
				"methods": {},
				"version": 1
			},
			"evm": {
				"assembly": "    /* \"contracts/uretici_kayit.sol\":720:1572  contract UreticiKaydi {... */\n  mstore(0x40, 0x80)\n    /* \"contracts/uretici_kayit.sol\":807:959  constructor(address _kullaniciBilgileriContractAdres) {... */\n  callvalue\n  dup1\n  iszero\n  tag_1\n  jumpi\n  0x00\n  dup1\n  revert\ntag_1:\n  pop\n  mload(0x40)\n  sub(codesize, bytecodeSize)\n  dup1\n  bytecodeSize\n  dup4\n  codecopy\n  dup2\n  dup2\n  add\n  0x40\n  mstore\n  dup2\n  add\n  swap1\n  tag_2\n  swap2\n  swap1\n  tag_3\n  jump\t// in\ntag_2:\n    /* \"contracts/uretici_kayit.sol\":919:951  _kullaniciBilgileriContractAdres */\n  dup1\n    /* \"contracts/uretici_kayit.sol\":871:897  kullaniciBilgileriContract */\n  0x00\n  dup1\n    /* \"contracts/uretici_kayit.sol\":871:952  kullaniciBilgileriContract = KullaniciBilgileri(_kullaniciBilgileriContractAdres) */\n  0x0100\n  exp\n  dup2\n  sload\n  dup2\n  0xffffffffffffffffffffffffffffffffffffffff\n  mul\n  not\n  and\n  swap1\n  dup4\n  0xffffffffffffffffffffffffffffffffffffffff\n  and\n  mul\n  or\n  swap1\n  sstore\n  pop\n    /* \"contracts/uretici_kayit.sol\":807:959  constructor(address _kullaniciBilgileriContractAdres) {... */\n  pop\n    /* \"contracts/uretici_kayit.sol\":720:1572  contract UreticiKaydi {... */\n  jump(tag_6)\n    /* \"#utility.yul\":88:205   */\ntag_8:\n    /* \"#utility.yul\":197:198   */\n  0x00\n    /* \"#utility.yul\":194:195   */\n  dup1\n    /* \"#utility.yul\":187:199   */\n  revert\n    /* \"#utility.yul\":334:460   */\ntag_10:\n    /* \"#utility.yul\":371:378   */\n  0x00\n    /* \"#utility.yul\":411:453   */\n  0xffffffffffffffffffffffffffffffffffffffff\n    /* \"#utility.yul\":404:409   */\n  dup3\n    /* \"#utility.yul\":400:454   */\n  and\n    /* \"#utility.yul\":389:454   */\n  swap1\n  pop\n    /* \"#utility.yul\":334:460   */\n  swap2\n  swap1\n  pop\n  jump\t// out\n    /* \"#utility.yul\":466:562   */\ntag_11:\n    /* \"#utility.yul\":503:510   */\n  0x00\n    /* \"#utility.yul\":532:556   */\n  tag_20\n    /* \"#utility.yul\":550:555   */\n  dup3\n    /* \"#utility.yul\":532:556   */\n  tag_10\n  jump\t// in\ntag_20:\n    /* \"#utility.yul\":521:556   */\n  swap1\n  pop\n    /* \"#utility.yul\":466:562   */\n  swap2\n  swap1\n  pop\n  jump\t// out\n    /* \"#utility.yul\":568:690   */\ntag_12:\n    /* \"#utility.yul\":641:665   */\n  tag_22\n    /* \"#utility.yul\":659:664   */\n  dup2\n    /* \"#utility.yul\":641:665   */\n  tag_11\n  jump\t// in\ntag_22:\n    /* \"#utility.yul\":634:639   */\n  dup2\n    /* \"#utility.yul\":631:666   */\n  eq\n    /* \"#utility.yul\":621:684   */\n  tag_23\n  jumpi\n    /* \"#utility.yul\":680:681   */\n  0x00\n    /* \"#utility.yul\":677:678   */\n  dup1\n    /* \"#utility.yul\":670:682   */\n  revert\n    /* \"#utility.yul\":621:684   */\ntag_23:\n    /* \"#utility.yul\":568:690   */\n  pop\n  jump\t// out\n    /* \"#utility.yul\":696:839   */\ntag_13:\n    /* \"#utility.yul\":753:758   */\n  0x00\n    /* \"#utility.yul\":784:790   */\n  dup2\n    /* \"#utility.yul\":778:791   */\n  mload\n    /* \"#utility.yul\":769:791   */\n  swap1\n  pop\n    /* \"#utility.yul\":800:833   */\n  tag_25\n    /* \"#utility.yul\":827:832   */\n  dup2\n    /* \"#utility.yul\":800:833   */\n  tag_12\n  jump\t// in\ntag_25:\n    /* \"#utility.yul\":696:839   */\n  swap3\n  swap2\n  pop\n  pop\n  jump\t// out\n    /* \"#utility.yul\":845:1196   */\ntag_3:\n    /* \"#utility.yul\":915:921   */\n  0x00\n    /* \"#utility.yul\":964:966   */\n  0x20\n    /* \"#utility.yul\":952:961   */\n  dup3\n    /* \"#utility.yul\":943:950   */\n  dup5\n    /* \"#utility.yul\":939:962   */\n  sub\n    /* \"#utility.yul\":935:967   */\n  slt\n    /* \"#utility.yul\":932:1051   */\n  iszero\n  tag_27\n  jumpi\n    /* \"#utility.yul\":970:1049   */\n  tag_28\n  tag_8\n  jump\t// in\ntag_28:\n    /* \"#utility.yul\":932:1051   */\ntag_27:\n    /* \"#utility.yul\":1090:1091   */\n  0x00\n    /* \"#utility.yul\":1115:1179   */\n  tag_29\n    /* \"#utility.yul\":1171:1178   */\n  dup5\n    /* \"#utility.yul\":1162:1168   */\n  dup3\n    /* \"#utility.yul\":1151:1160   */\n  dup6\n    /* \"#utility.yul\":1147:1169   */\n  add\n    /* \"#utility.yul\":1115:1179   */\n  tag_13\n  jump\t// in\ntag_29:\n    /* \"#utility.yul\":1105:1179   */\n  swap2\n  pop\n    /* \"#utility.yul\":1061:1189   */\n  pop\n    /* \"#utility.yul\":845:1196   */\n  swap3\n  swap2\n  pop\n  pop\n  jump\t// out\n    /* \"contracts/uretici_kayit.sol\":720:1572  contract UreticiKaydi {... */\ntag_6:\n  dataSize(sub_0)\n  dup1\n  dataOffset(sub_0)\n  0x00\n  codecopy\n  0x00\n  return\nstop\n\nsub_0: assembly {\n        /* \"contracts/uretici_kayit.sol\":720:1572  contract UreticiKaydi {... */\n      mstore(0x40, 0x80)\n      callvalue\n      dup1\n      iszero\n      tag_1\n      jumpi\n      0x00\n      dup1\n      revert\n    tag_1:\n      pop\n      jumpi(tag_2, lt(calldatasize, 0x04))\n      shr(0xe0, calldataload(0x00))\n      dup1\n      0x2c131e7f\n      eq\n      tag_3\n      jumpi\n      dup1\n      0x62335c56\n      eq\n      tag_4\n      jumpi\n      dup1\n      0xf09439db\n      eq\n      tag_5\n      jumpi\n    tag_2:\n      0x00\n      dup1\n      revert\n        /* \"contracts/uretici_kayit.sol\":748:800  KullaniciBilgileri public kullaniciBilgileriContract */\n    tag_3:\n      tag_6\n      tag_7\n      jump\t// in\n    tag_6:\n      mload(0x40)\n      tag_8\n      swap2\n      swap1\n      tag_9\n      jump\t// in\n    tag_8:\n      mload(0x40)\n      dup1\n      swap2\n      sub\n      swap1\n      return\n        /* \"contracts/uretici_kayit.sol\":965:1394  function ureticiKaydiOlustur(string memory _mersisNo, string memory _firmaAdi, string memory _eposta, string memory _telefonNo) public returns (bool) {... */\n    tag_4:\n      tag_10\n      0x04\n      dup1\n      calldatasize\n      sub\n      dup2\n      add\n      swap1\n      tag_11\n      swap2\n      swap1\n      tag_12\n      jump\t// in\n    tag_11:\n      tag_13\n      jump\t// in\n    tag_10:\n      mload(0x40)\n      tag_14\n      swap2\n      swap1\n      tag_15\n      jump\t// in\n    tag_14:\n      mload(0x40)\n      dup1\n      swap2\n      sub\n      swap1\n      return\n        /* \"contracts/uretici_kayit.sol\":1400:1570  function kullaniciMersisNoGetir(address _walletAdresi) public view returns (string memory) {... */\n    tag_5:\n      tag_16\n      0x04\n      dup1\n      calldatasize\n      sub\n      dup2\n      add\n      swap1\n      tag_17\n      swap2\n      swap1\n      tag_18\n      jump\t// in\n    tag_17:\n      tag_19\n      jump\t// in\n    tag_16:\n      mload(0x40)\n      tag_20\n      swap2\n      swap1\n      tag_21\n      jump\t// in\n    tag_20:\n      mload(0x40)\n      dup1\n      swap2\n      sub\n      swap1\n      return\n        /* \"contracts/uretici_kayit.sol\":748:800  KullaniciBilgileri public kullaniciBilgileriContract */\n    tag_7:\n      0x00\n      dup1\n      sload\n      swap1\n      0x0100\n      exp\n      swap1\n      div\n      0xffffffffffffffffffffffffffffffffffffffff\n      and\n      dup2\n      jump\t// out\n        /* \"contracts/uretici_kayit.sol\":965:1394  function ureticiKaydiOlustur(string memory _mersisNo, string memory _firmaAdi, string memory _eposta, string memory _telefonNo) public returns (bool) {... */\n    tag_13:\n        /* \"contracts/uretici_kayit.sol\":1109:1113  bool */\n      0x00\n        /* \"contracts/uretici_kayit.sol\":1167:1193  kullaniciBilgileriContract */\n      dup1\n      0x00\n      swap1\n      sload\n      swap1\n      0x0100\n      exp\n      swap1\n      div\n      0xffffffffffffffffffffffffffffffffffffffff\n      and\n        /* \"contracts/uretici_kayit.sol\":1167:1214  kullaniciBilgileriContract.kullaniciBilgisiEkle */\n      0xffffffffffffffffffffffffffffffffffffffff\n      and\n      0x138b1dce\n        /* \"contracts/uretici_kayit.sol\":1215:1224  _mersisNo */\n      dup7\n        /* \"contracts/uretici_kayit.sol\":1226:1235  _firmaAdi */\n      dup7\n        /* \"contracts/uretici_kayit.sol\":1237:1244  _eposta */\n      dup7\n        /* \"contracts/uretici_kayit.sol\":1246:1256  _telefonNo */\n      dup7\n        /* \"contracts/uretici_kayit.sol\":1167:1257  kullaniciBilgileriContract.kullaniciBilgisiEkle(_mersisNo, _firmaAdi, _eposta, _telefonNo) */\n      mload(0x40)\n      dup6\n      0xffffffff\n      and\n      0xe0\n      shl\n      dup2\n      mstore\n      0x04\n      add\n      tag_23\n      swap5\n      swap4\n      swap3\n      swap2\n      swap1\n      tag_24\n      jump\t// in\n    tag_23:\n      0x00\n      mload(0x40)\n      dup1\n      dup4\n      sub\n      dup2\n      0x00\n      dup8\n      dup1\n      extcodesize\n      iszero\n      dup1\n      iszero\n      tag_25\n      jumpi\n      0x00\n      dup1\n      revert\n    tag_25:\n      pop\n      gas\n      call\n      iszero\n      dup1\n      iszero\n      tag_27\n      jumpi\n      returndatasize\n      0x00\n      dup1\n      returndatacopy\n      revert(0x00, returndatasize)\n    tag_27:\n      pop\n      pop\n      pop\n      pop\n        /* \"contracts/uretici_kayit.sol\":1383:1387  true */\n      0x01\n        /* \"contracts/uretici_kayit.sol\":1376:1387  return true */\n      swap1\n      pop\n        /* \"contracts/uretici_kayit.sol\":965:1394  function ureticiKaydiOlustur(string memory _mersisNo, string memory _firmaAdi, string memory _eposta, string memory _telefonNo) public returns (bool) {... */\n      swap5\n      swap4\n      pop\n      pop\n      pop\n      pop\n      jump\t// out\n        /* \"contracts/uretici_kayit.sol\":1400:1570  function kullaniciMersisNoGetir(address _walletAdresi) public view returns (string memory) {... */\n    tag_19:\n        /* \"contracts/uretici_kayit.sol\":1476:1489  string memory */\n      0x60\n        /* \"contracts/uretici_kayit.sol\":1508:1534  kullaniciBilgileriContract */\n      0x00\n      dup1\n      sload\n      swap1\n      0x0100\n      exp\n      swap1\n      div\n      0xffffffffffffffffffffffffffffffffffffffff\n      and\n        /* \"contracts/uretici_kayit.sol\":1508:1548  kullaniciBilgileriContract.mersisNoGetir */\n      0xffffffffffffffffffffffffffffffffffffffff\n      and\n      0x7f53afc2\n        /* \"contracts/uretici_kayit.sol\":1549:1562  _walletAdresi */\n      dup4\n        /* \"contracts/uretici_kayit.sol\":1508:1563  kullaniciBilgileriContract.mersisNoGetir(_walletAdresi) */\n      mload(0x40)\n      dup3\n      0xffffffff\n      and\n      0xe0\n      shl\n      dup2\n      mstore\n      0x04\n      add\n      tag_29\n      swap2\n      swap1\n      tag_30\n      jump\t// in\n    tag_29:\n      0x00\n      mload(0x40)\n      dup1\n      dup4\n      sub\n      dup2\n      dup7\n      dup1\n      extcodesize\n      iszero\n      dup1\n      iszero\n      tag_31\n      jumpi\n      0x00\n      dup1\n      revert\n    tag_31:\n      pop\n      gas\n      staticcall\n      iszero\n      dup1\n      iszero\n      tag_33\n      jumpi\n      returndatasize\n      0x00\n      dup1\n      returndatacopy\n      revert(0x00, returndatasize)\n    tag_33:\n      pop\n      pop\n      pop\n      pop\n      mload(0x40)\n      returndatasize\n      0x00\n      dup3\n      returndatacopy\n      returndatasize\n      not(0x1f)\n      0x1f\n      dup3\n      add\n      and\n      dup3\n      add\n      dup1\n      0x40\n      mstore\n      pop\n      dup2\n      add\n      swap1\n      tag_34\n      swap2\n      swap1\n      tag_35\n      jump\t// in\n    tag_34:\n        /* \"contracts/uretici_kayit.sol\":1501:1563  return kullaniciBilgileriContract.mersisNoGetir(_walletAdresi) */\n      swap1\n      pop\n        /* \"contracts/uretici_kayit.sol\":1400:1570  function kullaniciMersisNoGetir(address _walletAdresi) public view returns (string memory) {... */\n      swap2\n      swap1\n      pop\n      jump\t// out\n        /* \"#utility.yul\":7:133   */\n    tag_36:\n        /* \"#utility.yul\":44:51   */\n      0x00\n        /* \"#utility.yul\":84:126   */\n      0xffffffffffffffffffffffffffffffffffffffff\n        /* \"#utility.yul\":77:82   */\n      dup3\n        /* \"#utility.yul\":73:127   */\n      and\n        /* \"#utility.yul\":62:127   */\n      swap1\n      pop\n        /* \"#utility.yul\":7:133   */\n      swap2\n      swap1\n      pop\n      jump\t// out\n        /* \"#utility.yul\":139:199   */\n    tag_37:\n        /* \"#utility.yul\":167:170   */\n      0x00\n        /* \"#utility.yul\":188:193   */\n      dup2\n        /* \"#utility.yul\":181:193   */\n      swap1\n      pop\n        /* \"#utility.yul\":139:199   */\n      swap2\n      swap1\n      pop\n      jump\t// out\n        /* \"#utility.yul\":205:347   */\n    tag_38:\n        /* \"#utility.yul\":255:264   */\n      0x00\n        /* \"#utility.yul\":288:341   */\n      tag_71\n        /* \"#utility.yul\":306:340   */\n      tag_72\n        /* \"#utility.yul\":315:339   */\n      tag_73\n        /* \"#utility.yul\":333:338   */\n      dup5\n        /* \"#utility.yul\":315:339   */\n      tag_36\n      jump\t// in\n    tag_73:\n        /* \"#utility.yul\":306:340   */\n      tag_37\n      jump\t// in\n    tag_72:\n        /* \"#utility.yul\":288:341   */\n      tag_36\n      jump\t// in\n    tag_71:\n        /* \"#utility.yul\":275:341   */\n      swap1\n      pop\n        /* \"#utility.yul\":205:347   */\n      swap2\n      swap1\n      pop\n      jump\t// out\n        /* \"#utility.yul\":353:479   */\n    tag_39:\n        /* \"#utility.yul\":403:412   */\n      0x00\n        /* \"#utility.yul\":436:473   */\n      tag_75\n        /* \"#utility.yul\":467:472   */\n      dup3\n        /* \"#utility.yul\":436:473   */\n      tag_38\n      jump\t// in\n    tag_75:\n        /* \"#utility.yul\":423:473   */\n      swap1\n      pop\n        /* \"#utility.yul\":353:479   */\n      swap2\n      swap1\n      pop\n      jump\t// out\n        /* \"#utility.yul\":485:636   */\n    tag_40:\n        /* \"#utility.yul\":560:569   */\n      0x00\n        /* \"#utility.yul\":593:630   */\n      tag_77\n        /* \"#utility.yul\":624:629   */\n      dup3\n        /* \"#utility.yul\":593:630   */\n      tag_39\n      jump\t// in\n    tag_77:\n        /* \"#utility.yul\":580:630   */\n      swap1\n      pop\n        /* \"#utility.yul\":485:636   */\n      swap2\n      swap1\n      pop\n      jump\t// out\n        /* \"#utility.yul\":642:823   */\n    tag_41:\n        /* \"#utility.yul\":754:816   */\n      tag_79\n        /* \"#utility.yul\":810:815   */\n      dup2\n        /* \"#utility.yul\":754:816   */\n      tag_40\n      jump\t// in\n    tag_79:\n        /* \"#utility.yul\":749:752   */\n      dup3\n        /* \"#utility.yul\":742:817   */\n      mstore\n        /* \"#utility.yul\":642:823   */\n      pop\n      pop\n      jump\t// out\n        /* \"#utility.yul\":829:1101   */\n    tag_9:\n        /* \"#utility.yul\":947:951   */\n      0x00\n        /* \"#utility.yul\":985:987   */\n      0x20\n        /* \"#utility.yul\":974:983   */\n      dup3\n        /* \"#utility.yul\":970:988   */\n      add\n        /* \"#utility.yul\":962:988   */\n      swap1\n      pop\n        /* \"#utility.yul\":998:1094   */\n      tag_81\n        /* \"#utility.yul\":1091:1092   */\n      0x00\n        /* \"#utility.yul\":1080:1089   */\n      dup4\n        /* \"#utility.yul\":1076:1093   */\n      add\n        /* \"#utility.yul\":1067:1073   */\n      dup5\n        /* \"#utility.yul\":998:1094   */\n      tag_41\n      jump\t// in\n    tag_81:\n        /* \"#utility.yul\":829:1101   */\n      swap3\n      swap2\n      pop\n      pop\n      jump\t// out\n        /* \"#utility.yul\":1107:1182   */\n    tag_42:\n        /* \"#utility.yul\":1140:1146   */\n      0x00\n        /* \"#utility.yul\":1173:1175   */\n      0x40\n        /* \"#utility.yul\":1167:1176   */\n      mload\n        /* \"#utility.yul\":1157:1176   */\n      swap1\n      pop\n        /* \"#utility.yul\":1107:1182   */\n      swap1\n      jump\t// out\n        /* \"#utility.yul\":1188:1305   */\n    tag_43:\n        /* \"#utility.yul\":1297:1298   */\n      0x00\n        /* \"#utility.yul\":1294:1295   */\n      dup1\n        /* \"#utility.yul\":1287:1299   */\n      revert\n        /* \"#utility.yul\":1311:1428   */\n    tag_44:\n        /* \"#utility.yul\":1420:1421   */\n      0x00\n        /* \"#utility.yul\":1417:1418   */\n      dup1\n        /* \"#utility.yul\":1410:1422   */\n      revert\n        /* \"#utility.yul\":1434:1551   */\n    tag_45:\n        /* \"#utility.yul\":1543:1544   */\n      0x00\n        /* \"#utility.yul\":1540:1541   */\n      dup1\n        /* \"#utility.yul\":1533:1545   */\n      revert\n        /* \"#utility.yul\":1557:1674   */\n    tag_46:\n        /* \"#utility.yul\":1666:1667   */\n      0x00\n        /* \"#utility.yul\":1663:1664   */\n      dup1\n        /* \"#utility.yul\":1656:1668   */\n      revert\n        /* \"#utility.yul\":1680:1782   */\n    tag_47:\n        /* \"#utility.yul\":1721:1727   */\n      0x00\n        /* \"#utility.yul\":1772:1774   */\n      0x1f\n        /* \"#utility.yul\":1768:1775   */\n      not\n        /* \"#utility.yul\":1763:1765   */\n      0x1f\n        /* \"#utility.yul\":1756:1761   */\n      dup4\n        /* \"#utility.yul\":1752:1766   */\n      add\n        /* \"#utility.yul\":1748:1776   */\n      and\n        /* \"#utility.yul\":1738:1776   */\n      swap1\n      pop\n        /* \"#utility.yul\":1680:1782   */\n      swap2\n      swap1\n      pop\n      jump\t// out\n        /* \"#utility.yul\":1788:1968   */\n    tag_48:\n        /* \"#utility.yul\":1836:1913   */\n      0x4e487b7100000000000000000000000000000000000000000000000000000000\n        /* \"#utility.yul\":1833:1834   */\n      0x00\n        /* \"#utility.yul\":1826:1914   */\n      mstore\n        /* \"#utility.yul\":1933:1937   */\n      0x41\n        /* \"#utility.yul\":1930:1931   */\n      0x04\n        /* \"#utility.yul\":1923:1938   */\n      mstore\n        /* \"#utility.yul\":1957:1961   */\n      0x24\n        /* \"#utility.yul\":1954:1955   */\n      0x00\n        /* \"#utility.yul\":1947:1962   */\n      revert\n        /* \"#utility.yul\":1974:2255   */\n    tag_49:\n        /* \"#utility.yul\":2057:2084   */\n      tag_90\n        /* \"#utility.yul\":2079:2083   */\n      dup3\n        /* \"#utility.yul\":2057:2084   */\n      tag_47\n      jump\t// in\n    tag_90:\n        /* \"#utility.yul\":2049:2055   */\n      dup2\n        /* \"#utility.yul\":2045:2085   */\n      add\n        /* \"#utility.yul\":2187:2193   */\n      dup2\n        /* \"#utility.yul\":2175:2185   */\n      dup2\n        /* \"#utility.yul\":2172:2194   */\n      lt\n        /* \"#utility.yul\":2151:2169   */\n      0xffffffffffffffff\n        /* \"#utility.yul\":2139:2149   */\n      dup3\n        /* \"#utility.yul\":2136:2170   */\n      gt\n        /* \"#utility.yul\":2133:2195   */\n      or\n        /* \"#utility.yul\":2130:2218   */\n      iszero\n      tag_91\n      jumpi\n        /* \"#utility.yul\":2198:2216   */\n      tag_92\n      tag_48\n      jump\t// in\n    tag_92:\n        /* \"#utility.yul\":2130:2218   */\n    tag_91:\n        /* \"#utility.yul\":2238:2248   */\n      dup1\n        /* \"#utility.yul\":2234:2236   */\n      0x40\n        /* \"#utility.yul\":2227:2249   */\n      mstore\n        /* \"#utility.yul\":2017:2255   */\n      pop\n        /* \"#utility.yul\":1974:2255   */\n      pop\n      pop\n      jump\t// out\n        /* \"#utility.yul\":2261:2390   */\n    tag_50:\n        /* \"#utility.yul\":2295:2301   */\n      0x00\n        /* \"#utility.yul\":2322:2342   */\n      tag_94\n      tag_42\n      jump\t// in\n    tag_94:\n        /* \"#utility.yul\":2312:2342   */\n      swap1\n      pop\n        /* \"#utility.yul\":2351:2384   */\n      tag_95\n        /* \"#utility.yul\":2379:2383   */\n      dup3\n        /* \"#utility.yul\":2371:2377   */\n      dup3\n        /* \"#utility.yul\":2351:2384   */\n      tag_49\n      jump\t// in\n    tag_95:\n        /* \"#utility.yul\":2261:2390   */\n      swap2\n      swap1\n      pop\n      jump\t// out\n        /* \"#utility.yul\":2396:2704   */\n    tag_51:\n        /* \"#utility.yul\":2458:2462   */\n      0x00\n        /* \"#utility.yul\":2548:2566   */\n      0xffffffffffffffff\n        /* \"#utility.yul\":2540:2546   */\n      dup3\n        /* \"#utility.yul\":2537:2567   */\n      gt\n        /* \"#utility.yul\":2534:2590   */\n      iszero\n      tag_97\n      jumpi\n        /* \"#utility.yul\":2570:2588   */\n      tag_98\n      tag_48\n      jump\t// in\n    tag_98:\n        /* \"#utility.yul\":2534:2590   */\n    tag_97:\n        /* \"#utility.yul\":2608:2637   */\n      tag_99\n        /* \"#utility.yul\":2630:2636   */\n      dup3\n        /* \"#utility.yul\":2608:2637   */\n      tag_47\n      jump\t// in\n    tag_99:\n        /* \"#utility.yul\":2600:2637   */\n      swap1\n      pop\n        /* \"#utility.yul\":2692:2696   */\n      0x20\n        /* \"#utility.yul\":2686:2690   */\n      dup2\n        /* \"#utility.yul\":2682:2697   */\n      add\n        /* \"#utility.yul\":2674:2697   */\n      swap1\n      pop\n        /* \"#utility.yul\":2396:2704   */\n      swap2\n      swap1\n      pop\n      jump\t// out\n        /* \"#utility.yul\":2710:2864   */\n    tag_52:\n        /* \"#utility.yul\":2794:2800   */\n      dup3\n        /* \"#utility.yul\":2789:2792   */\n      dup2\n        /* \"#utility.yul\":2784:2787   */\n      dup4\n        /* \"#utility.yul\":2771:2801   */\n      calldatacopy\n        /* \"#utility.yul\":2856:2857   */\n      0x00\n        /* \"#utility.yul\":2847:2853   */\n      dup4\n        /* \"#utility.yul\":2842:2845   */\n      dup4\n        /* \"#utility.yul\":2838:2854   */\n      add\n        /* \"#utility.yul\":2831:2858   */\n      mstore\n        /* \"#utility.yul\":2710:2864   */\n      pop\n      pop\n      pop\n      jump\t// out\n        /* \"#utility.yul\":2870:3282   */\n    tag_53:\n        /* \"#utility.yul\":2948:2953   */\n      0x00\n        /* \"#utility.yul\":2973:3039   */\n      tag_102\n        /* \"#utility.yul\":2989:3038   */\n      tag_103\n        /* \"#utility.yul\":3031:3037   */\n      dup5\n        /* \"#utility.yul\":2989:3038   */\n      tag_51\n      jump\t// in\n    tag_103:\n        /* \"#utility.yul\":2973:3039   */\n      tag_50\n      jump\t// in\n    tag_102:\n        /* \"#utility.yul\":2964:3039   */\n      swap1\n      pop\n        /* \"#utility.yul\":3062:3068   */\n      dup3\n        /* \"#utility.yul\":3055:3060   */\n      dup2\n        /* \"#utility.yul\":3048:3069   */\n      mstore\n        /* \"#utility.yul\":3100:3104   */\n      0x20\n        /* \"#utility.yul\":3093:3098   */\n      dup2\n        /* \"#utility.yul\":3089:3105   */\n      add\n        /* \"#utility.yul\":3138:3141   */\n      dup5\n        /* \"#utility.yul\":3129:3135   */\n      dup5\n        /* \"#utility.yul\":3124:3127   */\n      dup5\n        /* \"#utility.yul\":3120:3136   */\n      add\n        /* \"#utility.yul\":3117:3142   */\n      gt\n        /* \"#utility.yul\":3114:3226   */\n      iszero\n      tag_104\n      jumpi\n        /* \"#utility.yul\":3145:3224   */\n      tag_105\n      tag_46\n      jump\t// in\n    tag_105:\n        /* \"#utility.yul\":3114:3226   */\n    tag_104:\n        /* \"#utility.yul\":3235:3276   */\n      tag_106\n        /* \"#utility.yul\":3269:3275   */\n      dup5\n        /* \"#utility.yul\":3264:3267   */\n      dup3\n        /* \"#utility.yul\":3259:3262   */\n      dup6\n        /* \"#utility.yul\":3235:3276   */\n      tag_52\n      jump\t// in\n    tag_106:\n        /* \"#utility.yul\":2954:3282   */\n      pop\n        /* \"#utility.yul\":2870:3282   */\n      swap4\n      swap3\n      pop\n      pop\n      pop\n      jump\t// out\n        /* \"#utility.yul\":3302:3642   */\n    tag_54:\n        /* \"#utility.yul\":3358:3363   */\n      0x00\n        /* \"#utility.yul\":3407:3410   */\n      dup3\n        /* \"#utility.yul\":3400:3404   */\n      0x1f\n        /* \"#utility.yul\":3392:3398   */\n      dup4\n        /* \"#utility.yul\":3388:3405   */\n      add\n        /* \"#utility.yul\":3384:3411   */\n      slt\n        /* \"#utility.yul\":3374:3496   */\n      tag_108\n      jumpi\n        /* \"#utility.yul\":3415:3494   */\n      tag_109\n      tag_45\n      jump\t// in\n    tag_109:\n        /* \"#utility.yul\":3374:3496   */\n    tag_108:\n        /* \"#utility.yul\":3532:3538   */\n      dup2\n        /* \"#utility.yul\":3519:3539   */\n      calldataload\n        /* \"#utility.yul\":3557:3636   */\n      tag_110\n        /* \"#utility.yul\":3632:3635   */\n      dup5\n        /* \"#utility.yul\":3624:3630   */\n      dup3\n        /* \"#utility.yul\":3617:3621   */\n      0x20\n        /* \"#utility.yul\":3609:3615   */\n      dup7\n        /* \"#utility.yul\":3605:3622   */\n      add\n        /* \"#utility.yul\":3557:3636   */\n      tag_53\n      jump\t// in\n    tag_110:\n        /* \"#utility.yul\":3548:3636   */\n      swap2\n      pop\n        /* \"#utility.yul\":3364:3642   */\n      pop\n        /* \"#utility.yul\":3302:3642   */\n      swap3\n      swap2\n      pop\n      pop\n      jump\t// out\n        /* \"#utility.yul\":3648:5133   */\n    tag_12:\n        /* \"#utility.yul\":3774:3780   */\n      0x00\n        /* \"#utility.yul\":3782:3788   */\n      dup1\n        /* \"#utility.yul\":3790:3796   */\n      0x00\n        /* \"#utility.yul\":3798:3804   */\n      dup1\n        /* \"#utility.yul\":3847:3850   */\n      0x80\n        /* \"#utility.yul\":3835:3844   */\n      dup6\n        /* \"#utility.yul\":3826:3833   */\n      dup8\n        /* \"#utility.yul\":3822:3845   */\n      sub\n        /* \"#utility.yul\":3818:3851   */\n      slt\n        /* \"#utility.yul\":3815:3935   */\n      iszero\n      tag_112\n      jumpi\n        /* \"#utility.yul\":3854:3933   */\n      tag_113\n      tag_43\n      jump\t// in\n    tag_113:\n        /* \"#utility.yul\":3815:3935   */\n    tag_112:\n        /* \"#utility.yul\":4002:4003   */\n      0x00\n        /* \"#utility.yul\":3991:4000   */\n      dup6\n        /* \"#utility.yul\":3987:4004   */\n      add\n        /* \"#utility.yul\":3974:4005   */\n      calldataload\n        /* \"#utility.yul\":4032:4050   */\n      0xffffffffffffffff\n        /* \"#utility.yul\":4024:4030   */\n      dup2\n        /* \"#utility.yul\":4021:4051   */\n      gt\n        /* \"#utility.yul\":4018:4135   */\n      iszero\n      tag_114\n      jumpi\n        /* \"#utility.yul\":4054:4133   */\n      tag_115\n      tag_44\n      jump\t// in\n    tag_115:\n        /* \"#utility.yul\":4018:4135   */\n    tag_114:\n        /* \"#utility.yul\":4159:4222   */\n      tag_116\n        /* \"#utility.yul\":4214:4221   */\n      dup8\n        /* \"#utility.yul\":4205:4211   */\n      dup3\n        /* \"#utility.yul\":4194:4203   */\n      dup9\n        /* \"#utility.yul\":4190:4212   */\n      add\n        /* \"#utility.yul\":4159:4222   */\n      tag_54\n      jump\t// in\n    tag_116:\n        /* \"#utility.yul\":4149:4222   */\n      swap5\n      pop\n        /* \"#utility.yul\":3945:4232   */\n      pop\n        /* \"#utility.yul\":4299:4301   */\n      0x20\n        /* \"#utility.yul\":4288:4297   */\n      dup6\n        /* \"#utility.yul\":4284:4302   */\n      add\n        /* \"#utility.yul\":4271:4303   */\n      calldataload\n        /* \"#utility.yul\":4330:4348   */\n      0xffffffffffffffff\n        /* \"#utility.yul\":4322:4328   */\n      dup2\n        /* \"#utility.yul\":4319:4349   */\n      gt\n        /* \"#utility.yul\":4316:4433   */\n      iszero\n      tag_117\n      jumpi\n        /* \"#utility.yul\":4352:4431   */\n      tag_118\n      tag_44\n      jump\t// in\n    tag_118:\n        /* \"#utility.yul\":4316:4433   */\n    tag_117:\n        /* \"#utility.yul\":4457:4520   */\n      tag_119\n        /* \"#utility.yul\":4512:4519   */\n      dup8\n        /* \"#utility.yul\":4503:4509   */\n      dup3\n        /* \"#utility.yul\":4492:4501   */\n      dup9\n        /* \"#utility.yul\":4488:4510   */\n      add\n        /* \"#utility.yul\":4457:4520   */\n      tag_54\n      jump\t// in\n    tag_119:\n        /* \"#utility.yul\":4447:4520   */\n      swap4\n      pop\n        /* \"#utility.yul\":4242:4530   */\n      pop\n        /* \"#utility.yul\":4597:4599   */\n      0x40\n        /* \"#utility.yul\":4586:4595   */\n      dup6\n        /* \"#utility.yul\":4582:4600   */\n      add\n        /* \"#utility.yul\":4569:4601   */\n      calldataload\n        /* \"#utility.yul\":4628:4646   */\n      0xffffffffffffffff\n        /* \"#utility.yul\":4620:4626   */\n      dup2\n        /* \"#utility.yul\":4617:4647   */\n      gt\n        /* \"#utility.yul\":4614:4731   */\n      iszero\n      tag_120\n      jumpi\n        /* \"#utility.yul\":4650:4729   */\n      tag_121\n      tag_44\n      jump\t// in\n    tag_121:\n        /* \"#utility.yul\":4614:4731   */\n    tag_120:\n        /* \"#utility.yul\":4755:4818   */\n      tag_122\n        /* \"#utility.yul\":4810:4817   */\n      dup8\n        /* \"#utility.yul\":4801:4807   */\n      dup3\n        /* \"#utility.yul\":4790:4799   */\n      dup9\n        /* \"#utility.yul\":4786:4808   */\n      add\n        /* \"#utility.yul\":4755:4818   */\n      tag_54\n      jump\t// in\n    tag_122:\n        /* \"#utility.yul\":4745:4818   */\n      swap3\n      pop\n        /* \"#utility.yul\":4540:4828   */\n      pop\n        /* \"#utility.yul\":4895:4897   */\n      0x60\n        /* \"#utility.yul\":4884:4893   */\n      dup6\n        /* \"#utility.yul\":4880:4898   */\n      add\n        /* \"#utility.yul\":4867:4899   */\n      calldataload\n        /* \"#utility.yul\":4926:4944   */\n      0xffffffffffffffff\n        /* \"#utility.yul\":4918:4924   */\n      dup2\n        /* \"#utility.yul\":4915:4945   */\n      gt\n        /* \"#utility.yul\":4912:5029   */\n      iszero\n      tag_123\n      jumpi\n        /* \"#utility.yul\":4948:5027   */\n      tag_124\n      tag_44\n      jump\t// in\n    tag_124:\n        /* \"#utility.yul\":4912:5029   */\n    tag_123:\n        /* \"#utility.yul\":5053:5116   */\n      tag_125\n        /* \"#utility.yul\":5108:5115   */\n      dup8\n        /* \"#utility.yul\":5099:5105   */\n      dup3\n        /* \"#utility.yul\":5088:5097   */\n      dup9\n        /* \"#utility.yul\":5084:5106   */\n      add\n        /* \"#utility.yul\":5053:5116   */\n      tag_54\n      jump\t// in\n    tag_125:\n        /* \"#utility.yul\":5043:5116   */\n      swap2\n      pop\n        /* \"#utility.yul\":4838:5126   */\n      pop\n        /* \"#utility.yul\":3648:5133   */\n      swap3\n      swap6\n      swap2\n      swap5\n      pop\n      swap3\n      pop\n      jump\t// out\n        /* \"#utility.yul\":5139:5229   */\n    tag_55:\n        /* \"#utility.yul\":5173:5180   */\n      0x00\n        /* \"#utility.yul\":5216:5221   */\n      dup2\n        /* \"#utility.yul\":5209:5222   */\n      iszero\n        /* \"#utility.yul\":5202:5223   */\n      iszero\n        /* \"#utility.yul\":5191:5223   */\n      swap1\n      pop\n        /* \"#utility.yul\":5139:5229   */\n      swap2\n      swap1\n      pop\n      jump\t// out\n        /* \"#utility.yul\":5235:5344   */\n    tag_56:\n        /* \"#utility.yul\":5316:5337   */\n      tag_128\n        /* \"#utility.yul\":5331:5336   */\n      dup2\n        /* \"#utility.yul\":5316:5337   */\n      tag_55\n      jump\t// in\n    tag_128:\n        /* \"#utility.yul\":5311:5314   */\n      dup3\n        /* \"#utility.yul\":5304:5338   */\n      mstore\n        /* \"#utility.yul\":5235:5344   */\n      pop\n      pop\n      jump\t// out\n        /* \"#utility.yul\":5350:5560   */\n    tag_15:\n        /* \"#utility.yul\":5437:5441   */\n      0x00\n        /* \"#utility.yul\":5475:5477   */\n      0x20\n        /* \"#utility.yul\":5464:5473   */\n      dup3\n        /* \"#utility.yul\":5460:5478   */\n      add\n        /* \"#utility.yul\":5452:5478   */\n      swap1\n      pop\n        /* \"#utility.yul\":5488:5553   */\n      tag_130\n        /* \"#utility.yul\":5550:5551   */\n      0x00\n        /* \"#utility.yul\":5539:5548   */\n      dup4\n        /* \"#utility.yul\":5535:5552   */\n      add\n        /* \"#utility.yul\":5526:5532   */\n      dup5\n        /* \"#utility.yul\":5488:5553   */\n      tag_56\n      jump\t// in\n    tag_130:\n        /* \"#utility.yul\":5350:5560   */\n      swap3\n      swap2\n      pop\n      pop\n      jump\t// out\n        /* \"#utility.yul\":5566:5662   */\n    tag_57:\n        /* \"#utility.yul\":5603:5610   */\n      0x00\n        /* \"#utility.yul\":5632:5656   */\n      tag_132\n        /* \"#utility.yul\":5650:5655   */\n      dup3\n        /* \"#utility.yul\":5632:5656   */\n      tag_36\n      jump\t// in\n    tag_132:\n        /* \"#utility.yul\":5621:5656   */\n      swap1\n      pop\n        /* \"#utility.yul\":5566:5662   */\n      swap2\n      swap1\n      pop\n      jump\t// out\n        /* \"#utility.yul\":5668:5790   */\n    tag_58:\n        /* \"#utility.yul\":5741:5765   */\n      tag_134\n        /* \"#utility.yul\":5759:5764   */\n      dup2\n        /* \"#utility.yul\":5741:5765   */\n      tag_57\n      jump\t// in\n    tag_134:\n        /* \"#utility.yul\":5734:5739   */\n      dup2\n        /* \"#utility.yul\":5731:5766   */\n      eq\n        /* \"#utility.yul\":5721:5784   */\n      tag_135\n      jumpi\n        /* \"#utility.yul\":5780:5781   */\n      0x00\n        /* \"#utility.yul\":5777:5778   */\n      dup1\n        /* \"#utility.yul\":5770:5782   */\n      revert\n        /* \"#utility.yul\":5721:5784   */\n    tag_135:\n        /* \"#utility.yul\":5668:5790   */\n      pop\n      jump\t// out\n        /* \"#utility.yul\":5796:5935   */\n    tag_59:\n        /* \"#utility.yul\":5842:5847   */\n      0x00\n        /* \"#utility.yul\":5880:5886   */\n      dup2\n        /* \"#utility.yul\":5867:5887   */\n      calldataload\n        /* \"#utility.yul\":5858:5887   */\n      swap1\n      pop\n        /* \"#utility.yul\":5896:5929   */\n      tag_137\n        /* \"#utility.yul\":5923:5928   */\n      dup2\n        /* \"#utility.yul\":5896:5929   */\n      tag_58\n      jump\t// in\n    tag_137:\n        /* \"#utility.yul\":5796:5935   */\n      swap3\n      swap2\n      pop\n      pop\n      jump\t// out\n        /* \"#utility.yul\":5941:6270   */\n    tag_18:\n        /* \"#utility.yul\":6000:6006   */\n      0x00\n        /* \"#utility.yul\":6049:6051   */\n      0x20\n        /* \"#utility.yul\":6037:6046   */\n      dup3\n        /* \"#utility.yul\":6028:6035   */\n      dup5\n        /* \"#utility.yul\":6024:6047   */\n      sub\n        /* \"#utility.yul\":6020:6052   */\n      slt\n        /* \"#utility.yul\":6017:6136   */\n      iszero\n      tag_139\n      jumpi\n        /* \"#utility.yul\":6055:6134   */\n      tag_140\n      tag_43\n      jump\t// in\n    tag_140:\n        /* \"#utility.yul\":6017:6136   */\n    tag_139:\n        /* \"#utility.yul\":6175:6176   */\n      0x00\n        /* \"#utility.yul\":6200:6253   */\n      tag_141\n        /* \"#utility.yul\":6245:6252   */\n      dup5\n        /* \"#utility.yul\":6236:6242   */\n      dup3\n        /* \"#utility.yul\":6225:6234   */\n      dup6\n        /* \"#utility.yul\":6221:6243   */\n      add\n        /* \"#utility.yul\":6200:6253   */\n      tag_59\n      jump\t// in\n    tag_141:\n        /* \"#utility.yul\":6190:6253   */\n      swap2\n      pop\n        /* \"#utility.yul\":6146:6263   */\n      pop\n        /* \"#utility.yul\":5941:6270   */\n      swap3\n      swap2\n      pop\n      pop\n      jump\t// out\n        /* \"#utility.yul\":6276:6375   */\n    tag_60:\n        /* \"#utility.yul\":6328:6334   */\n      0x00\n        /* \"#utility.yul\":6362:6367   */\n      dup2\n        /* \"#utility.yul\":6356:6368   */\n      mload\n        /* \"#utility.yul\":6346:6368   */\n      swap1\n      pop\n        /* \"#utility.yul\":6276:6375   */\n      swap2\n      swap1\n      pop\n      jump\t// out\n        /* \"#utility.yul\":6381:6550   */\n    tag_61:\n        /* \"#utility.yul\":6465:6476   */\n      0x00\n        /* \"#utility.yul\":6499:6505   */\n      dup3\n        /* \"#utility.yul\":6494:6497   */\n      dup3\n        /* \"#utility.yul\":6487:6506   */\n      mstore\n        /* \"#utility.yul\":6539:6543   */\n      0x20\n        /* \"#utility.yul\":6534:6537   */\n      dup3\n        /* \"#utility.yul\":6530:6544   */\n      add\n        /* \"#utility.yul\":6515:6544   */\n      swap1\n      pop\n        /* \"#utility.yul\":6381:6550   */\n      swap3\n      swap2\n      pop\n      pop\n      jump\t// out\n        /* \"#utility.yul\":6556:6863   */\n    tag_62:\n        /* \"#utility.yul\":6624:6625   */\n      0x00\n        /* \"#utility.yul\":6634:6747   */\n    tag_145:\n        /* \"#utility.yul\":6648:6654   */\n      dup4\n        /* \"#utility.yul\":6645:6646   */\n      dup2\n        /* \"#utility.yul\":6642:6655   */\n      lt\n        /* \"#utility.yul\":6634:6747   */\n      iszero\n      tag_147\n      jumpi\n        /* \"#utility.yul\":6733:6734   */\n      dup1\n        /* \"#utility.yul\":6728:6731   */\n      dup3\n        /* \"#utility.yul\":6724:6735   */\n      add\n        /* \"#utility.yul\":6718:6736   */\n      mload\n        /* \"#utility.yul\":6714:6715   */\n      dup2\n        /* \"#utility.yul\":6709:6712   */\n      dup5\n        /* \"#utility.yul\":6705:6716   */\n      add\n        /* \"#utility.yul\":6698:6737   */\n      mstore\n        /* \"#utility.yul\":6670:6672   */\n      0x20\n        /* \"#utility.yul\":6667:6668   */\n      dup2\n        /* \"#utility.yul\":6663:6673   */\n      add\n        /* \"#utility.yul\":6658:6673   */\n      swap1\n      pop\n        /* \"#utility.yul\":6634:6747   */\n      jump(tag_145)\n    tag_147:\n        /* \"#utility.yul\":6765:6771   */\n      dup4\n        /* \"#utility.yul\":6762:6763   */\n      dup2\n        /* \"#utility.yul\":6759:6772   */\n      gt\n        /* \"#utility.yul\":6756:6857   */\n      iszero\n      tag_148\n      jumpi\n        /* \"#utility.yul\":6845:6846   */\n      0x00\n        /* \"#utility.yul\":6836:6842   */\n      dup5\n        /* \"#utility.yul\":6831:6834   */\n      dup5\n        /* \"#utility.yul\":6827:6843   */\n      add\n        /* \"#utility.yul\":6820:6847   */\n      mstore\n        /* \"#utility.yul\":6756:6857   */\n    tag_148:\n        /* \"#utility.yul\":6605:6863   */\n      pop\n        /* \"#utility.yul\":6556:6863   */\n      pop\n      pop\n      pop\n      jump\t// out\n        /* \"#utility.yul\":6869:7233   */\n    tag_63:\n        /* \"#utility.yul\":6957:6960   */\n      0x00\n        /* \"#utility.yul\":6985:7024   */\n      tag_150\n        /* \"#utility.yul\":7018:7023   */\n      dup3\n        /* \"#utility.yul\":6985:7024   */\n      tag_60\n      jump\t// in\n    tag_150:\n        /* \"#utility.yul\":7040:7111   */\n      tag_151\n        /* \"#utility.yul\":7104:7110   */\n      dup2\n        /* \"#utility.yul\":7099:7102   */\n      dup6\n        /* \"#utility.yul\":7040:7111   */\n      tag_61\n      jump\t// in\n    tag_151:\n        /* \"#utility.yul\":7033:7111   */\n      swap4\n      pop\n        /* \"#utility.yul\":7120:7172   */\n      tag_152\n        /* \"#utility.yul\":7165:7171   */\n      dup2\n        /* \"#utility.yul\":7160:7163   */\n      dup6\n        /* \"#utility.yul\":7153:7157   */\n      0x20\n        /* \"#utility.yul\":7146:7151   */\n      dup7\n        /* \"#utility.yul\":7142:7158   */\n      add\n        /* \"#utility.yul\":7120:7172   */\n      tag_62\n      jump\t// in\n    tag_152:\n        /* \"#utility.yul\":7197:7226   */\n      tag_153\n        /* \"#utility.yul\":7219:7225   */\n      dup2\n        /* \"#utility.yul\":7197:7226   */\n      tag_47\n      jump\t// in\n    tag_153:\n        /* \"#utility.yul\":7192:7195   */\n      dup5\n        /* \"#utility.yul\":7188:7227   */\n      add\n        /* \"#utility.yul\":7181:7227   */\n      swap2\n      pop\n        /* \"#utility.yul\":6961:7233   */\n      pop\n        /* \"#utility.yul\":6869:7233   */\n      swap3\n      swap2\n      pop\n      pop\n      jump\t// out\n        /* \"#utility.yul\":7239:7552   */\n    tag_21:\n        /* \"#utility.yul\":7352:7356   */\n      0x00\n        /* \"#utility.yul\":7390:7392   */\n      0x20\n        /* \"#utility.yul\":7379:7388   */\n      dup3\n        /* \"#utility.yul\":7375:7393   */\n      add\n        /* \"#utility.yul\":7367:7393   */\n      swap1\n      pop\n        /* \"#utility.yul\":7439:7448   */\n      dup2\n        /* \"#utility.yul\":7433:7437   */\n      dup2\n        /* \"#utility.yul\":7429:7449   */\n      sub\n        /* \"#utility.yul\":7425:7426   */\n      0x00\n        /* \"#utility.yul\":7414:7423   */\n      dup4\n        /* \"#utility.yul\":7410:7427   */\n      add\n        /* \"#utility.yul\":7403:7450   */\n      mstore\n        /* \"#utility.yul\":7467:7545   */\n      tag_155\n        /* \"#utility.yul\":7540:7544   */\n      dup2\n        /* \"#utility.yul\":7531:7537   */\n      dup5\n        /* \"#utility.yul\":7467:7545   */\n      tag_63\n      jump\t// in\n    tag_155:\n        /* \"#utility.yul\":7459:7545   */\n      swap1\n      pop\n        /* \"#utility.yul\":7239:7552   */\n      swap3\n      swap2\n      pop\n      pop\n      jump\t// out\n        /* \"#utility.yul\":7558:8475   */\n    tag_24:\n        /* \"#utility.yul\":7815:7819   */\n      0x00\n        /* \"#utility.yul\":7853:7856   */\n      0x80\n        /* \"#utility.yul\":7842:7851   */\n      dup3\n        /* \"#utility.yul\":7838:7857   */\n      add\n        /* \"#utility.yul\":7830:7857   */\n      swap1\n      pop\n        /* \"#utility.yul\":7903:7912   */\n      dup2\n        /* \"#utility.yul\":7897:7901   */\n      dup2\n        /* \"#utility.yul\":7893:7913   */\n      sub\n        /* \"#utility.yul\":7889:7890   */\n      0x00\n        /* \"#utility.yul\":7878:7887   */\n      dup4\n        /* \"#utility.yul\":7874:7891   */\n      add\n        /* \"#utility.yul\":7867:7914   */\n      mstore\n        /* \"#utility.yul\":7931:8009   */\n      tag_157\n        /* \"#utility.yul\":8004:8008   */\n      dup2\n        /* \"#utility.yul\":7995:8001   */\n      dup8\n        /* \"#utility.yul\":7931:8009   */\n      tag_63\n      jump\t// in\n    tag_157:\n        /* \"#utility.yul\":7923:8009   */\n      swap1\n      pop\n        /* \"#utility.yul\":8056:8065   */\n      dup2\n        /* \"#utility.yul\":8050:8054   */\n      dup2\n        /* \"#utility.yul\":8046:8066   */\n      sub\n        /* \"#utility.yul\":8041:8043   */\n      0x20\n        /* \"#utility.yul\":8030:8039   */\n      dup4\n        /* \"#utility.yul\":8026:8044   */\n      add\n        /* \"#utility.yul\":8019:8067   */\n      mstore\n        /* \"#utility.yul\":8084:8162   */\n      tag_158\n        /* \"#utility.yul\":8157:8161   */\n      dup2\n        /* \"#utility.yul\":8148:8154   */\n      dup7\n        /* \"#utility.yul\":8084:8162   */\n      tag_63\n      jump\t// in\n    tag_158:\n        /* \"#utility.yul\":8076:8162   */\n      swap1\n      pop\n        /* \"#utility.yul\":8209:8218   */\n      dup2\n        /* \"#utility.yul\":8203:8207   */\n      dup2\n        /* \"#utility.yul\":8199:8219   */\n      sub\n        /* \"#utility.yul\":8194:8196   */\n      0x40\n        /* \"#utility.yul\":8183:8192   */\n      dup4\n        /* \"#utility.yul\":8179:8197   */\n      add\n        /* \"#utility.yul\":8172:8220   */\n      mstore\n        /* \"#utility.yul\":8237:8315   */\n      tag_159\n        /* \"#utility.yul\":8310:8314   */\n      dup2\n        /* \"#utility.yul\":8301:8307   */\n      dup6\n        /* \"#utility.yul\":8237:8315   */\n      tag_63\n      jump\t// in\n    tag_159:\n        /* \"#utility.yul\":8229:8315   */\n      swap1\n      pop\n        /* \"#utility.yul\":8362:8371   */\n      dup2\n        /* \"#utility.yul\":8356:8360   */\n      dup2\n        /* \"#utility.yul\":8352:8372   */\n      sub\n        /* \"#utility.yul\":8347:8349   */\n      0x60\n        /* \"#utility.yul\":8336:8345   */\n      dup4\n        /* \"#utility.yul\":8332:8350   */\n      add\n        /* \"#utility.yul\":8325:8373   */\n      mstore\n        /* \"#utility.yul\":8390:8468   */\n      tag_160\n        /* \"#utility.yul\":8463:8467   */\n      dup2\n        /* \"#utility.yul\":8454:8460   */\n      dup5\n        /* \"#utility.yul\":8390:8468   */\n      tag_63\n      jump\t// in\n    tag_160:\n        /* \"#utility.yul\":8382:8468   */\n      swap1\n      pop\n        /* \"#utility.yul\":7558:8475   */\n      swap6\n      swap5\n      pop\n      pop\n      pop\n      pop\n      pop\n      jump\t// out\n        /* \"#utility.yul\":8481:8599   */\n    tag_64:\n        /* \"#utility.yul\":8568:8592   */\n      tag_162\n        /* \"#utility.yul\":8586:8591   */\n      dup2\n        /* \"#utility.yul\":8568:8592   */\n      tag_57\n      jump\t// in\n    tag_162:\n        /* \"#utility.yul\":8563:8566   */\n      dup3\n        /* \"#utility.yul\":8556:8593   */\n      mstore\n        /* \"#utility.yul\":8481:8599   */\n      pop\n      pop\n      jump\t// out\n        /* \"#utility.yul\":8605:8827   */\n    tag_30:\n        /* \"#utility.yul\":8698:8702   */\n      0x00\n        /* \"#utility.yul\":8736:8738   */\n      0x20\n        /* \"#utility.yul\":8725:8734   */\n      dup3\n        /* \"#utility.yul\":8721:8739   */\n      add\n        /* \"#utility.yul\":8713:8739   */\n      swap1\n      pop\n        /* \"#utility.yul\":8749:8820   */\n      tag_164\n        /* \"#utility.yul\":8817:8818   */\n      0x00\n        /* \"#utility.yul\":8806:8815   */\n      dup4\n        /* \"#utility.yul\":8802:8819   */\n      add\n        /* \"#utility.yul\":8793:8799   */\n      dup5\n        /* \"#utility.yul\":8749:8820   */\n      tag_64\n      jump\t// in\n    tag_164:\n        /* \"#utility.yul\":8605:8827   */\n      swap3\n      swap2\n      pop\n      pop\n      jump\t// out\n        /* \"#utility.yul\":8833:9254   */\n    tag_65:\n        /* \"#utility.yul\":8922:8927   */\n      0x00\n        /* \"#utility.yul\":8947:9013   */\n      tag_166\n        /* \"#utility.yul\":8963:9012   */\n      tag_167\n        /* \"#utility.yul\":9005:9011   */\n      dup5\n        /* \"#utility.yul\":8963:9012   */\n      tag_51\n      jump\t// in\n    tag_167:\n        /* \"#utility.yul\":8947:9013   */\n      tag_50\n      jump\t// in\n    tag_166:\n        /* \"#utility.yul\":8938:9013   */\n      swap1\n      pop\n        /* \"#utility.yul\":9036:9042   */\n      dup3\n        /* \"#utility.yul\":9029:9034   */\n      dup2\n        /* \"#utility.yul\":9022:9043   */\n      mstore\n        /* \"#utility.yul\":9074:9078   */\n      0x20\n        /* \"#utility.yul\":9067:9072   */\n      dup2\n        /* \"#utility.yul\":9063:9079   */\n      add\n        /* \"#utility.yul\":9112:9115   */\n      dup5\n        /* \"#utility.yul\":9103:9109   */\n      dup5\n        /* \"#utility.yul\":9098:9101   */\n      dup5\n        /* \"#utility.yul\":9094:9110   */\n      add\n        /* \"#utility.yul\":9091:9116   */\n      gt\n        /* \"#utility.yul\":9088:9200   */\n      iszero\n      tag_168\n      jumpi\n        /* \"#utility.yul\":9119:9198   */\n      tag_169\n      tag_46\n      jump\t// in\n    tag_169:\n        /* \"#utility.yul\":9088:9200   */\n    tag_168:\n        /* \"#utility.yul\":9209:9248   */\n      tag_170\n        /* \"#utility.yul\":9241:9247   */\n      dup5\n        /* \"#utility.yul\":9236:9239   */\n      dup3\n        /* \"#utility.yul\":9231:9234   */\n      dup6\n        /* \"#utility.yul\":9209:9248   */\n      tag_62\n      jump\t// in\n    tag_170:\n        /* \"#utility.yul\":8928:9254   */\n      pop\n        /* \"#utility.yul\":8833:9254   */\n      swap4\n      swap3\n      pop\n      pop\n      pop\n      jump\t// out\n        /* \"#utility.yul\":9274:9629   */\n    tag_66:\n        /* \"#utility.yul\":9341:9346   */\n      0x00\n        /* \"#utility.yul\":9390:9393   */\n      dup3\n        /* \"#utility.yul\":9383:9387   */\n      0x1f\n        /* \"#utility.yul\":9375:9381   */\n      dup4\n        /* \"#utility.yul\":9371:9388   */\n      add\n        /* \"#utility.yul\":9367:9394   */\n      slt\n        /* \"#utility.yul\":9357:9479   */\n      tag_172\n      jumpi\n        /* \"#utility.yul\":9398:9477   */\n      tag_173\n      tag_45\n      jump\t// in\n    tag_173:\n        /* \"#utility.yul\":9357:9479   */\n    tag_172:\n        /* \"#utility.yul\":9508:9514   */\n      dup2\n        /* \"#utility.yul\":9502:9515   */\n      mload\n        /* \"#utility.yul\":9533:9623   */\n      tag_174\n        /* \"#utility.yul\":9619:9622   */\n      dup5\n        /* \"#utility.yul\":9611:9617   */\n      dup3\n        /* \"#utility.yul\":9604:9608   */\n      0x20\n        /* \"#utility.yul\":9596:9602   */\n      dup7\n        /* \"#utility.yul\":9592:9609   */\n      add\n        /* \"#utility.yul\":9533:9623   */\n      tag_65\n      jump\t// in\n    tag_174:\n        /* \"#utility.yul\":9524:9623   */\n      swap2\n      pop\n        /* \"#utility.yul\":9347:9629   */\n      pop\n        /* \"#utility.yul\":9274:9629   */\n      swap3\n      swap2\n      pop\n      pop\n      jump\t// out\n        /* \"#utility.yul\":9635:10159   */\n    tag_35:\n        /* \"#utility.yul\":9715:9721   */\n      0x00\n        /* \"#utility.yul\":9764:9766   */\n      0x20\n        /* \"#utility.yul\":9752:9761   */\n      dup3\n        /* \"#utility.yul\":9743:9750   */\n      dup5\n        /* \"#utility.yul\":9739:9762   */\n      sub\n        /* \"#utility.yul\":9735:9767   */\n      slt\n        /* \"#utility.yul\":9732:9851   */\n      iszero\n      tag_176\n      jumpi\n        /* \"#utility.yul\":9770:9849   */\n      tag_177\n      tag_43\n      jump\t// in\n    tag_177:\n        /* \"#utility.yul\":9732:9851   */\n    tag_176:\n        /* \"#utility.yul\":9911:9912   */\n      0x00\n        /* \"#utility.yul\":9900:9909   */\n      dup3\n        /* \"#utility.yul\":9896:9913   */\n      add\n        /* \"#utility.yul\":9890:9914   */\n      mload\n        /* \"#utility.yul\":9941:9959   */\n      0xffffffffffffffff\n        /* \"#utility.yul\":9933:9939   */\n      dup2\n        /* \"#utility.yul\":9930:9960   */\n      gt\n        /* \"#utility.yul\":9927:10044   */\n      iszero\n      tag_178\n      jumpi\n        /* \"#utility.yul\":9963:10042   */\n      tag_179\n      tag_44\n      jump\t// in\n    tag_179:\n        /* \"#utility.yul\":9927:10044   */\n    tag_178:\n        /* \"#utility.yul\":10068:10142   */\n      tag_180\n        /* \"#utility.yul\":10134:10141   */\n      dup5\n        /* \"#utility.yul\":10125:10131   */\n      dup3\n        /* \"#utility.yul\":10114:10123   */\n      dup6\n        /* \"#utility.yul\":10110:10132   */\n      add\n        /* \"#utility.yul\":10068:10142   */\n      tag_66\n      jump\t// in\n    tag_180:\n        /* \"#utility.yul\":10058:10142   */\n      swap2\n      pop\n        /* \"#utility.yul\":9861:10152   */\n      pop\n        /* \"#utility.yul\":9635:10159   */\n      swap3\n      swap2\n      pop\n      pop\n      jump\t// out\n\n    auxdata: 0xa2646970667358221220cd26435ef7b9dce1f657cd2b9536632631f47d5ce2b1e3526ab5e7d6915a9e1964736f6c63430008080033\n}\n",
				"bytecode": {
					"linkReferences": {},
					"object": "608060405234801561001057600080fd5b506040516108e63803806108e6833981810160405281019061003291906100db565b806000806101000a81548173ffffffffffffffffffffffffffffffffffffffff021916908373ffffffffffffffffffffffffffffffffffffffff16021790555050610108565b600080fd5b600073ffffffffffffffffffffffffffffffffffffffff82169050919050565b60006100a88261007d565b9050919050565b6100b88161009d565b81146100c357600080fd5b50565b6000815190506100d5816100af565b92915050565b6000602082840312156100f1576100f0610078565b5b60006100ff848285016100c6565b91505092915050565b6107cf806101176000396000f3fe608060405234801561001057600080fd5b50600436106100415760003560e01c80632c131e7f1461004657806362335c5614610064578063f09439db14610094575b600080fd5b61004e6100c4565b60405161005b91906102be565b60405180910390f35b61007e60048036038101906100799190610433565b6100e8565b60405161008b9190610525565b60405180910390f35b6100ae60048036038101906100a9919061057e565b610188565b6040516100bb9190610633565b60405180910390f35b60008054906101000a900473ffffffffffffffffffffffffffffffffffffffff1681565b60008060009054906101000a900473ffffffffffffffffffffffffffffffffffffffff1673ffffffffffffffffffffffffffffffffffffffff1663138b1dce868686866040518563ffffffff1660e01b815260040161014a9493929190610655565b600060405180830381600087803b15801561016457600080fd5b505af1158015610178573d6000803e3d6000fd5b5050505060019050949350505050565b606060008054906101000a900473ffffffffffffffffffffffffffffffffffffffff1673ffffffffffffffffffffffffffffffffffffffff16637f53afc2836040518263ffffffff1660e01b81526004016101e391906106c5565b60006040518083038186803b1580156101fb57600080fd5b505afa15801561020f573d6000803e3d6000fd5b505050506040513d6000823e3d601f19601f820116820180604052508101906102389190610750565b9050919050565b600073ffffffffffffffffffffffffffffffffffffffff82169050919050565b6000819050919050565b600061028461027f61027a8461023f565b61025f565b61023f565b9050919050565b600061029682610269565b9050919050565b60006102a88261028b565b9050919050565b6102b88161029d565b82525050565b60006020820190506102d360008301846102af565b92915050565b6000604051905090565b600080fd5b600080fd5b600080fd5b600080fd5b6000601f19601f8301169050919050565b7f4e487b7100000000000000000000000000000000000000000000000000000000600052604160045260246000fd5b610340826102f7565b810181811067ffffffffffffffff8211171561035f5761035e610308565b5b80604052505050565b60006103726102d9565b905061037e8282610337565b919050565b600067ffffffffffffffff82111561039e5761039d610308565b5b6103a7826102f7565b9050602081019050919050565b82818337600083830152505050565b60006103d66103d184610383565b610368565b9050828152602081018484840111156103f2576103f16102f2565b5b6103fd8482856103b4565b509392505050565b600082601f83011261041a576104196102ed565b5b813561042a8482602086016103c3565b91505092915050565b6000806000806080858703121561044d5761044c6102e3565b5b600085013567ffffffffffffffff81111561046b5761046a6102e8565b5b61047787828801610405565b945050602085013567ffffffffffffffff811115610498576104976102e8565b5b6104a487828801610405565b935050604085013567ffffffffffffffff8111156104c5576104c46102e8565b5b6104d187828801610405565b925050606085013567ffffffffffffffff8111156104f2576104f16102e8565b5b6104fe87828801610405565b91505092959194509250565b60008115159050919050565b61051f8161050a565b82525050565b600060208201905061053a6000830184610516565b92915050565b600061054b8261023f565b9050919050565b61055b81610540565b811461056657600080fd5b50565b60008135905061057881610552565b92915050565b600060208284031215610594576105936102e3565b5b60006105a284828501610569565b91505092915050565b600081519050919050565b600082825260208201905092915050565b60005b838110156105e55780820151818401526020810190506105ca565b838111156105f4576000848401525b50505050565b6000610605826105ab565b61060f81856105b6565b935061061f8185602086016105c7565b610628816102f7565b840191505092915050565b6000602082019050818103600083015261064d81846105fa565b905092915050565b6000608082019050818103600083015261066f81876105fa565b9050818103602083015261068381866105fa565b9050818103604083015261069781856105fa565b905081810360608301526106ab81846105fa565b905095945050505050565b6106bf81610540565b82525050565b60006020820190506106da60008301846106b6565b92915050565b60006106f36106ee84610383565b610368565b90508281526020810184848401111561070f5761070e6102f2565b5b61071a8482856105c7565b509392505050565b600082601f830112610737576107366102ed565b5b81516107478482602086016106e0565b91505092915050565b600060208284031215610766576107656102e3565b5b600082015167ffffffffffffffff811115610784576107836102e8565b5b61079084828501610722565b9150509291505056fea2646970667358221220cd26435ef7b9dce1f657cd2b9536632631f47d5ce2b1e3526ab5e7d6915a9e1964736f6c63430008080033",
					"opcodes": "PUSH1 0x80 PUSH1 0x40 MSTORE CALLVALUE DUP1 ISZERO PUSH2 0x10 JUMPI PUSH1 0x0 DUP1 REVERT JUMPDEST POP PUSH1 0x40 MLOAD PUSH2 0x8E6 CODESIZE SUB DUP1 PUSH2 0x8E6 DUP4 CODECOPY DUP2 DUP2 ADD PUSH1 0x40 MSTORE DUP2 ADD SWAP1 PUSH2 0x32 SWAP2 SWAP1 PUSH2 0xDB JUMP JUMPDEST DUP1 PUSH1 0x0 DUP1 PUSH2 0x100 EXP DUP2 SLOAD DUP2 PUSH20 0xFFFFFFFFFFFFFFFFFFFFFFFFFFFFFFFFFFFFFFFF MUL NOT AND SWAP1 DUP4 PUSH20 0xFFFFFFFFFFFFFFFFFFFFFFFFFFFFFFFFFFFFFFFF AND MUL OR SWAP1 SSTORE POP POP PUSH2 0x108 JUMP JUMPDEST PUSH1 0x0 DUP1 REVERT JUMPDEST PUSH1 0x0 PUSH20 0xFFFFFFFFFFFFFFFFFFFFFFFFFFFFFFFFFFFFFFFF DUP3 AND SWAP1 POP SWAP2 SWAP1 POP JUMP JUMPDEST PUSH1 0x0 PUSH2 0xA8 DUP3 PUSH2 0x7D JUMP JUMPDEST SWAP1 POP SWAP2 SWAP1 POP JUMP JUMPDEST PUSH2 0xB8 DUP2 PUSH2 0x9D JUMP JUMPDEST DUP2 EQ PUSH2 0xC3 JUMPI PUSH1 0x0 DUP1 REVERT JUMPDEST POP JUMP JUMPDEST PUSH1 0x0 DUP2 MLOAD SWAP1 POP PUSH2 0xD5 DUP2 PUSH2 0xAF JUMP JUMPDEST SWAP3 SWAP2 POP POP JUMP JUMPDEST PUSH1 0x0 PUSH1 0x20 DUP3 DUP5 SUB SLT ISZERO PUSH2 0xF1 JUMPI PUSH2 0xF0 PUSH2 0x78 JUMP JUMPDEST JUMPDEST PUSH1 0x0 PUSH2 0xFF DUP5 DUP3 DUP6 ADD PUSH2 0xC6 JUMP JUMPDEST SWAP2 POP POP SWAP3 SWAP2 POP POP JUMP JUMPDEST PUSH2 0x7CF DUP1 PUSH2 0x117 PUSH1 0x0 CODECOPY PUSH1 0x0 RETURN INVALID PUSH1 0x80 PUSH1 0x40 MSTORE CALLVALUE DUP1 ISZERO PUSH2 0x10 JUMPI PUSH1 0x0 DUP1 REVERT JUMPDEST POP PUSH1 0x4 CALLDATASIZE LT PUSH2 0x41 JUMPI PUSH1 0x0 CALLDATALOAD PUSH1 0xE0 SHR DUP1 PUSH4 0x2C131E7F EQ PUSH2 0x46 JUMPI DUP1 PUSH4 0x62335C56 EQ PUSH2 0x64 JUMPI DUP1 PUSH4 0xF09439DB EQ PUSH2 0x94 JUMPI JUMPDEST PUSH1 0x0 DUP1 REVERT JUMPDEST PUSH2 0x4E PUSH2 0xC4 JUMP JUMPDEST PUSH1 0x40 MLOAD PUSH2 0x5B SWAP2 SWAP1 PUSH2 0x2BE JUMP JUMPDEST PUSH1 0x40 MLOAD DUP1 SWAP2 SUB SWAP1 RETURN JUMPDEST PUSH2 0x7E PUSH1 0x4 DUP1 CALLDATASIZE SUB DUP2 ADD SWAP1 PUSH2 0x79 SWAP2 SWAP1 PUSH2 0x433 JUMP JUMPDEST PUSH2 0xE8 JUMP JUMPDEST PUSH1 0x40 MLOAD PUSH2 0x8B SWAP2 SWAP1 PUSH2 0x525 JUMP JUMPDEST PUSH1 0x40 MLOAD DUP1 SWAP2 SUB SWAP1 RETURN JUMPDEST PUSH2 0xAE PUSH1 0x4 DUP1 CALLDATASIZE SUB DUP2 ADD SWAP1 PUSH2 0xA9 SWAP2 SWAP1 PUSH2 0x57E JUMP JUMPDEST PUSH2 0x188 JUMP JUMPDEST PUSH1 0x40 MLOAD PUSH2 0xBB SWAP2 SWAP1 PUSH2 0x633 JUMP JUMPDEST PUSH1 0x40 MLOAD DUP1 SWAP2 SUB SWAP1 RETURN JUMPDEST PUSH1 0x0 DUP1 SLOAD SWAP1 PUSH2 0x100 EXP SWAP1 DIV PUSH20 0xFFFFFFFFFFFFFFFFFFFFFFFFFFFFFFFFFFFFFFFF AND DUP2 JUMP JUMPDEST PUSH1 0x0 DUP1 PUSH1 0x0 SWAP1 SLOAD SWAP1 PUSH2 0x100 EXP SWAP1 DIV PUSH20 0xFFFFFFFFFFFFFFFFFFFFFFFFFFFFFFFFFFFFFFFF AND PUSH20 0xFFFFFFFFFFFFFFFFFFFFFFFFFFFFFFFFFFFFFFFF AND PUSH4 0x138B1DCE DUP7 DUP7 DUP7 DUP7 PUSH1 0x40 MLOAD DUP6 PUSH4 0xFFFFFFFF AND PUSH1 0xE0 SHL DUP2 MSTORE PUSH1 0x4 ADD PUSH2 0x14A SWAP5 SWAP4 SWAP3 SWAP2 SWAP1 PUSH2 0x655 JUMP JUMPDEST PUSH1 0x0 PUSH1 0x40 MLOAD DUP1 DUP4 SUB DUP2 PUSH1 0x0 DUP8 DUP1 EXTCODESIZE ISZERO DUP1 ISZERO PUSH2 0x164 JUMPI PUSH1 0x0 DUP1 REVERT JUMPDEST POP GAS CALL ISZERO DUP1 ISZERO PUSH2 0x178 JUMPI RETURNDATASIZE PUSH1 0x0 DUP1 RETURNDATACOPY RETURNDATASIZE PUSH1 0x0 REVERT JUMPDEST POP POP POP POP PUSH1 0x1 SWAP1 POP SWAP5 SWAP4 POP POP POP POP JUMP JUMPDEST PUSH1 0x60 PUSH1 0x0 DUP1 SLOAD SWAP1 PUSH2 0x100 EXP SWAP1 DIV PUSH20 0xFFFFFFFFFFFFFFFFFFFFFFFFFFFFFFFFFFFFFFFF AND PUSH20 0xFFFFFFFFFFFFFFFFFFFFFFFFFFFFFFFFFFFFFFFF AND PUSH4 0x7F53AFC2 DUP4 PUSH1 0x40 MLOAD DUP3 PUSH4 0xFFFFFFFF AND PUSH1 0xE0 SHL DUP2 MSTORE PUSH1 0x4 ADD PUSH2 0x1E3 SWAP2 SWAP1 PUSH2 0x6C5 JUMP JUMPDEST PUSH1 0x0 PUSH1 0x40 MLOAD DUP1 DUP4 SUB DUP2 DUP7 DUP1 EXTCODESIZE ISZERO DUP1 ISZERO PUSH2 0x1FB JUMPI PUSH1 0x0 DUP1 REVERT JUMPDEST POP GAS STATICCALL ISZERO DUP1 ISZERO PUSH2 0x20F JUMPI RETURNDATASIZE PUSH1 0x0 DUP1 RETURNDATACOPY RETURNDATASIZE PUSH1 0x0 REVERT JUMPDEST POP POP POP POP PUSH1 0x40 MLOAD RETURNDATASIZE PUSH1 0x0 DUP3 RETURNDATACOPY RETURNDATASIZE PUSH1 0x1F NOT PUSH1 0x1F DUP3 ADD AND DUP3 ADD DUP1 PUSH1 0x40 MSTORE POP DUP2 ADD SWAP1 PUSH2 0x238 SWAP2 SWAP1 PUSH2 0x750 JUMP JUMPDEST SWAP1 POP SWAP2 SWAP1 POP JUMP JUMPDEST PUSH1 0x0 PUSH20 0xFFFFFFFFFFFFFFFFFFFFFFFFFFFFFFFFFFFFFFFF DUP3 AND SWAP1 POP SWAP2 SWAP1 POP JUMP JUMPDEST PUSH1 0x0 DUP2 SWAP1 POP SWAP2 SWAP1 POP JUMP JUMPDEST PUSH1 0x0 PUSH2 0x284 PUSH2 0x27F PUSH2 0x27A DUP5 PUSH2 0x23F JUMP JUMPDEST PUSH2 0x25F JUMP JUMPDEST PUSH2 0x23F JUMP JUMPDEST SWAP1 POP SWAP2 SWAP1 POP JUMP JUMPDEST PUSH1 0x0 PUSH2 0x296 DUP3 PUSH2 0x269 JUMP JUMPDEST SWAP1 POP SWAP2 SWAP1 POP JUMP JUMPDEST PUSH1 0x0 PUSH2 0x2A8 DUP3 PUSH2 0x28B JUMP JUMPDEST SWAP1 POP SWAP2 SWAP1 POP JUMP JUMPDEST PUSH2 0x2B8 DUP2 PUSH2 0x29D JUMP JUMPDEST DUP3 MSTORE POP POP JUMP JUMPDEST PUSH1 0x0 PUSH1 0x20 DUP3 ADD SWAP1 POP PUSH2 0x2D3 PUSH1 0x0 DUP4 ADD DUP5 PUSH2 0x2AF JUMP JUMPDEST SWAP3 SWAP2 POP POP JUMP JUMPDEST PUSH1 0x0 PUSH1 0x40 MLOAD SWAP1 POP SWAP1 JUMP JUMPDEST PUSH1 0x0 DUP1 REVERT JUMPDEST PUSH1 0x0 DUP1 REVERT JUMPDEST PUSH1 0x0 DUP1 REVERT JUMPDEST PUSH1 0x0 DUP1 REVERT JUMPDEST PUSH1 0x0 PUSH1 0x1F NOT PUSH1 0x1F DUP4 ADD AND SWAP1 POP SWAP2 SWAP1 POP JUMP JUMPDEST PUSH32 0x4E487B7100000000000000000000000000000000000000000000000000000000 PUSH1 0x0 MSTORE PUSH1 0x41 PUSH1 0x4 MSTORE PUSH1 0x24 PUSH1 0x0 REVERT JUMPDEST PUSH2 0x340 DUP3 PUSH2 0x2F7 JUMP JUMPDEST DUP2 ADD DUP2 DUP2 LT PUSH8 0xFFFFFFFFFFFFFFFF DUP3 GT OR ISZERO PUSH2 0x35F JUMPI PUSH2 0x35E PUSH2 0x308 JUMP JUMPDEST JUMPDEST DUP1 PUSH1 0x40 MSTORE POP POP POP JUMP JUMPDEST PUSH1 0x0 PUSH2 0x372 PUSH2 0x2D9 JUMP JUMPDEST SWAP1 POP PUSH2 0x37E DUP3 DUP3 PUSH2 0x337 JUMP JUMPDEST SWAP2 SWAP1 POP JUMP JUMPDEST PUSH1 0x0 PUSH8 0xFFFFFFFFFFFFFFFF DUP3 GT ISZERO PUSH2 0x39E JUMPI PUSH2 0x39D PUSH2 0x308 JUMP JUMPDEST JUMPDEST PUSH2 0x3A7 DUP3 PUSH2 0x2F7 JUMP JUMPDEST SWAP1 POP PUSH1 0x20 DUP2 ADD SWAP1 POP SWAP2 SWAP1 POP JUMP JUMPDEST DUP3 DUP2 DUP4 CALLDATACOPY PUSH1 0x0 DUP4 DUP4 ADD MSTORE POP POP POP JUMP JUMPDEST PUSH1 0x0 PUSH2 0x3D6 PUSH2 0x3D1 DUP5 PUSH2 0x383 JUMP JUMPDEST PUSH2 0x368 JUMP JUMPDEST SWAP1 POP DUP3 DUP2 MSTORE PUSH1 0x20 DUP2 ADD DUP5 DUP5 DUP5 ADD GT ISZERO PUSH2 0x3F2 JUMPI PUSH2 0x3F1 PUSH2 0x2F2 JUMP JUMPDEST JUMPDEST PUSH2 0x3FD DUP5 DUP3 DUP6 PUSH2 0x3B4 JUMP JUMPDEST POP SWAP4 SWAP3 POP POP POP JUMP JUMPDEST PUSH1 0x0 DUP3 PUSH1 0x1F DUP4 ADD SLT PUSH2 0x41A JUMPI PUSH2 0x419 PUSH2 0x2ED JUMP JUMPDEST JUMPDEST DUP2 CALLDATALOAD PUSH2 0x42A DUP5 DUP3 PUSH1 0x20 DUP7 ADD PUSH2 0x3C3 JUMP JUMPDEST SWAP2 POP POP SWAP3 SWAP2 POP POP JUMP JUMPDEST PUSH1 0x0 DUP1 PUSH1 0x0 DUP1 PUSH1 0x80 DUP6 DUP8 SUB SLT ISZERO PUSH2 0x44D JUMPI PUSH2 0x44C PUSH2 0x2E3 JUMP JUMPDEST JUMPDEST PUSH1 0x0 DUP6 ADD CALLDATALOAD PUSH8 0xFFFFFFFFFFFFFFFF DUP2 GT ISZERO PUSH2 0x46B JUMPI PUSH2 0x46A PUSH2 0x2E8 JUMP JUMPDEST JUMPDEST PUSH2 0x477 DUP8 DUP3 DUP9 ADD PUSH2 0x405 JUMP JUMPDEST SWAP5 POP POP PUSH1 0x20 DUP6 ADD CALLDATALOAD PUSH8 0xFFFFFFFFFFFFFFFF DUP2 GT ISZERO PUSH2 0x498 JUMPI PUSH2 0x497 PUSH2 0x2E8 JUMP JUMPDEST JUMPDEST PUSH2 0x4A4 DUP8 DUP3 DUP9 ADD PUSH2 0x405 JUMP JUMPDEST SWAP4 POP POP PUSH1 0x40 DUP6 ADD CALLDATALOAD PUSH8 0xFFFFFFFFFFFFFFFF DUP2 GT ISZERO PUSH2 0x4C5 JUMPI PUSH2 0x4C4 PUSH2 0x2E8 JUMP JUMPDEST JUMPDEST PUSH2 0x4D1 DUP8 DUP3 DUP9 ADD PUSH2 0x405 JUMP JUMPDEST SWAP3 POP POP PUSH1 0x60 DUP6 ADD CALLDATALOAD PUSH8 0xFFFFFFFFFFFFFFFF DUP2 GT ISZERO PUSH2 0x4F2 JUMPI PUSH2 0x4F1 PUSH2 0x2E8 JUMP JUMPDEST JUMPDEST PUSH2 0x4FE DUP8 DUP3 DUP9 ADD PUSH2 0x405 JUMP JUMPDEST SWAP2 POP POP SWAP3 SWAP6 SWAP2 SWAP5 POP SWAP3 POP JUMP JUMPDEST PUSH1 0x0 DUP2 ISZERO ISZERO SWAP1 POP SWAP2 SWAP1 POP JUMP JUMPDEST PUSH2 0x51F DUP2 PUSH2 0x50A JUMP JUMPDEST DUP3 MSTORE POP POP JUMP JUMPDEST PUSH1 0x0 PUSH1 0x20 DUP3 ADD SWAP1 POP PUSH2 0x53A PUSH1 0x0 DUP4 ADD DUP5 PUSH2 0x516 JUMP JUMPDEST SWAP3 SWAP2 POP POP JUMP JUMPDEST PUSH1 0x0 PUSH2 0x54B DUP3 PUSH2 0x23F JUMP JUMPDEST SWAP1 POP SWAP2 SWAP1 POP JUMP JUMPDEST PUSH2 0x55B DUP2 PUSH2 0x540 JUMP JUMPDEST DUP2 EQ PUSH2 0x566 JUMPI PUSH1 0x0 DUP1 REVERT JUMPDEST POP JUMP JUMPDEST PUSH1 0x0 DUP2 CALLDATALOAD SWAP1 POP PUSH2 0x578 DUP2 PUSH2 0x552 JUMP JUMPDEST SWAP3 SWAP2 POP POP JUMP JUMPDEST PUSH1 0x0 PUSH1 0x20 DUP3 DUP5 SUB SLT ISZERO PUSH2 0x594 JUMPI PUSH2 0x593 PUSH2 0x2E3 JUMP JUMPDEST JUMPDEST PUSH1 0x0 PUSH2 0x5A2 DUP5 DUP3 DUP6 ADD PUSH2 0x569 JUMP JUMPDEST SWAP2 POP POP SWAP3 SWAP2 POP POP JUMP JUMPDEST PUSH1 0x0 DUP2 MLOAD SWAP1 POP SWAP2 SWAP1 POP JUMP JUMPDEST PUSH1 0x0 DUP3 DUP3 MSTORE PUSH1 0x20 DUP3 ADD SWAP1 POP SWAP3 SWAP2 POP POP JUMP JUMPDEST PUSH1 0x0 JUMPDEST DUP4 DUP2 LT ISZERO PUSH2 0x5E5 JUMPI DUP1 DUP3 ADD MLOAD DUP2 DUP5 ADD MSTORE PUSH1 0x20 DUP2 ADD SWAP1 POP PUSH2 0x5CA JUMP JUMPDEST DUP4 DUP2 GT ISZERO PUSH2 0x5F4 JUMPI PUSH1 0x0 DUP5 DUP5 ADD MSTORE JUMPDEST POP POP POP POP JUMP JUMPDEST PUSH1 0x0 PUSH2 0x605 DUP3 PUSH2 0x5AB JUMP JUMPDEST PUSH2 0x60F DUP2 DUP6 PUSH2 0x5B6 JUMP JUMPDEST SWAP4 POP PUSH2 0x61F DUP2 DUP6 PUSH1 0x20 DUP7 ADD PUSH2 0x5C7 JUMP JUMPDEST PUSH2 0x628 DUP2 PUSH2 0x2F7 JUMP JUMPDEST DUP5 ADD SWAP2 POP POP SWAP3 SWAP2 POP POP JUMP JUMPDEST PUSH1 0x0 PUSH1 0x20 DUP3 ADD SWAP1 POP DUP2 DUP2 SUB PUSH1 0x0 DUP4 ADD MSTORE PUSH2 0x64D DUP2 DUP5 PUSH2 0x5FA JUMP JUMPDEST SWAP1 POP SWAP3 SWAP2 POP POP JUMP JUMPDEST PUSH1 0x0 PUSH1 0x80 DUP3 ADD SWAP1 POP DUP2 DUP2 SUB PUSH1 0x0 DUP4 ADD MSTORE PUSH2 0x66F DUP2 DUP8 PUSH2 0x5FA JUMP JUMPDEST SWAP1 POP DUP2 DUP2 SUB PUSH1 0x20 DUP4 ADD MSTORE PUSH2 0x683 DUP2 DUP7 PUSH2 0x5FA JUMP JUMPDEST SWAP1 POP DUP2 DUP2 SUB PUSH1 0x40 DUP4 ADD MSTORE PUSH2 0x697 DUP2 DUP6 PUSH2 0x5FA JUMP JUMPDEST SWAP1 POP DUP2 DUP2 SUB PUSH1 0x60 DUP4 ADD MSTORE PUSH2 0x6AB DUP2 DUP5 PUSH2 0x5FA JUMP JUMPDEST SWAP1 POP SWAP6 SWAP5 POP POP POP POP POP JUMP JUMPDEST PUSH2 0x6BF DUP2 PUSH2 0x540 JUMP JUMPDEST DUP3 MSTORE POP POP JUMP JUMPDEST PUSH1 0x0 PUSH1 0x20 DUP3 ADD SWAP1 POP PUSH2 0x6DA PUSH1 0x0 DUP4 ADD DUP5 PUSH2 0x6B6 JUMP JUMPDEST SWAP3 SWAP2 POP POP JUMP JUMPDEST PUSH1 0x0 PUSH2 0x6F3 PUSH2 0x6EE DUP5 PUSH2 0x383 JUMP JUMPDEST PUSH2 0x368 JUMP JUMPDEST SWAP1 POP DUP3 DUP2 MSTORE PUSH1 0x20 DUP2 ADD DUP5 DUP5 DUP5 ADD GT ISZERO PUSH2 0x70F JUMPI PUSH2 0x70E PUSH2 0x2F2 JUMP JUMPDEST JUMPDEST PUSH2 0x71A DUP5 DUP3 DUP6 PUSH2 0x5C7 JUMP JUMPDEST POP SWAP4 SWAP3 POP POP POP JUMP JUMPDEST PUSH1 0x0 DUP3 PUSH1 0x1F DUP4 ADD SLT PUSH2 0x737 JUMPI PUSH2 0x736 PUSH2 0x2ED JUMP JUMPDEST JUMPDEST DUP2 MLOAD PUSH2 0x747 DUP5 DUP3 PUSH1 0x20 DUP7 ADD PUSH2 0x6E0 JUMP JUMPDEST SWAP2 POP POP SWAP3 SWAP2 POP POP JUMP JUMPDEST PUSH1 0x0 PUSH1 0x20 DUP3 DUP5 SUB SLT ISZERO PUSH2 0x766 JUMPI PUSH2 0x765 PUSH2 0x2E3 JUMP JUMPDEST JUMPDEST PUSH1 0x0 DUP3 ADD MLOAD PUSH8 0xFFFFFFFFFFFFFFFF DUP2 GT ISZERO PUSH2 0x784 JUMPI PUSH2 0x783 PUSH2 0x2E8 JUMP JUMPDEST JUMPDEST PUSH2 0x790 DUP5 DUP3 DUP6 ADD PUSH2 0x722 JUMP JUMPDEST SWAP2 POP POP SWAP3 SWAP2 POP POP JUMP INVALID LOG2 PUSH5 0x6970667358 0x22 SLT KECCAK256 0xCD 0x26 NUMBER 0x5E 0xF7 0xB9 0xDC 0xE1 0xF6 JUMPI 0xCD 0x2B SWAP6 CALLDATASIZE PUSH4 0x2631F47D 0x5C 0xE2 0xB1 0xE3 MSTORE PUSH11 0xB5E7D6915A9E1964736F6C PUSH4 0x43000808 STOP CALLER "
				},
				"gasEstimates": {
					"creation": {
						"codeDepositCost": "399800",
						"executionCost": "infinite",
						"totalCost": "infinite"
					},
					"external": {
						"kullaniciBilgileriContract()": "infinite",
						"kullaniciMersisNoGetir(address)": "infinite",
						"ureticiKaydiOlustur(string,string,string,string)": "infinite"
					}
				},
				"methodIdentifiers": {
					"kullaniciBilgileriContract()": "2c131e7f",
					"kullaniciMersisNoGetir(address)": "f09439db",
					"ureticiKaydiOlustur(string,string,string,string)": "62335c56"
				}
			},
			"storageLayout": {
				"storage": [
					{
						"astId": 60,
						"contract": "contracts/uretici_kayit.sol:UreticiKaydi",
						"label": "kullaniciBilgileriContract",
						"offset": 0,
						"slot": "0",
						"type": "t_contract(KullaniciBilgileri)57"
					}
				],
				"types": {
					"t_contract(KullaniciBilgileri)57": {
						"encoding": "inplace",
						"label": "contract KullaniciBilgileri",
						"numberOfBytes": "20"
					}
				}
			},
			"userdoc": {
				"kind": "user",
				"methods": {},
				"version": 1
			}
		}
	}
}