{
	"contracts/HelloWorld.sol": {
		"urun_contract": {
			"abi": [
				{
					"inputs": [
						{
							"internalType": "string",
							"name": "_urunIsmi",
							"type": "string"
						},
						{
							"internalType": "uint256",
							"name": "_hashedId",
							"type": "uint256"
						},
						{
							"internalType": "string",
							"name": "_uretici",
							"type": "string"
						},
						{
							"internalType": "string",
							"name": "_tedarikci",
							"type": "string"
						},
						{
							"internalType": "string",
							"name": "_onayNumarasi",
							"type": "string"
						},
						{
							"internalType": "string",
							"name": "_isletmeOnayNumarasi",
							"type": "string"
						},
						{
							"internalType": "enum urun_contract.Durum",
							"name": "_durum",
							"type": "uint8"
						}
					],
					"name": "urunEkle",
					"outputs": [],
					"stateMutability": "nonpayable",
					"type": "function"
				},
				{
					"inputs": [
						{
							"internalType": "uint256",
							"name": "_hashedId",
							"type": "uint256"
						},
						{
							"internalType": "string",
							"name": "_urunIsmi",
							"type": "string"
						},
						{
							"internalType": "string",
							"name": "_uretici",
							"type": "string"
						},
						{
							"internalType": "string",
							"name": "_tedarikci",
							"type": "string"
						},
						{
							"internalType": "string",
							"name": "_onayNumarasi",
							"type": "string"
						},
						{
							"internalType": "string",
							"name": "_isletmeOnayNumarasi",
							"type": "string"
						},
						{
							"internalType": "enum urun_contract.Durum",
							"name": "_durum",
							"type": "uint8"
						}
					],
					"name": "urunGuncelle",
					"outputs": [],
					"stateMutability": "nonpayable",
					"type": "function"
				},
				{
					"inputs": [
						{
							"internalType": "uint256",
							"name": "_hashedId",
							"type": "uint256"
						}
					],
					"name": "urunSorgula",
					"outputs": [
						{
							"internalType": "string",
							"name": "urunIsmi",
							"type": "string"
						},
						{
							"internalType": "uint256",
							"name": "hashedId",
							"type": "uint256"
						},
						{
							"internalType": "string",
							"name": "uretici",
							"type": "string"
						},
						{
							"internalType": "string",
							"name": "tedarikci",
							"type": "string"
						},
						{
							"internalType": "string",
							"name": "onayNumarasi",
							"type": "string"
						},
						{
							"internalType": "string",
							"name": "isletmeOnayNumarasi",
							"type": "string"
						},
						{
							"internalType": "enum urun_contract.Durum",
							"name": "durum",
							"type": "uint8"
						}
					],
					"stateMutability": "view",
					"type": "function"
				},
				{
					"inputs": [
						{
							"internalType": "uint256",
							"name": "",
							"type": "uint256"
						}
					],
					"name": "urunler",
					"outputs": [
						{
							"internalType": "string",
							"name": "urun_ismi",
							"type": "string"
						},
						{
							"internalType": "uint256",
							"name": "hashed_id",
							"type": "uint256"
						},
						{
							"internalType": "string",
							"name": "uretici",
							"type": "string"
						},
						{
							"internalType": "string",
							"name": "tedarikci",
							"type": "string"
						},
						{
							"internalType": "string",
							"name": "onayNumarasi",
							"type": "string"
						},
						{
							"internalType": "string",
							"name": "isletmeOnayNumarasi",
							"type": "string"
						},
						{
							"internalType": "enum urun_contract.Durum",
							"name": "durum",
							"type": "uint8"
						}
					],
					"stateMutability": "view",
					"type": "function"
				}
			],
			"devdoc": {
				"kind": "dev",
				"methods": {},
				"version": 1
			},
			"evm": {
				"assembly": "    /* \"contracts/HelloWorld.sol\":57:2363  contract urun_contract {... */\n  mstore(0x40, 0x80)\n  callvalue\n  dup1\n  iszero\n  tag_1\n  jumpi\n  0x00\n  dup1\n  revert\ntag_1:\n  pop\n  dataSize(sub_0)\n  dup1\n  dataOffset(sub_0)\n  0x00\n  codecopy\n  0x00\n  return\nstop\n\nsub_0: assembly {\n        /* \"contracts/HelloWorld.sol\":57:2363  contract urun_contract {... */\n      mstore(0x40, 0x80)\n      callvalue\n      dup1\n      iszero\n      tag_1\n      jumpi\n      0x00\n      dup1\n      revert\n    tag_1:\n      pop\n      jumpi(tag_2, lt(calldatasize, 0x04))\n      shr(0xe0, calldataload(0x00))\n      dup1\n      0x02def0a2\n      eq\n      tag_3\n      jumpi\n      dup1\n      0x3618f1f4\n      eq\n      tag_4\n      jumpi\n      dup1\n      0x514d719f\n      eq\n      tag_5\n      jumpi\n      dup1\n      0xe9d11921\n      eq\n      tag_6\n      jumpi\n    tag_2:\n      0x00\n      dup1\n      revert\n        /* \"contracts/HelloWorld.sol\":342:823  function urunEkle(... */\n    tag_3:\n      tag_7\n      0x04\n      dup1\n      calldatasize\n      sub\n      dup2\n      add\n      swap1\n      tag_8\n      swap2\n      swap1\n      tag_9\n      jump\t// in\n    tag_8:\n      tag_10\n      jump\t// in\n    tag_7:\n      stop\n        /* \"contracts/HelloWorld.sol\":1473:2114  function urunGuncelle(... */\n    tag_4:\n      tag_11\n      0x04\n      dup1\n      calldatasize\n      sub\n      dup2\n      add\n      swap1\n      tag_12\n      swap2\n      swap1\n      tag_13\n      jump\t// in\n    tag_12:\n      tag_14\n      jump\t// in\n    tag_11:\n      stop\n        /* \"contracts/HelloWorld.sol\":316:337  urun[] public urunler */\n    tag_5:\n      tag_15\n      0x04\n      dup1\n      calldatasize\n      sub\n      dup2\n      add\n      swap1\n      tag_16\n      swap2\n      swap1\n      tag_17\n      jump\t// in\n    tag_16:\n      tag_18\n      jump\t// in\n    tag_15:\n      mload(0x40)\n      tag_19\n      swap8\n      swap7\n      swap6\n      swap5\n      swap4\n      swap3\n      swap2\n      swap1\n      tag_20\n      jump\t// in\n    tag_19:\n      mload(0x40)\n      dup1\n      swap2\n      sub\n      swap1\n      return\n        /* \"contracts/HelloWorld.sol\":827:1469  function urunSorgula(uint _hashedId) external view returns (... */\n    tag_6:\n      tag_21\n      0x04\n      dup1\n      calldatasize\n      sub\n      dup2\n      add\n      swap1\n      tag_22\n      swap2\n      swap1\n      tag_17\n      jump\t// in\n    tag_22:\n      tag_23\n      jump\t// in\n    tag_21:\n      mload(0x40)\n      tag_24\n      swap8\n      swap7\n      swap6\n      swap5\n      swap4\n      swap3\n      swap2\n      swap1\n      tag_20\n      jump\t// in\n    tag_24:\n      mload(0x40)\n      dup1\n      swap2\n      sub\n      swap1\n      return\n        /* \"contracts/HelloWorld.sol\":342:823  function urunEkle(... */\n    tag_10:\n        /* \"contracts/HelloWorld.sol\":577:584  urunler */\n      0x00\n        /* \"contracts/HelloWorld.sol\":590:817  urun({... */\n      mload(0x40)\n      dup1\n      0xe0\n      add\n      0x40\n      mstore\n      dup1\n        /* \"contracts/HelloWorld.sol\":614:623  _urunIsmi */\n      dup10\n        /* \"contracts/HelloWorld.sol\":590:817  urun({... */\n      dup2\n      mstore\n      0x20\n      add\n        /* \"contracts/HelloWorld.sol\":642:651  _hashedId */\n      dup9\n        /* \"contracts/HelloWorld.sol\":590:817  urun({... */\n      dup2\n      mstore\n      0x20\n      add\n        /* \"contracts/HelloWorld.sol\":668:676  _uretici */\n      dup8\n        /* \"contracts/HelloWorld.sol\":590:817  urun({... */\n      dup2\n      mstore\n      0x20\n      add\n        /* \"contracts/HelloWorld.sol\":695:705  _tedarikci */\n      dup7\n        /* \"contracts/HelloWorld.sol\":590:817  urun({... */\n      dup2\n      mstore\n      0x20\n      add\n        /* \"contracts/HelloWorld.sol\":727:740  _onayNumarasi */\n      dup6\n        /* \"contracts/HelloWorld.sol\":590:817  urun({... */\n      dup2\n      mstore\n      0x20\n      add\n        /* \"contracts/HelloWorld.sol\":769:789  _isletmeOnayNumarasi */\n      dup5\n        /* \"contracts/HelloWorld.sol\":590:817  urun({... */\n      dup2\n      mstore\n      0x20\n      add\n        /* \"contracts/HelloWorld.sol\":804:810  _durum */\n      dup4\n        /* \"contracts/HelloWorld.sol\":590:817  urun({... */\n      0x01\n      dup2\n      gt\n      iszero\n      tag_26\n      jumpi\n      tag_27\n      tag_28\n      jump\t// in\n    tag_27:\n    tag_26:\n      dup2\n      mstore\n      pop\n        /* \"contracts/HelloWorld.sol\":577:818  urunler.push(urun({... */\n      swap1\n      dup1\n      0x01\n      dup2\n      sload\n      add\n      dup1\n      dup3\n      sstore\n      dup1\n      swap2\n      pop\n      pop\n      0x01\n      swap1\n      sub\n      swap1\n      0x00\n      mstore\n      keccak256(0x00, 0x20)\n      swap1\n      0x07\n      mul\n      add\n      0x00\n      swap1\n      swap2\n      swap1\n      swap2\n      swap1\n      swap2\n      pop\n      0x00\n      dup3\n      add\n      mload\n      dup2\n      0x00\n      add\n      swap1\n      dup1\n      mload\n      swap1\n      0x20\n      add\n      swap1\n      tag_30\n      swap3\n      swap2\n      swap1\n      tag_31\n      jump\t// in\n    tag_30:\n      pop\n      0x20\n      dup3\n      add\n      mload\n      dup2\n      0x01\n      add\n      sstore\n      0x40\n      dup3\n      add\n      mload\n      dup2\n      0x02\n      add\n      swap1\n      dup1\n      mload\n      swap1\n      0x20\n      add\n      swap1\n      tag_32\n      swap3\n      swap2\n      swap1\n      tag_31\n      jump\t// in\n    tag_32:\n      pop\n      0x60\n      dup3\n      add\n      mload\n      dup2\n      0x03\n      add\n      swap1\n      dup1\n      mload\n      swap1\n      0x20\n      add\n      swap1\n      tag_33\n      swap3\n      swap2\n      swap1\n      tag_31\n      jump\t// in\n    tag_33:\n      pop\n      0x80\n      dup3\n      add\n      mload\n      dup2\n      0x04\n      add\n      swap1\n      dup1\n      mload\n      swap1\n      0x20\n      add\n      swap1\n      tag_34\n      swap3\n      swap2\n      swap1\n      tag_31\n      jump\t// in\n    tag_34:\n      pop\n      0xa0\n      dup3\n      add\n      mload\n      dup2\n      0x05\n      add\n      swap1\n      dup1\n      mload\n      swap1\n      0x20\n      add\n      swap1\n      tag_35\n      swap3\n      swap2\n      swap1\n      tag_31\n      jump\t// in\n    tag_35:\n      pop\n      0xc0\n      dup3\n      add\n      mload\n      dup2\n      0x06\n      add\n      exp(0x0100, 0x00)\n      dup2\n      sload\n      dup2\n      0xff\n      mul\n      not\n      and\n      swap1\n      dup4\n      0x01\n      dup2\n      gt\n      iszero\n      tag_36\n      jumpi\n      tag_37\n      tag_28\n      jump\t// in\n    tag_37:\n    tag_36:\n      mul\n      or\n      swap1\n      sstore\n      pop\n      pop\n      pop\n        /* \"contracts/HelloWorld.sol\":342:823  function urunEkle(... */\n      pop\n      pop\n      pop\n      pop\n      pop\n      pop\n      pop\n      jump\t// out\n        /* \"contracts/HelloWorld.sol\":1473:2114  function urunGuncelle(... */\n    tag_14:\n        /* \"contracts/HelloWorld.sol\":1712:1722  uint index */\n      0x00\n        /* \"contracts/HelloWorld.sol\":1725:1749  findUrunIndex(_hashedId) */\n      tag_39\n        /* \"contracts/HelloWorld.sol\":1739:1748  _hashedId */\n      dup9\n        /* \"contracts/HelloWorld.sol\":1725:1738  findUrunIndex */\n      tag_40\n        /* \"contracts/HelloWorld.sol\":1725:1749  findUrunIndex(_hashedId) */\n      jump\t// in\n    tag_39:\n        /* \"contracts/HelloWorld.sol\":1712:1749  uint index = findUrunIndex(_hashedId) */\n      swap1\n      pop\n        /* \"contracts/HelloWorld.sol\":1772:1786  type(uint).max */\n      0xffffffffffffffffffffffffffffffffffffffffffffffffffffffffffffffff\n        /* \"contracts/HelloWorld.sol\":1763:1768  index */\n      dup2\n        /* \"contracts/HelloWorld.sol\":1763:1786  index != type(uint).max */\n      eq\n      iszero\n        /* \"contracts/HelloWorld.sol\":1755:1808  require(index != type(uint).max, \"Product not found\") */\n      tag_41\n      jumpi\n      mload(0x40)\n      0x08c379a000000000000000000000000000000000000000000000000000000000\n      dup2\n      mstore\n      0x04\n      add\n      tag_42\n      swap1\n      tag_43\n      jump\t// in\n    tag_42:\n      mload(0x40)\n      dup1\n      swap2\n      sub\n      swap1\n      revert\n    tag_41:\n        /* \"contracts/HelloWorld.sol\":1815:1839  urun storage updatedUrun */\n      0x00\n        /* \"contracts/HelloWorld.sol\":1842:1849  urunler */\n      dup1\n        /* \"contracts/HelloWorld.sol\":1850:1855  index */\n      dup3\n        /* \"contracts/HelloWorld.sol\":1842:1856  urunler[index] */\n      dup2\n      sload\n      dup2\n      lt\n      tag_44\n      jumpi\n      tag_45\n      tag_46\n      jump\t// in\n    tag_45:\n    tag_44:\n      swap1\n      0x00\n      mstore\n      keccak256(0x00, 0x20)\n      swap1\n      0x07\n      mul\n      add\n        /* \"contracts/HelloWorld.sol\":1815:1856  urun storage updatedUrun = urunler[index] */\n      swap1\n      pop\n        /* \"contracts/HelloWorld.sol\":1886:1895  _urunIsmi */\n      dup8\n        /* \"contracts/HelloWorld.sol\":1862:1873  updatedUrun */\n      dup2\n        /* \"contracts/HelloWorld.sol\":1862:1883  updatedUrun.urun_ismi */\n      0x00\n      add\n        /* \"contracts/HelloWorld.sol\":1862:1895  updatedUrun.urun_ismi = _urunIsmi */\n      swap1\n      dup1\n      mload\n      swap1\n      0x20\n      add\n      swap1\n      tag_48\n      swap3\n      swap2\n      swap1\n      tag_31\n      jump\t// in\n    tag_48:\n      pop\n        /* \"contracts/HelloWorld.sol\":1923:1931  _uretici */\n      dup7\n        /* \"contracts/HelloWorld.sol\":1901:1912  updatedUrun */\n      dup2\n        /* \"contracts/HelloWorld.sol\":1901:1920  updatedUrun.uretici */\n      0x02\n      add\n        /* \"contracts/HelloWorld.sol\":1901:1931  updatedUrun.uretici = _uretici */\n      swap1\n      dup1\n      mload\n      swap1\n      0x20\n      add\n      swap1\n      tag_49\n      swap3\n      swap2\n      swap1\n      tag_31\n      jump\t// in\n    tag_49:\n      pop\n        /* \"contracts/HelloWorld.sol\":1961:1971  _tedarikci */\n      dup6\n        /* \"contracts/HelloWorld.sol\":1937:1948  updatedUrun */\n      dup2\n        /* \"contracts/HelloWorld.sol\":1937:1958  updatedUrun.tedarikci */\n      0x03\n      add\n        /* \"contracts/HelloWorld.sol\":1937:1971  updatedUrun.tedarikci = _tedarikci */\n      swap1\n      dup1\n      mload\n      swap1\n      0x20\n      add\n      swap1\n      tag_50\n      swap3\n      swap2\n      swap1\n      tag_31\n      jump\t// in\n    tag_50:\n      pop\n        /* \"contracts/HelloWorld.sol\":2004:2017  _onayNumarasi */\n      dup5\n        /* \"contracts/HelloWorld.sol\":1977:1988  updatedUrun */\n      dup2\n        /* \"contracts/HelloWorld.sol\":1977:2001  updatedUrun.onayNumarasi */\n      0x04\n      add\n        /* \"contracts/HelloWorld.sol\":1977:2017  updatedUrun.onayNumarasi = _onayNumarasi */\n      swap1\n      dup1\n      mload\n      swap1\n      0x20\n      add\n      swap1\n      tag_51\n      swap3\n      swap2\n      swap1\n      tag_31\n      jump\t// in\n    tag_51:\n      pop\n        /* \"contracts/HelloWorld.sol\":2057:2077  _isletmeOnayNumarasi */\n      dup4\n        /* \"contracts/HelloWorld.sol\":2023:2034  updatedUrun */\n      dup2\n        /* \"contracts/HelloWorld.sol\":2023:2054  updatedUrun.isletmeOnayNumarasi */\n      0x05\n      add\n        /* \"contracts/HelloWorld.sol\":2023:2077  updatedUrun.isletmeOnayNumarasi = _isletmeOnayNumarasi */\n      swap1\n      dup1\n      mload\n      swap1\n      0x20\n      add\n      swap1\n      tag_52\n      swap3\n      swap2\n      swap1\n      tag_31\n      jump\t// in\n    tag_52:\n      pop\n        /* \"contracts/HelloWorld.sol\":2103:2109  _durum */\n      dup3\n        /* \"contracts/HelloWorld.sol\":2083:2094  updatedUrun */\n      dup2\n        /* \"contracts/HelloWorld.sol\":2083:2100  updatedUrun.durum */\n      0x06\n      add\n      0x00\n        /* \"contracts/HelloWorld.sol\":2083:2109  updatedUrun.durum = _durum */\n      0x0100\n      exp\n      dup2\n      sload\n      dup2\n      0xff\n      mul\n      not\n      and\n      swap1\n      dup4\n      0x01\n      dup2\n      gt\n      iszero\n      tag_53\n      jumpi\n      tag_54\n      tag_28\n      jump\t// in\n    tag_54:\n    tag_53:\n      mul\n      or\n      swap1\n      sstore\n      pop\n        /* \"contracts/HelloWorld.sol\":1706:2114  {... */\n      pop\n      pop\n        /* \"contracts/HelloWorld.sol\":1473:2114  function urunGuncelle(... */\n      pop\n      pop\n      pop\n      pop\n      pop\n      pop\n      pop\n      jump\t// out\n        /* \"contracts/HelloWorld.sol\":316:337  urun[] public urunler */\n    tag_18:\n      0x00\n      dup2\n      dup2\n      sload\n      dup2\n      lt\n      tag_55\n      jumpi\n      0x00\n      dup1\n      revert\n    tag_55:\n      swap1\n      0x00\n      mstore\n      keccak256(0x00, 0x20)\n      swap1\n      0x07\n      mul\n      add\n      0x00\n      swap2\n      pop\n      swap1\n      pop\n      dup1\n      0x00\n      add\n      dup1\n      sload\n      tag_57\n      swap1\n      tag_58\n      jump\t// in\n    tag_57:\n      dup1\n      0x1f\n      add\n      0x20\n      dup1\n      swap2\n      div\n      mul\n      0x20\n      add\n      mload(0x40)\n      swap1\n      dup2\n      add\n      0x40\n      mstore\n      dup1\n      swap3\n      swap2\n      swap1\n      dup2\n      dup2\n      mstore\n      0x20\n      add\n      dup3\n      dup1\n      sload\n      tag_59\n      swap1\n      tag_58\n      jump\t// in\n    tag_59:\n      dup1\n      iszero\n      tag_60\n      jumpi\n      dup1\n      0x1f\n      lt\n      tag_61\n      jumpi\n      0x0100\n      dup1\n      dup4\n      sload\n      div\n      mul\n      dup4\n      mstore\n      swap2\n      0x20\n      add\n      swap2\n      jump(tag_60)\n    tag_61:\n      dup3\n      add\n      swap2\n      swap1\n      0x00\n      mstore\n      keccak256(0x00, 0x20)\n      swap1\n    tag_62:\n      dup2\n      sload\n      dup2\n      mstore\n      swap1\n      0x01\n      add\n      swap1\n      0x20\n      add\n      dup1\n      dup4\n      gt\n      tag_62\n      jumpi\n      dup3\n      swap1\n      sub\n      0x1f\n      and\n      dup3\n      add\n      swap2\n    tag_60:\n      pop\n      pop\n      pop\n      pop\n      pop\n      swap1\n      dup1\n      0x01\n      add\n      sload\n      swap1\n      dup1\n      0x02\n      add\n      dup1\n      sload\n      tag_63\n      swap1\n      tag_58\n      jump\t// in\n    tag_63:\n      dup1\n      0x1f\n      add\n      0x20\n      dup1\n      swap2\n      div\n      mul\n      0x20\n      add\n      mload(0x40)\n      swap1\n      dup2\n      add\n      0x40\n      mstore\n      dup1\n      swap3\n      swap2\n      swap1\n      dup2\n      dup2\n      mstore\n      0x20\n      add\n      dup3\n      dup1\n      sload\n      tag_64\n      swap1\n      tag_58\n      jump\t// in\n    tag_64:\n      dup1\n      iszero\n      tag_65\n      jumpi\n      dup1\n      0x1f\n      lt\n      tag_66\n      jumpi\n      0x0100\n      dup1\n      dup4\n      sload\n      div\n      mul\n      dup4\n      mstore\n      swap2\n      0x20\n      add\n      swap2\n      jump(tag_65)\n    tag_66:\n      dup3\n      add\n      swap2\n      swap1\n      0x00\n      mstore\n      keccak256(0x00, 0x20)\n      swap1\n    tag_67:\n      dup2\n      sload\n      dup2\n      mstore\n      swap1\n      0x01\n      add\n      swap1\n      0x20\n      add\n      dup1\n      dup4\n      gt\n      tag_67\n      jumpi\n      dup3\n      swap1\n      sub\n      0x1f\n      and\n      dup3\n      add\n      swap2\n    tag_65:\n      pop\n      pop\n      pop\n      pop\n      pop\n      swap1\n      dup1\n      0x03\n      add\n      dup1\n      sload\n      tag_68\n      swap1\n      tag_58\n      jump\t// in\n    tag_68:\n      dup1\n      0x1f\n      add\n      0x20\n      dup1\n      swap2\n      div\n      mul\n      0x20\n      add\n      mload(0x40)\n      swap1\n      dup2\n      add\n      0x40\n      mstore\n      dup1\n      swap3\n      swap2\n      swap1\n      dup2\n      dup2\n      mstore\n      0x20\n      add\n      dup3\n      dup1\n      sload\n      tag_69\n      swap1\n      tag_58\n      jump\t// in\n    tag_69:\n      dup1\n      iszero\n      tag_70\n      jumpi\n      dup1\n      0x1f\n      lt\n      tag_71\n      jumpi\n      0x0100\n      dup1\n      dup4\n      sload\n      div\n      mul\n      dup4\n      mstore\n      swap2\n      0x20\n      add\n      swap2\n      jump(tag_70)\n    tag_71:\n      dup3\n      add\n      swap2\n      swap1\n      0x00\n      mstore\n      keccak256(0x00, 0x20)\n      swap1\n    tag_72:\n      dup2\n      sload\n      dup2\n      mstore\n      swap1\n      0x01\n      add\n      swap1\n      0x20\n      add\n      dup1\n      dup4\n      gt\n      tag_72\n      jumpi\n      dup3\n      swap1\n      sub\n      0x1f\n      and\n      dup3\n      add\n      swap2\n    tag_70:\n      pop\n      pop\n      pop\n      pop\n      pop\n      swap1\n      dup1\n      0x04\n      add\n      dup1\n      sload\n      tag_73\n      swap1\n      tag_58\n      jump\t// in\n    tag_73:\n      dup1\n      0x1f\n      add\n      0x20\n      dup1\n      swap2\n      div\n      mul\n      0x20\n      add\n      mload(0x40)\n      swap1\n      dup2\n      add\n      0x40\n      mstore\n      dup1\n      swap3\n      swap2\n      swap1\n      dup2\n      dup2\n      mstore\n      0x20\n      add\n      dup3\n      dup1\n      sload\n      tag_74\n      swap1\n      tag_58\n      jump\t// in\n    tag_74:\n      dup1\n      iszero\n      tag_75\n      jumpi\n      dup1\n      0x1f\n      lt\n      tag_76\n      jumpi\n      0x0100\n      dup1\n      dup4\n      sload\n      div\n      mul\n      dup4\n      mstore\n      swap2\n      0x20\n      add\n      swap2\n      jump(tag_75)\n    tag_76:\n      dup3\n      add\n      swap2\n      swap1\n      0x00\n      mstore\n      keccak256(0x00, 0x20)\n      swap1\n    tag_77:\n      dup2\n      sload\n      dup2\n      mstore\n      swap1\n      0x01\n      add\n      swap1\n      0x20\n      add\n      dup1\n      dup4\n      gt\n      tag_77\n      jumpi\n      dup3\n      swap1\n      sub\n      0x1f\n      and\n      dup3\n      add\n      swap2\n    tag_75:\n      pop\n      pop\n      pop\n      pop\n      pop\n      swap1\n      dup1\n      0x05\n      add\n      dup1\n      sload\n      tag_78\n      swap1\n      tag_58\n      jump\t// in\n    tag_78:\n      dup1\n      0x1f\n      add\n      0x20\n      dup1\n      swap2\n      div\n      mul\n      0x20\n      add\n      mload(0x40)\n      swap1\n      dup2\n      add\n      0x40\n      mstore\n      dup1\n      swap3\n      swap2\n      swap1\n      dup2\n      dup2\n      mstore\n      0x20\n      add\n      dup3\n      dup1\n      sload\n      tag_79\n      swap1\n      tag_58\n      jump\t// in\n    tag_79:\n      dup1\n      iszero\n      tag_80\n      jumpi\n      dup1\n      0x1f\n      lt\n      tag_81\n      jumpi\n      0x0100\n      dup1\n      dup4\n      sload\n      div\n      mul\n      dup4\n      mstore\n      swap2\n      0x20\n      add\n      swap2\n      jump(tag_80)\n    tag_81:\n      dup3\n      add\n      swap2\n      swap1\n      0x00\n      mstore\n      keccak256(0x00, 0x20)\n      swap1\n    tag_82:\n      dup2\n      sload\n      dup2\n      mstore\n      swap1\n      0x01\n      add\n      swap1\n      0x20\n      add\n      dup1\n      dup4\n      gt\n      tag_82\n      jumpi\n      dup3\n      swap1\n      sub\n      0x1f\n      and\n      dup3\n      add\n      swap2\n    tag_80:\n      pop\n      pop\n      pop\n      pop\n      pop\n      swap1\n      dup1\n      0x06\n      add\n      0x00\n      swap1\n      sload\n      swap1\n      0x0100\n      exp\n      swap1\n      div\n      0xff\n      and\n      swap1\n      pop\n      dup8\n      jump\t// out\n        /* \"contracts/HelloWorld.sol\":827:1469  function urunSorgula(uint _hashedId) external view returns (... */\n    tag_23:\n        /* \"contracts/HelloWorld.sol\":892:914  string memory urunIsmi */\n      0x60\n        /* \"contracts/HelloWorld.sol\":920:933  uint hashedId */\n      0x00\n        /* \"contracts/HelloWorld.sol\":939:960  string memory uretici */\n      0x60\n        /* \"contracts/HelloWorld.sol\":966:989  string memory tedarikci */\n      dup1\n        /* \"contracts/HelloWorld.sol\":995:1021  string memory onayNumarasi */\n      0x60\n        /* \"contracts/HelloWorld.sol\":1027:1060  string memory isletmeOnayNumarasi */\n      dup1\n        /* \"contracts/HelloWorld.sol\":1066:1077  Durum durum */\n      0x00\n        /* \"contracts/HelloWorld.sol\":1088:1098  uint index */\n      dup1\n        /* \"contracts/HelloWorld.sol\":1101:1125  findUrunIndex(_hashedId) */\n      tag_84\n        /* \"contracts/HelloWorld.sol\":1115:1124  _hashedId */\n      dup10\n        /* \"contracts/HelloWorld.sol\":1101:1114  findUrunIndex */\n      tag_40\n        /* \"contracts/HelloWorld.sol\":1101:1125  findUrunIndex(_hashedId) */\n      jump\t// in\n    tag_84:\n        /* \"contracts/HelloWorld.sol\":1088:1125  uint index = findUrunIndex(_hashedId) */\n      swap1\n      pop\n        /* \"contracts/HelloWorld.sol\":1148:1162  type(uint).max */\n      0xffffffffffffffffffffffffffffffffffffffffffffffffffffffffffffffff\n        /* \"contracts/HelloWorld.sol\":1139:1144  index */\n      dup2\n        /* \"contracts/HelloWorld.sol\":1139:1162  index != type(uint).max */\n      eq\n      iszero\n        /* \"contracts/HelloWorld.sol\":1131:1184  require(index != type(uint).max, \"Product not found\") */\n      tag_85\n      jumpi\n      mload(0x40)\n      0x08c379a000000000000000000000000000000000000000000000000000000000\n      dup2\n      mstore\n      0x04\n      add\n      tag_86\n      swap1\n      tag_43\n      jump\t// in\n    tag_86:\n      mload(0x40)\n      dup1\n      swap2\n      sub\n      swap1\n      revert\n    tag_85:\n        /* \"contracts/HelloWorld.sol\":1195:1218  urun memory queriedUrun */\n      0x00\n        /* \"contracts/HelloWorld.sol\":1221:1228  urunler */\n      dup1\n        /* \"contracts/HelloWorld.sol\":1229:1234  index */\n      dup3\n        /* \"contracts/HelloWorld.sol\":1221:1235  urunler[index] */\n      dup2\n      sload\n      dup2\n      lt\n      tag_87\n      jumpi\n      tag_88\n      tag_46\n      jump\t// in\n    tag_88:\n    tag_87:\n      swap1\n      0x00\n      mstore\n      keccak256(0x00, 0x20)\n      swap1\n      0x07\n      mul\n      add\n        /* \"contracts/HelloWorld.sol\":1195:1235  urun memory queriedUrun = urunler[index] */\n      mload(0x40)\n      dup1\n      0xe0\n      add\n      0x40\n      mstore\n      swap1\n      dup2\n      0x00\n      dup3\n      add\n      dup1\n      sload\n      tag_90\n      swap1\n      tag_58\n      jump\t// in\n    tag_90:\n      dup1\n      0x1f\n      add\n      0x20\n      dup1\n      swap2\n      div\n      mul\n      0x20\n      add\n      mload(0x40)\n      swap1\n      dup2\n      add\n      0x40\n      mstore\n      dup1\n      swap3\n      swap2\n      swap1\n      dup2\n      dup2\n      mstore\n      0x20\n      add\n      dup3\n      dup1\n      sload\n      tag_91\n      swap1\n      tag_58\n      jump\t// in\n    tag_91:\n      dup1\n      iszero\n      tag_92\n      jumpi\n      dup1\n      0x1f\n      lt\n      tag_93\n      jumpi\n      0x0100\n      dup1\n      dup4\n      sload\n      div\n      mul\n      dup4\n      mstore\n      swap2\n      0x20\n      add\n      swap2\n      jump(tag_92)\n    tag_93:\n      dup3\n      add\n      swap2\n      swap1\n      0x00\n      mstore\n      keccak256(0x00, 0x20)\n      swap1\n    tag_94:\n      dup2\n      sload\n      dup2\n      mstore\n      swap1\n      0x01\n      add\n      swap1\n      0x20\n      add\n      dup1\n      dup4\n      gt\n      tag_94\n      jumpi\n      dup3\n      swap1\n      sub\n      0x1f\n      and\n      dup3\n      add\n      swap2\n    tag_92:\n      pop\n      pop\n      pop\n      pop\n      pop\n      dup2\n      mstore\n      0x20\n      add\n      0x01\n      dup3\n      add\n      sload\n      dup2\n      mstore\n      0x20\n      add\n      0x02\n      dup3\n      add\n      dup1\n      sload\n      tag_95\n      swap1\n      tag_58\n      jump\t// in\n    tag_95:\n      dup1\n      0x1f\n      add\n      0x20\n      dup1\n      swap2\n      div\n      mul\n      0x20\n      add\n      mload(0x40)\n      swap1\n      dup2\n      add\n      0x40\n      mstore\n      dup1\n      swap3\n      swap2\n      swap1\n      dup2\n      dup2\n      mstore\n      0x20\n      add\n      dup3\n      dup1\n      sload\n      tag_96\n      swap1\n      tag_58\n      jump\t// in\n    tag_96:\n      dup1\n      iszero\n      tag_97\n      jumpi\n      dup1\n      0x1f\n      lt\n      tag_98\n      jumpi\n      0x0100\n      dup1\n      dup4\n      sload\n      div\n      mul\n      dup4\n      mstore\n      swap2\n      0x20\n      add\n      swap2\n      jump(tag_97)\n    tag_98:\n      dup3\n      add\n      swap2\n      swap1\n      0x00\n      mstore\n      keccak256(0x00, 0x20)\n      swap1\n    tag_99:\n      dup2\n      sload\n      dup2\n      mstore\n      swap1\n      0x01\n      add\n      swap1\n      0x20\n      add\n      dup1\n      dup4\n      gt\n      tag_99\n      jumpi\n      dup3\n      swap1\n      sub\n      0x1f\n      and\n      dup3\n      add\n      swap2\n    tag_97:\n      pop\n      pop\n      pop\n      pop\n      pop\n      dup2\n      mstore\n      0x20\n      add\n      0x03\n      dup3\n      add\n      dup1\n      sload\n      tag_100\n      swap1\n      tag_58\n      jump\t// in\n    tag_100:\n      dup1\n      0x1f\n      add\n      0x20\n      dup1\n      swap2\n      div\n      mul\n      0x20\n      add\n      mload(0x40)\n      swap1\n      dup2\n      add\n      0x40\n      mstore\n      dup1\n      swap3\n      swap2\n      swap1\n      dup2\n      dup2\n      mstore\n      0x20\n      add\n      dup3\n      dup1\n      sload\n      tag_101\n      swap1\n      tag_58\n      jump\t// in\n    tag_101:\n      dup1\n      iszero\n      tag_102\n      jumpi\n      dup1\n      0x1f\n      lt\n      tag_103\n      jumpi\n      0x0100\n      dup1\n      dup4\n      sload\n      div\n      mul\n      dup4\n      mstore\n      swap2\n      0x20\n      add\n      swap2\n      jump(tag_102)\n    tag_103:\n      dup3\n      add\n      swap2\n      swap1\n      0x00\n      mstore\n      keccak256(0x00, 0x20)\n      swap1\n    tag_104:\n      dup2\n      sload\n      dup2\n      mstore\n      swap1\n      0x01\n      add\n      swap1\n      0x20\n      add\n      dup1\n      dup4\n      gt\n      tag_104\n      jumpi\n      dup3\n      swap1\n      sub\n      0x1f\n      and\n      dup3\n      add\n      swap2\n    tag_102:\n      pop\n      pop\n      pop\n      pop\n      pop\n      dup2\n      mstore\n      0x20\n      add\n      0x04\n      dup3\n      add\n      dup1\n      sload\n      tag_105\n      swap1\n      tag_58\n      jump\t// in\n    tag_105:\n      dup1\n      0x1f\n      add\n      0x20\n      dup1\n      swap2\n      div\n      mul\n      0x20\n      add\n      mload(0x40)\n      swap1\n      dup2\n      add\n      0x40\n      mstore\n      dup1\n      swap3\n      swap2\n      swap1\n      dup2\n      dup2\n      mstore\n      0x20\n      add\n      dup3\n      dup1\n      sload\n      tag_106\n      swap1\n      tag_58\n      jump\t// in\n    tag_106:\n      dup1\n      iszero\n      tag_107\n      jumpi\n      dup1\n      0x1f\n      lt\n      tag_108\n      jumpi\n      0x0100\n      dup1\n      dup4\n      sload\n      div\n      mul\n      dup4\n      mstore\n      swap2\n      0x20\n      add\n      swap2\n      jump(tag_107)\n    tag_108:\n      dup3\n      add\n      swap2\n      swap1\n      0x00\n      mstore\n      keccak256(0x00, 0x20)\n      swap1\n    tag_109:\n      dup2\n      sload\n      dup2\n      mstore\n      swap1\n      0x01\n      add\n      swap1\n      0x20\n      add\n      dup1\n      dup4\n      gt\n      tag_109\n      jumpi\n      dup3\n      swap1\n      sub\n      0x1f\n      and\n      dup3\n      add\n      swap2\n    tag_107:\n      pop\n      pop\n      pop\n      pop\n      pop\n      dup2\n      mstore\n      0x20\n      add\n      0x05\n      dup3\n      add\n      dup1\n      sload\n      tag_110\n      swap1\n      tag_58\n      jump\t// in\n    tag_110:\n      dup1\n      0x1f\n      add\n      0x20\n      dup1\n      swap2\n      div\n      mul\n      0x20\n      add\n      mload(0x40)\n      swap1\n      dup2\n      add\n      0x40\n      mstore\n      dup1\n      swap3\n      swap2\n      swap1\n      dup2\n      dup2\n      mstore\n      0x20\n      add\n      dup3\n      dup1\n      sload\n      tag_111\n      swap1\n      tag_58\n      jump\t// in\n    tag_111:\n      dup1\n      iszero\n      tag_112\n      jumpi\n      dup1\n      0x1f\n      lt\n      tag_113\n      jumpi\n      0x0100\n      dup1\n      dup4\n      sload\n      div\n      mul\n      dup4\n      mstore\n      swap2\n      0x20\n      add\n      swap2\n      jump(tag_112)\n    tag_113:\n      dup3\n      add\n      swap2\n      swap1\n      0x00\n      mstore\n      keccak256(0x00, 0x20)\n      swap1\n    tag_114:\n      dup2\n      sload\n      dup2\n      mstore\n      swap1\n      0x01\n      add\n      swap1\n      0x20\n      add\n      dup1\n      dup4\n      gt\n      tag_114\n      jumpi\n      dup3\n      swap1\n      sub\n      0x1f\n      and\n      dup3\n      add\n      swap2\n    tag_112:\n      pop\n      pop\n      pop\n      pop\n      pop\n      dup2\n      mstore\n      0x20\n      add\n      0x06\n      dup3\n      add\n      0x00\n      swap1\n      sload\n      swap1\n      0x0100\n      exp\n      swap1\n      div\n      0xff\n      and\n      0x01\n      dup2\n      gt\n      iszero\n      tag_115\n      jumpi\n      tag_116\n      tag_28\n      jump\t// in\n    tag_116:\n    tag_115:\n      0x01\n      dup2\n      gt\n      iszero\n      tag_117\n      jumpi\n      tag_118\n      tag_28\n      jump\t// in\n    tag_118:\n    tag_117:\n      dup2\n      mstore\n      pop\n      pop\n      swap1\n      pop\n        /* \"contracts/HelloWorld.sol\":1256:1267  queriedUrun */\n      dup1\n        /* \"contracts/HelloWorld.sol\":1256:1277  queriedUrun.urun_ismi */\n      0x00\n      add\n      mload\n        /* \"contracts/HelloWorld.sol\":1285:1296  queriedUrun */\n      dup2\n        /* \"contracts/HelloWorld.sol\":1285:1306  queriedUrun.hashed_id */\n      0x20\n      add\n      mload\n        /* \"contracts/HelloWorld.sol\":1314:1325  queriedUrun */\n      dup3\n        /* \"contracts/HelloWorld.sol\":1314:1333  queriedUrun.uretici */\n      0x40\n      add\n      mload\n        /* \"contracts/HelloWorld.sol\":1341:1352  queriedUrun */\n      dup4\n        /* \"contracts/HelloWorld.sol\":1341:1362  queriedUrun.tedarikci */\n      0x60\n      add\n      mload\n        /* \"contracts/HelloWorld.sol\":1370:1381  queriedUrun */\n      dup5\n        /* \"contracts/HelloWorld.sol\":1370:1394  queriedUrun.onayNumarasi */\n      0x80\n      add\n      mload\n        /* \"contracts/HelloWorld.sol\":1402:1413  queriedUrun */\n      dup6\n        /* \"contracts/HelloWorld.sol\":1402:1433  queriedUrun.isletmeOnayNumarasi */\n      0xa0\n      add\n      mload\n        /* \"contracts/HelloWorld.sol\":1441:1452  queriedUrun */\n      dup7\n        /* \"contracts/HelloWorld.sol\":1441:1458  queriedUrun.durum */\n      0xc0\n      add\n      mload\n        /* \"contracts/HelloWorld.sol\":1241:1464  return (... */\n      swap9\n      pop\n      swap9\n      pop\n      swap9\n      pop\n      swap9\n      pop\n      swap9\n      pop\n      swap9\n      pop\n      swap9\n      pop\n      pop\n      pop\n        /* \"contracts/HelloWorld.sol\":827:1469  function urunSorgula(uint _hashedId) external view returns (... */\n      swap2\n      swap4\n      swap6\n      swap8\n      swap1\n      swap3\n      swap5\n      swap7\n      pop\n      jump\t// out\n        /* \"contracts/HelloWorld.sol\":2118:2361  function findUrunIndex(uint _hashedId) internal view returns (uint) {... */\n    tag_40:\n        /* \"contracts/HelloWorld.sol\":2180:2184  uint */\n      0x00\n        /* \"contracts/HelloWorld.sol\":2197:2203  uint i */\n      dup1\n        /* \"contracts/HelloWorld.sol\":2206:2207  0 */\n      0x00\n        /* \"contracts/HelloWorld.sol\":2197:2207  uint i = 0 */\n      swap1\n      pop\n        /* \"contracts/HelloWorld.sol\":2192:2314  for (uint i = 0; i < urunler.length; i++) {... */\n    tag_120:\n        /* \"contracts/HelloWorld.sol\":2213:2220  urunler */\n      0x00\n        /* \"contracts/HelloWorld.sol\":2213:2227  urunler.length */\n      dup1\n      sload\n      swap1\n      pop\n        /* \"contracts/HelloWorld.sol\":2209:2210  i */\n      dup2\n        /* \"contracts/HelloWorld.sol\":2209:2227  i < urunler.length */\n      lt\n        /* \"contracts/HelloWorld.sol\":2192:2314  for (uint i = 0; i < urunler.length; i++) {... */\n      iszero\n      tag_121\n      jumpi\n        /* \"contracts/HelloWorld.sol\":2270:2279  _hashedId */\n      dup3\n        /* \"contracts/HelloWorld.sol\":2246:2253  urunler */\n      0x00\n        /* \"contracts/HelloWorld.sol\":2254:2255  i */\n      dup3\n        /* \"contracts/HelloWorld.sol\":2246:2256  urunler[i] */\n      dup2\n      sload\n      dup2\n      lt\n      tag_123\n      jumpi\n      tag_124\n      tag_46\n      jump\t// in\n    tag_124:\n    tag_123:\n      swap1\n      0x00\n      mstore\n      keccak256(0x00, 0x20)\n      swap1\n      0x07\n      mul\n      add\n        /* \"contracts/HelloWorld.sol\":2246:2266  urunler[i].hashed_id */\n      0x01\n      add\n      sload\n        /* \"contracts/HelloWorld.sol\":2246:2279  urunler[i].hashed_id == _hashedId */\n      eq\n        /* \"contracts/HelloWorld.sol\":2242:2308  if (urunler[i].hashed_id == _hashedId) {... */\n      iszero\n      tag_126\n      jumpi\n        /* \"contracts/HelloWorld.sol\":2298:2299  i */\n      dup1\n        /* \"contracts/HelloWorld.sol\":2291:2299  return i */\n      swap2\n      pop\n      pop\n      jump(tag_119)\n        /* \"contracts/HelloWorld.sol\":2242:2308  if (urunler[i].hashed_id == _hashedId) {... */\n    tag_126:\n        /* \"contracts/HelloWorld.sol\":2229:2232  i++ */\n      dup1\n      dup1\n      tag_127\n      swap1\n      tag_128\n      jump\t// in\n    tag_127:\n      swap2\n      pop\n      pop\n        /* \"contracts/HelloWorld.sol\":2192:2314  for (uint i = 0; i < urunler.length; i++) {... */\n      jump(tag_120)\n    tag_121:\n      pop\n        /* \"contracts/HelloWorld.sol\":2326:2340  type(uint).max */\n      0xffffffffffffffffffffffffffffffffffffffffffffffffffffffffffffffff\n        /* \"contracts/HelloWorld.sol\":2319:2340  return type(uint).max */\n      swap1\n      pop\n        /* \"contracts/HelloWorld.sol\":2118:2361  function findUrunIndex(uint _hashedId) internal view returns (uint) {... */\n    tag_119:\n      swap2\n      swap1\n      pop\n      jump\t// out\n    tag_31:\n      dup3\n      dup1\n      sload\n      tag_129\n      swap1\n      tag_58\n      jump\t// in\n    tag_129:\n      swap1\n      0x00\n      mstore\n      keccak256(0x00, 0x20)\n      swap1\n      0x1f\n      add\n      0x20\n      swap1\n      div\n      dup2\n      add\n      swap3\n      dup3\n      tag_131\n      jumpi\n      0x00\n      dup6\n      sstore\n      jump(tag_130)\n    tag_131:\n      dup3\n      0x1f\n      lt\n      tag_132\n      jumpi\n      dup1\n      mload\n      not(0xff)\n      and\n      dup4\n      dup1\n      add\n      or\n      dup6\n      sstore\n      jump(tag_130)\n    tag_132:\n      dup3\n      dup1\n      add\n      0x01\n      add\n      dup6\n      sstore\n      dup3\n      iszero\n      tag_130\n      jumpi\n      swap2\n      dup3\n      add\n    tag_133:\n      dup3\n      dup2\n      gt\n      iszero\n      tag_134\n      jumpi\n      dup3\n      mload\n      dup3\n      sstore\n      swap2\n      0x20\n      add\n      swap2\n      swap1\n      0x01\n      add\n      swap1\n      jump(tag_133)\n    tag_134:\n    tag_130:\n      pop\n      swap1\n      pop\n      tag_135\n      swap2\n      swap1\n      tag_136\n      jump\t// in\n    tag_135:\n      pop\n      swap1\n      jump\t// out\n    tag_136:\n    tag_137:\n      dup1\n      dup3\n      gt\n      iszero\n      tag_138\n      jumpi\n      0x00\n      dup2\n      0x00\n      swap1\n      sstore\n      pop\n      0x01\n      add\n      jump(tag_137)\n    tag_138:\n      pop\n      swap1\n      jump\t// out\n        /* \"#utility.yul\":7:82   */\n    tag_139:\n        /* \"#utility.yul\":40:46   */\n      0x00\n        /* \"#utility.yul\":73:75   */\n      0x40\n        /* \"#utility.yul\":67:76   */\n      mload\n        /* \"#utility.yul\":57:76   */\n      swap1\n      pop\n        /* \"#utility.yul\":7:82   */\n      swap1\n      jump\t// out\n        /* \"#utility.yul\":88:205   */\n    tag_140:\n        /* \"#utility.yul\":197:198   */\n      0x00\n        /* \"#utility.yul\":194:195   */\n      dup1\n        /* \"#utility.yul\":187:199   */\n      revert\n        /* \"#utility.yul\":211:328   */\n    tag_141:\n        /* \"#utility.yul\":320:321   */\n      0x00\n        /* \"#utility.yul\":317:318   */\n      dup1\n        /* \"#utility.yul\":310:322   */\n      revert\n        /* \"#utility.yul\":334:451   */\n    tag_142:\n        /* \"#utility.yul\":443:444   */\n      0x00\n        /* \"#utility.yul\":440:441   */\n      dup1\n        /* \"#utility.yul\":433:445   */\n      revert\n        /* \"#utility.yul\":457:574   */\n    tag_143:\n        /* \"#utility.yul\":566:567   */\n      0x00\n        /* \"#utility.yul\":563:564   */\n      dup1\n        /* \"#utility.yul\":556:568   */\n      revert\n        /* \"#utility.yul\":580:682   */\n    tag_144:\n        /* \"#utility.yul\":621:627   */\n      0x00\n        /* \"#utility.yul\":672:674   */\n      0x1f\n        /* \"#utility.yul\":668:675   */\n      not\n        /* \"#utility.yul\":663:665   */\n      0x1f\n        /* \"#utility.yul\":656:661   */\n      dup4\n        /* \"#utility.yul\":652:666   */\n      add\n        /* \"#utility.yul\":648:676   */\n      and\n        /* \"#utility.yul\":638:676   */\n      swap1\n      pop\n        /* \"#utility.yul\":580:682   */\n      swap2\n      swap1\n      pop\n      jump\t// out\n        /* \"#utility.yul\":688:868   */\n    tag_145:\n        /* \"#utility.yul\":736:813   */\n      0x4e487b7100000000000000000000000000000000000000000000000000000000\n        /* \"#utility.yul\":733:734   */\n      0x00\n        /* \"#utility.yul\":726:814   */\n      mstore\n        /* \"#utility.yul\":833:837   */\n      0x41\n        /* \"#utility.yul\":830:831   */\n      0x04\n        /* \"#utility.yul\":823:838   */\n      mstore\n        /* \"#utility.yul\":857:861   */\n      0x24\n        /* \"#utility.yul\":854:855   */\n      0x00\n        /* \"#utility.yul\":847:862   */\n      revert\n        /* \"#utility.yul\":874:1155   */\n    tag_146:\n        /* \"#utility.yul\":957:984   */\n      tag_179\n        /* \"#utility.yul\":979:983   */\n      dup3\n        /* \"#utility.yul\":957:984   */\n      tag_144\n      jump\t// in\n    tag_179:\n        /* \"#utility.yul\":949:955   */\n      dup2\n        /* \"#utility.yul\":945:985   */\n      add\n        /* \"#utility.yul\":1087:1093   */\n      dup2\n        /* \"#utility.yul\":1075:1085   */\n      dup2\n        /* \"#utility.yul\":1072:1094   */\n      lt\n        /* \"#utility.yul\":1051:1069   */\n      0xffffffffffffffff\n        /* \"#utility.yul\":1039:1049   */\n      dup3\n        /* \"#utility.yul\":1036:1070   */\n      gt\n        /* \"#utility.yul\":1033:1095   */\n      or\n        /* \"#utility.yul\":1030:1118   */\n      iszero\n      tag_180\n      jumpi\n        /* \"#utility.yul\":1098:1116   */\n      tag_181\n      tag_145\n      jump\t// in\n    tag_181:\n        /* \"#utility.yul\":1030:1118   */\n    tag_180:\n        /* \"#utility.yul\":1138:1148   */\n      dup1\n        /* \"#utility.yul\":1134:1136   */\n      0x40\n        /* \"#utility.yul\":1127:1149   */\n      mstore\n        /* \"#utility.yul\":917:1155   */\n      pop\n        /* \"#utility.yul\":874:1155   */\n      pop\n      pop\n      jump\t// out\n        /* \"#utility.yul\":1161:1290   */\n    tag_147:\n        /* \"#utility.yul\":1195:1201   */\n      0x00\n        /* \"#utility.yul\":1222:1242   */\n      tag_183\n      tag_139\n      jump\t// in\n    tag_183:\n        /* \"#utility.yul\":1212:1242   */\n      swap1\n      pop\n        /* \"#utility.yul\":1251:1284   */\n      tag_184\n        /* \"#utility.yul\":1279:1283   */\n      dup3\n        /* \"#utility.yul\":1271:1277   */\n      dup3\n        /* \"#utility.yul\":1251:1284   */\n      tag_146\n      jump\t// in\n    tag_184:\n        /* \"#utility.yul\":1161:1290   */\n      swap2\n      swap1\n      pop\n      jump\t// out\n        /* \"#utility.yul\":1296:1604   */\n    tag_148:\n        /* \"#utility.yul\":1358:1362   */\n      0x00\n        /* \"#utility.yul\":1448:1466   */\n      0xffffffffffffffff\n        /* \"#utility.yul\":1440:1446   */\n      dup3\n        /* \"#utility.yul\":1437:1467   */\n      gt\n        /* \"#utility.yul\":1434:1490   */\n      iszero\n      tag_186\n      jumpi\n        /* \"#utility.yul\":1470:1488   */\n      tag_187\n      tag_145\n      jump\t// in\n    tag_187:\n        /* \"#utility.yul\":1434:1490   */\n    tag_186:\n        /* \"#utility.yul\":1508:1537   */\n      tag_188\n        /* \"#utility.yul\":1530:1536   */\n      dup3\n        /* \"#utility.yul\":1508:1537   */\n      tag_144\n      jump\t// in\n    tag_188:\n        /* \"#utility.yul\":1500:1537   */\n      swap1\n      pop\n        /* \"#utility.yul\":1592:1596   */\n      0x20\n        /* \"#utility.yul\":1586:1590   */\n      dup2\n        /* \"#utility.yul\":1582:1597   */\n      add\n        /* \"#utility.yul\":1574:1597   */\n      swap1\n      pop\n        /* \"#utility.yul\":1296:1604   */\n      swap2\n      swap1\n      pop\n      jump\t// out\n        /* \"#utility.yul\":1610:1764   */\n    tag_149:\n        /* \"#utility.yul\":1694:1700   */\n      dup3\n        /* \"#utility.yul\":1689:1692   */\n      dup2\n        /* \"#utility.yul\":1684:1687   */\n      dup4\n        /* \"#utility.yul\":1671:1701   */\n      calldatacopy\n        /* \"#utility.yul\":1756:1757   */\n      0x00\n        /* \"#utility.yul\":1747:1753   */\n      dup4\n        /* \"#utility.yul\":1742:1745   */\n      dup4\n        /* \"#utility.yul\":1738:1754   */\n      add\n        /* \"#utility.yul\":1731:1758   */\n      mstore\n        /* \"#utility.yul\":1610:1764   */\n      pop\n      pop\n      pop\n      jump\t// out\n        /* \"#utility.yul\":1770:2182   */\n    tag_150:\n        /* \"#utility.yul\":1848:1853   */\n      0x00\n        /* \"#utility.yul\":1873:1939   */\n      tag_191\n        /* \"#utility.yul\":1889:1938   */\n      tag_192\n        /* \"#utility.yul\":1931:1937   */\n      dup5\n        /* \"#utility.yul\":1889:1938   */\n      tag_148\n      jump\t// in\n    tag_192:\n        /* \"#utility.yul\":1873:1939   */\n      tag_147\n      jump\t// in\n    tag_191:\n        /* \"#utility.yul\":1864:1939   */\n      swap1\n      pop\n        /* \"#utility.yul\":1962:1968   */\n      dup3\n        /* \"#utility.yul\":1955:1960   */\n      dup2\n        /* \"#utility.yul\":1948:1969   */\n      mstore\n        /* \"#utility.yul\":2000:2004   */\n      0x20\n        /* \"#utility.yul\":1993:1998   */\n      dup2\n        /* \"#utility.yul\":1989:2005   */\n      add\n        /* \"#utility.yul\":2038:2041   */\n      dup5\n        /* \"#utility.yul\":2029:2035   */\n      dup5\n        /* \"#utility.yul\":2024:2027   */\n      dup5\n        /* \"#utility.yul\":2020:2036   */\n      add\n        /* \"#utility.yul\":2017:2042   */\n      gt\n        /* \"#utility.yul\":2014:2126   */\n      iszero\n      tag_193\n      jumpi\n        /* \"#utility.yul\":2045:2124   */\n      tag_194\n      tag_143\n      jump\t// in\n    tag_194:\n        /* \"#utility.yul\":2014:2126   */\n    tag_193:\n        /* \"#utility.yul\":2135:2176   */\n      tag_195\n        /* \"#utility.yul\":2169:2175   */\n      dup5\n        /* \"#utility.yul\":2164:2167   */\n      dup3\n        /* \"#utility.yul\":2159:2162   */\n      dup6\n        /* \"#utility.yul\":2135:2176   */\n      tag_149\n      jump\t// in\n    tag_195:\n        /* \"#utility.yul\":1854:2182   */\n      pop\n        /* \"#utility.yul\":1770:2182   */\n      swap4\n      swap3\n      pop\n      pop\n      pop\n      jump\t// out\n        /* \"#utility.yul\":2202:2542   */\n    tag_151:\n        /* \"#utility.yul\":2258:2263   */\n      0x00\n        /* \"#utility.yul\":2307:2310   */\n      dup3\n        /* \"#utility.yul\":2300:2304   */\n      0x1f\n        /* \"#utility.yul\":2292:2298   */\n      dup4\n        /* \"#utility.yul\":2288:2305   */\n      add\n        /* \"#utility.yul\":2284:2311   */\n      slt\n        /* \"#utility.yul\":2274:2396   */\n      tag_197\n      jumpi\n        /* \"#utility.yul\":2315:2394   */\n      tag_198\n      tag_142\n      jump\t// in\n    tag_198:\n        /* \"#utility.yul\":2274:2396   */\n    tag_197:\n        /* \"#utility.yul\":2432:2438   */\n      dup2\n        /* \"#utility.yul\":2419:2439   */\n      calldataload\n        /* \"#utility.yul\":2457:2536   */\n      tag_199\n        /* \"#utility.yul\":2532:2535   */\n      dup5\n        /* \"#utility.yul\":2524:2530   */\n      dup3\n        /* \"#utility.yul\":2517:2521   */\n      0x20\n        /* \"#utility.yul\":2509:2515   */\n      dup7\n        /* \"#utility.yul\":2505:2522   */\n      add\n        /* \"#utility.yul\":2457:2536   */\n      tag_150\n      jump\t// in\n    tag_199:\n        /* \"#utility.yul\":2448:2536   */\n      swap2\n      pop\n        /* \"#utility.yul\":2264:2542   */\n      pop\n        /* \"#utility.yul\":2202:2542   */\n      swap3\n      swap2\n      pop\n      pop\n      jump\t// out\n        /* \"#utility.yul\":2548:2625   */\n    tag_152:\n        /* \"#utility.yul\":2585:2592   */\n      0x00\n        /* \"#utility.yul\":2614:2619   */\n      dup2\n        /* \"#utility.yul\":2603:2619   */\n      swap1\n      pop\n        /* \"#utility.yul\":2548:2625   */\n      swap2\n      swap1\n      pop\n      jump\t// out\n        /* \"#utility.yul\":2631:2753   */\n    tag_153:\n        /* \"#utility.yul\":2704:2728   */\n      tag_202\n        /* \"#utility.yul\":2722:2727   */\n      dup2\n        /* \"#utility.yul\":2704:2728   */\n      tag_152\n      jump\t// in\n    tag_202:\n        /* \"#utility.yul\":2697:2702   */\n      dup2\n        /* \"#utility.yul\":2694:2729   */\n      eq\n        /* \"#utility.yul\":2684:2747   */\n      tag_203\n      jumpi\n        /* \"#utility.yul\":2743:2744   */\n      0x00\n        /* \"#utility.yul\":2740:2741   */\n      dup1\n        /* \"#utility.yul\":2733:2745   */\n      revert\n        /* \"#utility.yul\":2684:2747   */\n    tag_203:\n        /* \"#utility.yul\":2631:2753   */\n      pop\n      jump\t// out\n        /* \"#utility.yul\":2759:2898   */\n    tag_154:\n        /* \"#utility.yul\":2805:2810   */\n      0x00\n        /* \"#utility.yul\":2843:2849   */\n      dup2\n        /* \"#utility.yul\":2830:2850   */\n      calldataload\n        /* \"#utility.yul\":2821:2850   */\n      swap1\n      pop\n        /* \"#utility.yul\":2859:2892   */\n      tag_205\n        /* \"#utility.yul\":2886:2891   */\n      dup2\n        /* \"#utility.yul\":2859:2892   */\n      tag_153\n      jump\t// in\n    tag_205:\n        /* \"#utility.yul\":2759:2898   */\n      swap3\n      swap2\n      pop\n      pop\n      jump\t// out\n        /* \"#utility.yul\":2904:3010   */\n    tag_155:\n        /* \"#utility.yul\":2984:2985   */\n      0x02\n        /* \"#utility.yul\":2977:2982   */\n      dup2\n        /* \"#utility.yul\":2974:2986   */\n      lt\n        /* \"#utility.yul\":2964:3004   */\n      tag_207\n      jumpi\n        /* \"#utility.yul\":3000:3001   */\n      0x00\n        /* \"#utility.yul\":2997:2998   */\n      dup1\n        /* \"#utility.yul\":2990:3002   */\n      revert\n        /* \"#utility.yul\":2964:3004   */\n    tag_207:\n        /* \"#utility.yul\":2904:3010   */\n      pop\n      jump\t// out\n        /* \"#utility.yul\":3016:3169   */\n    tag_156:\n        /* \"#utility.yul\":3069:3074   */\n      0x00\n        /* \"#utility.yul\":3107:3113   */\n      dup2\n        /* \"#utility.yul\":3094:3114   */\n      calldataload\n        /* \"#utility.yul\":3085:3114   */\n      swap1\n      pop\n        /* \"#utility.yul\":3123:3163   */\n      tag_209\n        /* \"#utility.yul\":3157:3162   */\n      dup2\n        /* \"#utility.yul\":3123:3163   */\n      tag_155\n      jump\t// in\n    tag_209:\n        /* \"#utility.yul\":3016:3169   */\n      swap3\n      swap2\n      pop\n      pop\n      jump\t// out\n        /* \"#utility.yul\":3175:5292   */\n    tag_9:\n        /* \"#utility.yul\":3345:3351   */\n      0x00\n        /* \"#utility.yul\":3353:3359   */\n      dup1\n        /* \"#utility.yul\":3361:3367   */\n      0x00\n        /* \"#utility.yul\":3369:3375   */\n      dup1\n        /* \"#utility.yul\":3377:3383   */\n      0x00\n        /* \"#utility.yul\":3385:3391   */\n      dup1\n        /* \"#utility.yul\":3393:3399   */\n      0x00\n        /* \"#utility.yul\":3442:3445   */\n      0xe0\n        /* \"#utility.yul\":3430:3439   */\n      dup9\n        /* \"#utility.yul\":3421:3428   */\n      dup11\n        /* \"#utility.yul\":3417:3440   */\n      sub\n        /* \"#utility.yul\":3413:3446   */\n      slt\n        /* \"#utility.yul\":3410:3530   */\n      iszero\n      tag_211\n      jumpi\n        /* \"#utility.yul\":3449:3528   */\n      tag_212\n      tag_140\n      jump\t// in\n    tag_212:\n        /* \"#utility.yul\":3410:3530   */\n    tag_211:\n        /* \"#utility.yul\":3597:3598   */\n      0x00\n        /* \"#utility.yul\":3586:3595   */\n      dup9\n        /* \"#utility.yul\":3582:3599   */\n      add\n        /* \"#utility.yul\":3569:3600   */\n      calldataload\n        /* \"#utility.yul\":3627:3645   */\n      0xffffffffffffffff\n        /* \"#utility.yul\":3619:3625   */\n      dup2\n        /* \"#utility.yul\":3616:3646   */\n      gt\n        /* \"#utility.yul\":3613:3730   */\n      iszero\n      tag_213\n      jumpi\n        /* \"#utility.yul\":3649:3728   */\n      tag_214\n      tag_141\n      jump\t// in\n    tag_214:\n        /* \"#utility.yul\":3613:3730   */\n    tag_213:\n        /* \"#utility.yul\":3754:3817   */\n      tag_215\n        /* \"#utility.yul\":3809:3816   */\n      dup11\n        /* \"#utility.yul\":3800:3806   */\n      dup3\n        /* \"#utility.yul\":3789:3798   */\n      dup12\n        /* \"#utility.yul\":3785:3807   */\n      add\n        /* \"#utility.yul\":3754:3817   */\n      tag_151\n      jump\t// in\n    tag_215:\n        /* \"#utility.yul\":3744:3817   */\n      swap8\n      pop\n        /* \"#utility.yul\":3540:3827   */\n      pop\n        /* \"#utility.yul\":3866:3868   */\n      0x20\n        /* \"#utility.yul\":3892:3945   */\n      tag_216\n        /* \"#utility.yul\":3937:3944   */\n      dup11\n        /* \"#utility.yul\":3928:3934   */\n      dup3\n        /* \"#utility.yul\":3917:3926   */\n      dup12\n        /* \"#utility.yul\":3913:3935   */\n      add\n        /* \"#utility.yul\":3892:3945   */\n      tag_154\n      jump\t// in\n    tag_216:\n        /* \"#utility.yul\":3882:3945   */\n      swap7\n      pop\n        /* \"#utility.yul\":3837:3955   */\n      pop\n        /* \"#utility.yul\":4022:4024   */\n      0x40\n        /* \"#utility.yul\":4011:4020   */\n      dup9\n        /* \"#utility.yul\":4007:4025   */\n      add\n        /* \"#utility.yul\":3994:4026   */\n      calldataload\n        /* \"#utility.yul\":4053:4071   */\n      0xffffffffffffffff\n        /* \"#utility.yul\":4045:4051   */\n      dup2\n        /* \"#utility.yul\":4042:4072   */\n      gt\n        /* \"#utility.yul\":4039:4156   */\n      iszero\n      tag_217\n      jumpi\n        /* \"#utility.yul\":4075:4154   */\n      tag_218\n      tag_141\n      jump\t// in\n    tag_218:\n        /* \"#utility.yul\":4039:4156   */\n    tag_217:\n        /* \"#utility.yul\":4180:4243   */\n      tag_219\n        /* \"#utility.yul\":4235:4242   */\n      dup11\n        /* \"#utility.yul\":4226:4232   */\n      dup3\n        /* \"#utility.yul\":4215:4224   */\n      dup12\n        /* \"#utility.yul\":4211:4233   */\n      add\n        /* \"#utility.yul\":4180:4243   */\n      tag_151\n      jump\t// in\n    tag_219:\n        /* \"#utility.yul\":4170:4243   */\n      swap6\n      pop\n        /* \"#utility.yul\":3965:4253   */\n      pop\n        /* \"#utility.yul\":4320:4322   */\n      0x60\n        /* \"#utility.yul\":4309:4318   */\n      dup9\n        /* \"#utility.yul\":4305:4323   */\n      add\n        /* \"#utility.yul\":4292:4324   */\n      calldataload\n        /* \"#utility.yul\":4351:4369   */\n      0xffffffffffffffff\n        /* \"#utility.yul\":4343:4349   */\n      dup2\n        /* \"#utility.yul\":4340:4370   */\n      gt\n        /* \"#utility.yul\":4337:4454   */\n      iszero\n      tag_220\n      jumpi\n        /* \"#utility.yul\":4373:4452   */\n      tag_221\n      tag_141\n      jump\t// in\n    tag_221:\n        /* \"#utility.yul\":4337:4454   */\n    tag_220:\n        /* \"#utility.yul\":4478:4541   */\n      tag_222\n        /* \"#utility.yul\":4533:4540   */\n      dup11\n        /* \"#utility.yul\":4524:4530   */\n      dup3\n        /* \"#utility.yul\":4513:4522   */\n      dup12\n        /* \"#utility.yul\":4509:4531   */\n      add\n        /* \"#utility.yul\":4478:4541   */\n      tag_151\n      jump\t// in\n    tag_222:\n        /* \"#utility.yul\":4468:4541   */\n      swap5\n      pop\n        /* \"#utility.yul\":4263:4551   */\n      pop\n        /* \"#utility.yul\":4618:4621   */\n      0x80\n        /* \"#utility.yul\":4607:4616   */\n      dup9\n        /* \"#utility.yul\":4603:4622   */\n      add\n        /* \"#utility.yul\":4590:4623   */\n      calldataload\n        /* \"#utility.yul\":4650:4668   */\n      0xffffffffffffffff\n        /* \"#utility.yul\":4642:4648   */\n      dup2\n        /* \"#utility.yul\":4639:4669   */\n      gt\n        /* \"#utility.yul\":4636:4753   */\n      iszero\n      tag_223\n      jumpi\n        /* \"#utility.yul\":4672:4751   */\n      tag_224\n      tag_141\n      jump\t// in\n    tag_224:\n        /* \"#utility.yul\":4636:4753   */\n    tag_223:\n        /* \"#utility.yul\":4777:4840   */\n      tag_225\n        /* \"#utility.yul\":4832:4839   */\n      dup11\n        /* \"#utility.yul\":4823:4829   */\n      dup3\n        /* \"#utility.yul\":4812:4821   */\n      dup12\n        /* \"#utility.yul\":4808:4830   */\n      add\n        /* \"#utility.yul\":4777:4840   */\n      tag_151\n      jump\t// in\n    tag_225:\n        /* \"#utility.yul\":4767:4840   */\n      swap4\n      pop\n        /* \"#utility.yul\":4561:4850   */\n      pop\n        /* \"#utility.yul\":4917:4920   */\n      0xa0\n        /* \"#utility.yul\":4906:4915   */\n      dup9\n        /* \"#utility.yul\":4902:4921   */\n      add\n        /* \"#utility.yul\":4889:4922   */\n      calldataload\n        /* \"#utility.yul\":4949:4967   */\n      0xffffffffffffffff\n        /* \"#utility.yul\":4941:4947   */\n      dup2\n        /* \"#utility.yul\":4938:4968   */\n      gt\n        /* \"#utility.yul\":4935:5052   */\n      iszero\n      tag_226\n      jumpi\n        /* \"#utility.yul\":4971:5050   */\n      tag_227\n      tag_141\n      jump\t// in\n    tag_227:\n        /* \"#utility.yul\":4935:5052   */\n    tag_226:\n        /* \"#utility.yul\":5076:5139   */\n      tag_228\n        /* \"#utility.yul\":5131:5138   */\n      dup11\n        /* \"#utility.yul\":5122:5128   */\n      dup3\n        /* \"#utility.yul\":5111:5120   */\n      dup12\n        /* \"#utility.yul\":5107:5129   */\n      add\n        /* \"#utility.yul\":5076:5139   */\n      tag_151\n      jump\t// in\n    tag_228:\n        /* \"#utility.yul\":5066:5139   */\n      swap3\n      pop\n        /* \"#utility.yul\":4860:5149   */\n      pop\n        /* \"#utility.yul\":5188:5191   */\n      0xc0\n        /* \"#utility.yul\":5215:5275   */\n      tag_229\n        /* \"#utility.yul\":5267:5274   */\n      dup11\n        /* \"#utility.yul\":5258:5264   */\n      dup3\n        /* \"#utility.yul\":5247:5256   */\n      dup12\n        /* \"#utility.yul\":5243:5265   */\n      add\n        /* \"#utility.yul\":5215:5275   */\n      tag_156\n      jump\t// in\n    tag_229:\n        /* \"#utility.yul\":5205:5275   */\n      swap2\n      pop\n        /* \"#utility.yul\":5159:5285   */\n      pop\n        /* \"#utility.yul\":3175:5292   */\n      swap3\n      swap6\n      swap9\n      swap2\n      swap5\n      swap8\n      pop\n      swap3\n      swap6\n      pop\n      jump\t// out\n        /* \"#utility.yul\":5298:7415   */\n    tag_13:\n        /* \"#utility.yul\":5468:5474   */\n      0x00\n        /* \"#utility.yul\":5476:5482   */\n      dup1\n        /* \"#utility.yul\":5484:5490   */\n      0x00\n        /* \"#utility.yul\":5492:5498   */\n      dup1\n        /* \"#utility.yul\":5500:5506   */\n      0x00\n        /* \"#utility.yul\":5508:5514   */\n      dup1\n        /* \"#utility.yul\":5516:5522   */\n      0x00\n        /* \"#utility.yul\":5565:5568   */\n      0xe0\n        /* \"#utility.yul\":5553:5562   */\n      dup9\n        /* \"#utility.yul\":5544:5551   */\n      dup11\n        /* \"#utility.yul\":5540:5563   */\n      sub\n        /* \"#utility.yul\":5536:5569   */\n      slt\n        /* \"#utility.yul\":5533:5653   */\n      iszero\n      tag_231\n      jumpi\n        /* \"#utility.yul\":5572:5651   */\n      tag_232\n      tag_140\n      jump\t// in\n    tag_232:\n        /* \"#utility.yul\":5533:5653   */\n    tag_231:\n        /* \"#utility.yul\":5692:5693   */\n      0x00\n        /* \"#utility.yul\":5717:5770   */\n      tag_233\n        /* \"#utility.yul\":5762:5769   */\n      dup11\n        /* \"#utility.yul\":5753:5759   */\n      dup3\n        /* \"#utility.yul\":5742:5751   */\n      dup12\n        /* \"#utility.yul\":5738:5760   */\n      add\n        /* \"#utility.yul\":5717:5770   */\n      tag_154\n      jump\t// in\n    tag_233:\n        /* \"#utility.yul\":5707:5770   */\n      swap8\n      pop\n        /* \"#utility.yul\":5663:5780   */\n      pop\n        /* \"#utility.yul\":5847:5849   */\n      0x20\n        /* \"#utility.yul\":5836:5845   */\n      dup9\n        /* \"#utility.yul\":5832:5850   */\n      add\n        /* \"#utility.yul\":5819:5851   */\n      calldataload\n        /* \"#utility.yul\":5878:5896   */\n      0xffffffffffffffff\n        /* \"#utility.yul\":5870:5876   */\n      dup2\n        /* \"#utility.yul\":5867:5897   */\n      gt\n        /* \"#utility.yul\":5864:5981   */\n      iszero\n      tag_234\n      jumpi\n        /* \"#utility.yul\":5900:5979   */\n      tag_235\n      tag_141\n      jump\t// in\n    tag_235:\n        /* \"#utility.yul\":5864:5981   */\n    tag_234:\n        /* \"#utility.yul\":6005:6068   */\n      tag_236\n        /* \"#utility.yul\":6060:6067   */\n      dup11\n        /* \"#utility.yul\":6051:6057   */\n      dup3\n        /* \"#utility.yul\":6040:6049   */\n      dup12\n        /* \"#utility.yul\":6036:6058   */\n      add\n        /* \"#utility.yul\":6005:6068   */\n      tag_151\n      jump\t// in\n    tag_236:\n        /* \"#utility.yul\":5995:6068   */\n      swap7\n      pop\n        /* \"#utility.yul\":5790:6078   */\n      pop\n        /* \"#utility.yul\":6145:6147   */\n      0x40\n        /* \"#utility.yul\":6134:6143   */\n      dup9\n        /* \"#utility.yul\":6130:6148   */\n      add\n        /* \"#utility.yul\":6117:6149   */\n      calldataload\n        /* \"#utility.yul\":6176:6194   */\n      0xffffffffffffffff\n        /* \"#utility.yul\":6168:6174   */\n      dup2\n        /* \"#utility.yul\":6165:6195   */\n      gt\n        /* \"#utility.yul\":6162:6279   */\n      iszero\n      tag_237\n      jumpi\n        /* \"#utility.yul\":6198:6277   */\n      tag_238\n      tag_141\n      jump\t// in\n    tag_238:\n        /* \"#utility.yul\":6162:6279   */\n    tag_237:\n        /* \"#utility.yul\":6303:6366   */\n      tag_239\n        /* \"#utility.yul\":6358:6365   */\n      dup11\n        /* \"#utility.yul\":6349:6355   */\n      dup3\n        /* \"#utility.yul\":6338:6347   */\n      dup12\n        /* \"#utility.yul\":6334:6356   */\n      add\n        /* \"#utility.yul\":6303:6366   */\n      tag_151\n      jump\t// in\n    tag_239:\n        /* \"#utility.yul\":6293:6366   */\n      swap6\n      pop\n        /* \"#utility.yul\":6088:6376   */\n      pop\n        /* \"#utility.yul\":6443:6445   */\n      0x60\n        /* \"#utility.yul\":6432:6441   */\n      dup9\n        /* \"#utility.yul\":6428:6446   */\n      add\n        /* \"#utility.yul\":6415:6447   */\n      calldataload\n        /* \"#utility.yul\":6474:6492   */\n      0xffffffffffffffff\n        /* \"#utility.yul\":6466:6472   */\n      dup2\n        /* \"#utility.yul\":6463:6493   */\n      gt\n        /* \"#utility.yul\":6460:6577   */\n      iszero\n      tag_240\n      jumpi\n        /* \"#utility.yul\":6496:6575   */\n      tag_241\n      tag_141\n      jump\t// in\n    tag_241:\n        /* \"#utility.yul\":6460:6577   */\n    tag_240:\n        /* \"#utility.yul\":6601:6664   */\n      tag_242\n        /* \"#utility.yul\":6656:6663   */\n      dup11\n        /* \"#utility.yul\":6647:6653   */\n      dup3\n        /* \"#utility.yul\":6636:6645   */\n      dup12\n        /* \"#utility.yul\":6632:6654   */\n      add\n        /* \"#utility.yul\":6601:6664   */\n      tag_151\n      jump\t// in\n    tag_242:\n        /* \"#utility.yul\":6591:6664   */\n      swap5\n      pop\n        /* \"#utility.yul\":6386:6674   */\n      pop\n        /* \"#utility.yul\":6741:6744   */\n      0x80\n        /* \"#utility.yul\":6730:6739   */\n      dup9\n        /* \"#utility.yul\":6726:6745   */\n      add\n        /* \"#utility.yul\":6713:6746   */\n      calldataload\n        /* \"#utility.yul\":6773:6791   */\n      0xffffffffffffffff\n        /* \"#utility.yul\":6765:6771   */\n      dup2\n        /* \"#utility.yul\":6762:6792   */\n      gt\n        /* \"#utility.yul\":6759:6876   */\n      iszero\n      tag_243\n      jumpi\n        /* \"#utility.yul\":6795:6874   */\n      tag_244\n      tag_141\n      jump\t// in\n    tag_244:\n        /* \"#utility.yul\":6759:6876   */\n    tag_243:\n        /* \"#utility.yul\":6900:6963   */\n      tag_245\n        /* \"#utility.yul\":6955:6962   */\n      dup11\n        /* \"#utility.yul\":6946:6952   */\n      dup3\n        /* \"#utility.yul\":6935:6944   */\n      dup12\n        /* \"#utility.yul\":6931:6953   */\n      add\n        /* \"#utility.yul\":6900:6963   */\n      tag_151\n      jump\t// in\n    tag_245:\n        /* \"#utility.yul\":6890:6963   */\n      swap4\n      pop\n        /* \"#utility.yul\":6684:6973   */\n      pop\n        /* \"#utility.yul\":7040:7043   */\n      0xa0\n        /* \"#utility.yul\":7029:7038   */\n      dup9\n        /* \"#utility.yul\":7025:7044   */\n      add\n        /* \"#utility.yul\":7012:7045   */\n      calldataload\n        /* \"#utility.yul\":7072:7090   */\n      0xffffffffffffffff\n        /* \"#utility.yul\":7064:7070   */\n      dup2\n        /* \"#utility.yul\":7061:7091   */\n      gt\n        /* \"#utility.yul\":7058:7175   */\n      iszero\n      tag_246\n      jumpi\n        /* \"#utility.yul\":7094:7173   */\n      tag_247\n      tag_141\n      jump\t// in\n    tag_247:\n        /* \"#utility.yul\":7058:7175   */\n    tag_246:\n        /* \"#utility.yul\":7199:7262   */\n      tag_248\n        /* \"#utility.yul\":7254:7261   */\n      dup11\n        /* \"#utility.yul\":7245:7251   */\n      dup3\n        /* \"#utility.yul\":7234:7243   */\n      dup12\n        /* \"#utility.yul\":7230:7252   */\n      add\n        /* \"#utility.yul\":7199:7262   */\n      tag_151\n      jump\t// in\n    tag_248:\n        /* \"#utility.yul\":7189:7262   */\n      swap3\n      pop\n        /* \"#utility.yul\":6983:7272   */\n      pop\n        /* \"#utility.yul\":7311:7314   */\n      0xc0\n        /* \"#utility.yul\":7338:7398   */\n      tag_249\n        /* \"#utility.yul\":7390:7397   */\n      dup11\n        /* \"#utility.yul\":7381:7387   */\n      dup3\n        /* \"#utility.yul\":7370:7379   */\n      dup12\n        /* \"#utility.yul\":7366:7388   */\n      add\n        /* \"#utility.yul\":7338:7398   */\n      tag_156\n      jump\t// in\n    tag_249:\n        /* \"#utility.yul\":7328:7398   */\n      swap2\n      pop\n        /* \"#utility.yul\":7282:7408   */\n      pop\n        /* \"#utility.yul\":5298:7415   */\n      swap3\n      swap6\n      swap9\n      swap2\n      swap5\n      swap8\n      pop\n      swap3\n      swap6\n      pop\n      jump\t// out\n        /* \"#utility.yul\":7421:7750   */\n    tag_17:\n        /* \"#utility.yul\":7480:7486   */\n      0x00\n        /* \"#utility.yul\":7529:7531   */\n      0x20\n        /* \"#utility.yul\":7517:7526   */\n      dup3\n        /* \"#utility.yul\":7508:7515   */\n      dup5\n        /* \"#utility.yul\":7504:7527   */\n      sub\n        /* \"#utility.yul\":7500:7532   */\n      slt\n        /* \"#utility.yul\":7497:7616   */\n      iszero\n      tag_251\n      jumpi\n        /* \"#utility.yul\":7535:7614   */\n      tag_252\n      tag_140\n      jump\t// in\n    tag_252:\n        /* \"#utility.yul\":7497:7616   */\n    tag_251:\n        /* \"#utility.yul\":7655:7656   */\n      0x00\n        /* \"#utility.yul\":7680:7733   */\n      tag_253\n        /* \"#utility.yul\":7725:7732   */\n      dup5\n        /* \"#utility.yul\":7716:7722   */\n      dup3\n        /* \"#utility.yul\":7705:7714   */\n      dup6\n        /* \"#utility.yul\":7701:7723   */\n      add\n        /* \"#utility.yul\":7680:7733   */\n      tag_154\n      jump\t// in\n    tag_253:\n        /* \"#utility.yul\":7670:7733   */\n      swap2\n      pop\n        /* \"#utility.yul\":7626:7743   */\n      pop\n        /* \"#utility.yul\":7421:7750   */\n      swap3\n      swap2\n      pop\n      pop\n      jump\t// out\n        /* \"#utility.yul\":7756:7855   */\n    tag_157:\n        /* \"#utility.yul\":7808:7814   */\n      0x00\n        /* \"#utility.yul\":7842:7847   */\n      dup2\n        /* \"#utility.yul\":7836:7848   */\n      mload\n        /* \"#utility.yul\":7826:7848   */\n      swap1\n      pop\n        /* \"#utility.yul\":7756:7855   */\n      swap2\n      swap1\n      pop\n      jump\t// out\n        /* \"#utility.yul\":7861:8030   */\n    tag_158:\n        /* \"#utility.yul\":7945:7956   */\n      0x00\n        /* \"#utility.yul\":7979:7985   */\n      dup3\n        /* \"#utility.yul\":7974:7977   */\n      dup3\n        /* \"#utility.yul\":7967:7986   */\n      mstore\n        /* \"#utility.yul\":8019:8023   */\n      0x20\n        /* \"#utility.yul\":8014:8017   */\n      dup3\n        /* \"#utility.yul\":8010:8024   */\n      add\n        /* \"#utility.yul\":7995:8024   */\n      swap1\n      pop\n        /* \"#utility.yul\":7861:8030   */\n      swap3\n      swap2\n      pop\n      pop\n      jump\t// out\n        /* \"#utility.yul\":8036:8343   */\n    tag_159:\n        /* \"#utility.yul\":8104:8105   */\n      0x00\n        /* \"#utility.yul\":8114:8227   */\n    tag_257:\n        /* \"#utility.yul\":8128:8134   */\n      dup4\n        /* \"#utility.yul\":8125:8126   */\n      dup2\n        /* \"#utility.yul\":8122:8135   */\n      lt\n        /* \"#utility.yul\":8114:8227   */\n      iszero\n      tag_259\n      jumpi\n        /* \"#utility.yul\":8213:8214   */\n      dup1\n        /* \"#utility.yul\":8208:8211   */\n      dup3\n        /* \"#utility.yul\":8204:8215   */\n      add\n        /* \"#utility.yul\":8198:8216   */\n      mload\n        /* \"#utility.yul\":8194:8195   */\n      dup2\n        /* \"#utility.yul\":8189:8192   */\n      dup5\n        /* \"#utility.yul\":8185:8196   */\n      add\n        /* \"#utility.yul\":8178:8217   */\n      mstore\n        /* \"#utility.yul\":8150:8152   */\n      0x20\n        /* \"#utility.yul\":8147:8148   */\n      dup2\n        /* \"#utility.yul\":8143:8153   */\n      add\n        /* \"#utility.yul\":8138:8153   */\n      swap1\n      pop\n        /* \"#utility.yul\":8114:8227   */\n      jump(tag_257)\n    tag_259:\n        /* \"#utility.yul\":8245:8251   */\n      dup4\n        /* \"#utility.yul\":8242:8243   */\n      dup2\n        /* \"#utility.yul\":8239:8252   */\n      gt\n        /* \"#utility.yul\":8236:8337   */\n      iszero\n      tag_260\n      jumpi\n        /* \"#utility.yul\":8325:8326   */\n      0x00\n        /* \"#utility.yul\":8316:8322   */\n      dup5\n        /* \"#utility.yul\":8311:8314   */\n      dup5\n        /* \"#utility.yul\":8307:8323   */\n      add\n        /* \"#utility.yul\":8300:8327   */\n      mstore\n        /* \"#utility.yul\":8236:8337   */\n    tag_260:\n        /* \"#utility.yul\":8085:8343   */\n      pop\n        /* \"#utility.yul\":8036:8343   */\n      pop\n      pop\n      pop\n      jump\t// out\n        /* \"#utility.yul\":8349:8713   */\n    tag_160:\n        /* \"#utility.yul\":8437:8440   */\n      0x00\n        /* \"#utility.yul\":8465:8504   */\n      tag_262\n        /* \"#utility.yul\":8498:8503   */\n      dup3\n        /* \"#utility.yul\":8465:8504   */\n      tag_157\n      jump\t// in\n    tag_262:\n        /* \"#utility.yul\":8520:8591   */\n      tag_263\n        /* \"#utility.yul\":8584:8590   */\n      dup2\n        /* \"#utility.yul\":8579:8582   */\n      dup6\n        /* \"#utility.yul\":8520:8591   */\n      tag_158\n      jump\t// in\n    tag_263:\n        /* \"#utility.yul\":8513:8591   */\n      swap4\n      pop\n        /* \"#utility.yul\":8600:8652   */\n      tag_264\n        /* \"#utility.yul\":8645:8651   */\n      dup2\n        /* \"#utility.yul\":8640:8643   */\n      dup6\n        /* \"#utility.yul\":8633:8637   */\n      0x20\n        /* \"#utility.yul\":8626:8631   */\n      dup7\n        /* \"#utility.yul\":8622:8638   */\n      add\n        /* \"#utility.yul\":8600:8652   */\n      tag_159\n      jump\t// in\n    tag_264:\n        /* \"#utility.yul\":8677:8706   */\n      tag_265\n        /* \"#utility.yul\":8699:8705   */\n      dup2\n        /* \"#utility.yul\":8677:8706   */\n      tag_144\n      jump\t// in\n    tag_265:\n        /* \"#utility.yul\":8672:8675   */\n      dup5\n        /* \"#utility.yul\":8668:8707   */\n      add\n        /* \"#utility.yul\":8661:8707   */\n      swap2\n      pop\n        /* \"#utility.yul\":8441:8713   */\n      pop\n        /* \"#utility.yul\":8349:8713   */\n      swap3\n      swap2\n      pop\n      pop\n      jump\t// out\n        /* \"#utility.yul\":8719:8837   */\n    tag_161:\n        /* \"#utility.yul\":8806:8830   */\n      tag_267\n        /* \"#utility.yul\":8824:8829   */\n      dup2\n        /* \"#utility.yul\":8806:8830   */\n      tag_152\n      jump\t// in\n    tag_267:\n        /* \"#utility.yul\":8801:8804   */\n      dup3\n        /* \"#utility.yul\":8794:8831   */\n      mstore\n        /* \"#utility.yul\":8719:8837   */\n      pop\n      pop\n      jump\t// out\n        /* \"#utility.yul\":8843:9023   */\n    tag_28:\n        /* \"#utility.yul\":8891:8968   */\n      0x4e487b7100000000000000000000000000000000000000000000000000000000\n        /* \"#utility.yul\":8888:8889   */\n      0x00\n        /* \"#utility.yul\":8881:8969   */\n      mstore\n        /* \"#utility.yul\":8988:8992   */\n      0x21\n        /* \"#utility.yul\":8985:8986   */\n      0x04\n        /* \"#utility.yul\":8978:8993   */\n      mstore\n        /* \"#utility.yul\":9012:9016   */\n      0x24\n        /* \"#utility.yul\":9009:9010   */\n      0x00\n        /* \"#utility.yul\":9002:9017   */\n      revert\n        /* \"#utility.yul\":9029:9141   */\n    tag_162:\n        /* \"#utility.yul\":9109:9110   */\n      0x02\n        /* \"#utility.yul\":9102:9107   */\n      dup2\n        /* \"#utility.yul\":9099:9111   */\n      lt\n        /* \"#utility.yul\":9089:9135   */\n      tag_270\n      jumpi\n        /* \"#utility.yul\":9115:9133   */\n      tag_271\n      tag_28\n      jump\t// in\n    tag_271:\n        /* \"#utility.yul\":9089:9135   */\n    tag_270:\n        /* \"#utility.yul\":9029:9141   */\n      pop\n      jump\t// out\n        /* \"#utility.yul\":9147:9272   */\n    tag_163:\n        /* \"#utility.yul\":9191:9198   */\n      0x00\n        /* \"#utility.yul\":9220:9225   */\n      dup2\n        /* \"#utility.yul\":9209:9225   */\n      swap1\n      pop\n        /* \"#utility.yul\":9226:9266   */\n      tag_273\n        /* \"#utility.yul\":9260:9265   */\n      dup3\n        /* \"#utility.yul\":9226:9266   */\n      tag_162\n      jump\t// in\n    tag_273:\n        /* \"#utility.yul\":9147:9272   */\n      swap2\n      swap1\n      pop\n      jump\t// out\n        /* \"#utility.yul\":9278:9403   */\n    tag_164:\n        /* \"#utility.yul\":9333:9342   */\n      0x00\n        /* \"#utility.yul\":9366:9397   */\n      tag_275\n        /* \"#utility.yul\":9391:9396   */\n      dup3\n        /* \"#utility.yul\":9366:9397   */\n      tag_163\n      jump\t// in\n    tag_275:\n        /* \"#utility.yul\":9353:9397   */\n      swap1\n      pop\n        /* \"#utility.yul\":9278:9403   */\n      swap2\n      swap1\n      pop\n      jump\t// out\n        /* \"#utility.yul\":9409:9550   */\n    tag_165:\n        /* \"#utility.yul\":9501:9543   */\n      tag_277\n        /* \"#utility.yul\":9537:9542   */\n      dup2\n        /* \"#utility.yul\":9501:9543   */\n      tag_164\n      jump\t// in\n    tag_277:\n        /* \"#utility.yul\":9496:9499   */\n      dup3\n        /* \"#utility.yul\":9489:9544   */\n      mstore\n        /* \"#utility.yul\":9409:9550   */\n      pop\n      pop\n      jump\t// out\n        /* \"#utility.yul\":9556:10907   */\n    tag_20:\n        /* \"#utility.yul\":9922:9926   */\n      0x00\n        /* \"#utility.yul\":9960:9963   */\n      0xe0\n        /* \"#utility.yul\":9949:9958   */\n      dup3\n        /* \"#utility.yul\":9945:9964   */\n      add\n        /* \"#utility.yul\":9937:9964   */\n      swap1\n      pop\n        /* \"#utility.yul\":10010:10019   */\n      dup2\n        /* \"#utility.yul\":10004:10008   */\n      dup2\n        /* \"#utility.yul\":10000:10020   */\n      sub\n        /* \"#utility.yul\":9996:9997   */\n      0x00\n        /* \"#utility.yul\":9985:9994   */\n      dup4\n        /* \"#utility.yul\":9981:9998   */\n      add\n        /* \"#utility.yul\":9974:10021   */\n      mstore\n        /* \"#utility.yul\":10038:10116   */\n      tag_279\n        /* \"#utility.yul\":10111:10115   */\n      dup2\n        /* \"#utility.yul\":10102:10108   */\n      dup11\n        /* \"#utility.yul\":10038:10116   */\n      tag_160\n      jump\t// in\n    tag_279:\n        /* \"#utility.yul\":10030:10116   */\n      swap1\n      pop\n        /* \"#utility.yul\":10126:10198   */\n      tag_280\n        /* \"#utility.yul\":10194:10196   */\n      0x20\n        /* \"#utility.yul\":10183:10192   */\n      dup4\n        /* \"#utility.yul\":10179:10197   */\n      add\n        /* \"#utility.yul\":10170:10176   */\n      dup10\n        /* \"#utility.yul\":10126:10198   */\n      tag_161\n      jump\t// in\n    tag_280:\n        /* \"#utility.yul\":10245:10254   */\n      dup2\n        /* \"#utility.yul\":10239:10243   */\n      dup2\n        /* \"#utility.yul\":10235:10255   */\n      sub\n        /* \"#utility.yul\":10230:10232   */\n      0x40\n        /* \"#utility.yul\":10219:10228   */\n      dup4\n        /* \"#utility.yul\":10215:10233   */\n      add\n        /* \"#utility.yul\":10208:10256   */\n      mstore\n        /* \"#utility.yul\":10273:10351   */\n      tag_281\n        /* \"#utility.yul\":10346:10350   */\n      dup2\n        /* \"#utility.yul\":10337:10343   */\n      dup9\n        /* \"#utility.yul\":10273:10351   */\n      tag_160\n      jump\t// in\n    tag_281:\n        /* \"#utility.yul\":10265:10351   */\n      swap1\n      pop\n        /* \"#utility.yul\":10398:10407   */\n      dup2\n        /* \"#utility.yul\":10392:10396   */\n      dup2\n        /* \"#utility.yul\":10388:10408   */\n      sub\n        /* \"#utility.yul\":10383:10385   */\n      0x60\n        /* \"#utility.yul\":10372:10381   */\n      dup4\n        /* \"#utility.yul\":10368:10386   */\n      add\n        /* \"#utility.yul\":10361:10409   */\n      mstore\n        /* \"#utility.yul\":10426:10504   */\n      tag_282\n        /* \"#utility.yul\":10499:10503   */\n      dup2\n        /* \"#utility.yul\":10490:10496   */\n      dup8\n        /* \"#utility.yul\":10426:10504   */\n      tag_160\n      jump\t// in\n    tag_282:\n        /* \"#utility.yul\":10418:10504   */\n      swap1\n      pop\n        /* \"#utility.yul\":10552:10561   */\n      dup2\n        /* \"#utility.yul\":10546:10550   */\n      dup2\n        /* \"#utility.yul\":10542:10562   */\n      sub\n        /* \"#utility.yul\":10536:10539   */\n      0x80\n        /* \"#utility.yul\":10525:10534   */\n      dup4\n        /* \"#utility.yul\":10521:10540   */\n      add\n        /* \"#utility.yul\":10514:10563   */\n      mstore\n        /* \"#utility.yul\":10580:10658   */\n      tag_283\n        /* \"#utility.yul\":10653:10657   */\n      dup2\n        /* \"#utility.yul\":10644:10650   */\n      dup7\n        /* \"#utility.yul\":10580:10658   */\n      tag_160\n      jump\t// in\n    tag_283:\n        /* \"#utility.yul\":10572:10658   */\n      swap1\n      pop\n        /* \"#utility.yul\":10706:10715   */\n      dup2\n        /* \"#utility.yul\":10700:10704   */\n      dup2\n        /* \"#utility.yul\":10696:10716   */\n      sub\n        /* \"#utility.yul\":10690:10693   */\n      0xa0\n        /* \"#utility.yul\":10679:10688   */\n      dup4\n        /* \"#utility.yul\":10675:10694   */\n      add\n        /* \"#utility.yul\":10668:10717   */\n      mstore\n        /* \"#utility.yul\":10734:10812   */\n      tag_284\n        /* \"#utility.yul\":10807:10811   */\n      dup2\n        /* \"#utility.yul\":10798:10804   */\n      dup6\n        /* \"#utility.yul\":10734:10812   */\n      tag_160\n      jump\t// in\n    tag_284:\n        /* \"#utility.yul\":10726:10812   */\n      swap1\n      pop\n        /* \"#utility.yul\":10822:10900   */\n      tag_285\n        /* \"#utility.yul\":10895:10898   */\n      0xc0\n        /* \"#utility.yul\":10884:10893   */\n      dup4\n        /* \"#utility.yul\":10880:10899   */\n      add\n        /* \"#utility.yul\":10871:10877   */\n      dup5\n        /* \"#utility.yul\":10822:10900   */\n      tag_165\n      jump\t// in\n    tag_285:\n        /* \"#utility.yul\":9556:10907   */\n      swap9\n      swap8\n      pop\n      pop\n      pop\n      pop\n      pop\n      pop\n      pop\n      pop\n      jump\t// out\n        /* \"#utility.yul\":10913:11080   */\n    tag_166:\n        /* \"#utility.yul\":11053:11072   */\n      0x50726f64756374206e6f7420666f756e64000000000000000000000000000000\n        /* \"#utility.yul\":11049:11050   */\n      0x00\n        /* \"#utility.yul\":11041:11047   */\n      dup3\n        /* \"#utility.yul\":11037:11051   */\n      add\n        /* \"#utility.yul\":11030:11073   */\n      mstore\n        /* \"#utility.yul\":10913:11080   */\n      pop\n      jump\t// out\n        /* \"#utility.yul\":11086:11452   */\n    tag_167:\n        /* \"#utility.yul\":11228:11231   */\n      0x00\n        /* \"#utility.yul\":11249:11316   */\n      tag_288\n        /* \"#utility.yul\":11313:11315   */\n      0x11\n        /* \"#utility.yul\":11308:11311   */\n      dup4\n        /* \"#utility.yul\":11249:11316   */\n      tag_158\n      jump\t// in\n    tag_288:\n        /* \"#utility.yul\":11242:11316   */\n      swap2\n      pop\n        /* \"#utility.yul\":11325:11418   */\n      tag_289\n        /* \"#utility.yul\":11414:11417   */\n      dup3\n        /* \"#utility.yul\":11325:11418   */\n      tag_166\n      jump\t// in\n    tag_289:\n        /* \"#utility.yul\":11443:11445   */\n      0x20\n        /* \"#utility.yul\":11438:11441   */\n      dup3\n        /* \"#utility.yul\":11434:11446   */\n      add\n        /* \"#utility.yul\":11427:11446   */\n      swap1\n      pop\n        /* \"#utility.yul\":11086:11452   */\n      swap2\n      swap1\n      pop\n      jump\t// out\n        /* \"#utility.yul\":11458:11877   */\n    tag_43:\n        /* \"#utility.yul\":11624:11628   */\n      0x00\n        /* \"#utility.yul\":11662:11664   */\n      0x20\n        /* \"#utility.yul\":11651:11660   */\n      dup3\n        /* \"#utility.yul\":11647:11665   */\n      add\n        /* \"#utility.yul\":11639:11665   */\n      swap1\n      pop\n        /* \"#utility.yul\":11711:11720   */\n      dup2\n        /* \"#utility.yul\":11705:11709   */\n      dup2\n        /* \"#utility.yul\":11701:11721   */\n      sub\n        /* \"#utility.yul\":11697:11698   */\n      0x00\n        /* \"#utility.yul\":11686:11695   */\n      dup4\n        /* \"#utility.yul\":11682:11699   */\n      add\n        /* \"#utility.yul\":11675:11722   */\n      mstore\n        /* \"#utility.yul\":11739:11870   */\n      tag_291\n        /* \"#utility.yul\":11865:11869   */\n      dup2\n        /* \"#utility.yul\":11739:11870   */\n      tag_167\n      jump\t// in\n    tag_291:\n        /* \"#utility.yul\":11731:11870   */\n      swap1\n      pop\n        /* \"#utility.yul\":11458:11877   */\n      swap2\n      swap1\n      pop\n      jump\t// out\n        /* \"#utility.yul\":11883:12063   */\n    tag_46:\n        /* \"#utility.yul\":11931:12008   */\n      0x4e487b7100000000000000000000000000000000000000000000000000000000\n        /* \"#utility.yul\":11928:11929   */\n      0x00\n        /* \"#utility.yul\":11921:12009   */\n      mstore\n        /* \"#utility.yul\":12028:12032   */\n      0x32\n        /* \"#utility.yul\":12025:12026   */\n      0x04\n        /* \"#utility.yul\":12018:12033   */\n      mstore\n        /* \"#utility.yul\":12052:12056   */\n      0x24\n        /* \"#utility.yul\":12049:12050   */\n      0x00\n        /* \"#utility.yul\":12042:12057   */\n      revert\n        /* \"#utility.yul\":12069:12249   */\n    tag_168:\n        /* \"#utility.yul\":12117:12194   */\n      0x4e487b7100000000000000000000000000000000000000000000000000000000\n        /* \"#utility.yul\":12114:12115   */\n      0x00\n        /* \"#utility.yul\":12107:12195   */\n      mstore\n        /* \"#utility.yul\":12214:12218   */\n      0x22\n        /* \"#utility.yul\":12211:12212   */\n      0x04\n        /* \"#utility.yul\":12204:12219   */\n      mstore\n        /* \"#utility.yul\":12238:12242   */\n      0x24\n        /* \"#utility.yul\":12235:12236   */\n      0x00\n        /* \"#utility.yul\":12228:12243   */\n      revert\n        /* \"#utility.yul\":12255:12575   */\n    tag_58:\n        /* \"#utility.yul\":12299:12305   */\n      0x00\n        /* \"#utility.yul\":12336:12337   */\n      0x02\n        /* \"#utility.yul\":12330:12334   */\n      dup3\n        /* \"#utility.yul\":12326:12338   */\n      div\n        /* \"#utility.yul\":12316:12338   */\n      swap1\n      pop\n        /* \"#utility.yul\":12383:12384   */\n      0x01\n        /* \"#utility.yul\":12377:12381   */\n      dup3\n        /* \"#utility.yul\":12373:12385   */\n      and\n        /* \"#utility.yul\":12404:12422   */\n      dup1\n        /* \"#utility.yul\":12394:12475   */\n      tag_295\n      jumpi\n        /* \"#utility.yul\":12460:12464   */\n      0x7f\n        /* \"#utility.yul\":12452:12458   */\n      dup3\n        /* \"#utility.yul\":12448:12465   */\n      and\n        /* \"#utility.yul\":12438:12465   */\n      swap2\n      pop\n        /* \"#utility.yul\":12394:12475   */\n    tag_295:\n        /* \"#utility.yul\":12522:12524   */\n      0x20\n        /* \"#utility.yul\":12514:12520   */\n      dup3\n        /* \"#utility.yul\":12511:12525   */\n      lt\n        /* \"#utility.yul\":12491:12509   */\n      dup2\n        /* \"#utility.yul\":12488:12526   */\n      eq\n        /* \"#utility.yul\":12485:12569   */\n      iszero\n      tag_296\n      jumpi\n        /* \"#utility.yul\":12541:12559   */\n      tag_297\n      tag_168\n      jump\t// in\n    tag_297:\n        /* \"#utility.yul\":12485:12569   */\n    tag_296:\n        /* \"#utility.yul\":12306:12575   */\n      pop\n        /* \"#utility.yul\":12255:12575   */\n      swap2\n      swap1\n      pop\n      jump\t// out\n        /* \"#utility.yul\":12581:12761   */\n    tag_169:\n        /* \"#utility.yul\":12629:12706   */\n      0x4e487b7100000000000000000000000000000000000000000000000000000000\n        /* \"#utility.yul\":12626:12627   */\n      0x00\n        /* \"#utility.yul\":12619:12707   */\n      mstore\n        /* \"#utility.yul\":12726:12730   */\n      0x11\n        /* \"#utility.yul\":12723:12724   */\n      0x04\n        /* \"#utility.yul\":12716:12731   */\n      mstore\n        /* \"#utility.yul\":12750:12754   */\n      0x24\n        /* \"#utility.yul\":12747:12748   */\n      0x00\n        /* \"#utility.yul\":12740:12755   */\n      revert\n        /* \"#utility.yul\":12767:13000   */\n    tag_128:\n        /* \"#utility.yul\":12806:12809   */\n      0x00\n        /* \"#utility.yul\":12829:12853   */\n      tag_300\n        /* \"#utility.yul\":12847:12852   */\n      dup3\n        /* \"#utility.yul\":12829:12853   */\n      tag_152\n      jump\t// in\n    tag_300:\n        /* \"#utility.yul\":12820:12853   */\n      swap2\n      pop\n        /* \"#utility.yul\":12875:12941   */\n      0xffffffffffffffffffffffffffffffffffffffffffffffffffffffffffffffff\n        /* \"#utility.yul\":12868:12873   */\n      dup3\n        /* \"#utility.yul\":12865:12942   */\n      eq\n        /* \"#utility.yul\":12862:12965   */\n      iszero\n      tag_301\n      jumpi\n        /* \"#utility.yul\":12945:12963   */\n      tag_302\n      tag_169\n      jump\t// in\n    tag_302:\n        /* \"#utility.yul\":12862:12965   */\n    tag_301:\n        /* \"#utility.yul\":12992:12993   */\n      0x01\n        /* \"#utility.yul\":12985:12990   */\n      dup3\n        /* \"#utility.yul\":12981:12994   */\n      add\n        /* \"#utility.yul\":12974:12994   */\n      swap1\n      pop\n        /* \"#utility.yul\":12767:13000   */\n      swap2\n      swap1\n      pop\n      jump\t// out\n\n    auxdata: 0xa2646970667358221220f5ecb8a4b75e4c0d97a532f7968836ed6af7c4f18de28a2697b1f40ee7bded3d64736f6c63430008080033\n}\n",
				"bytecode": {
					"linkReferences": {},
					"object": "608060405234801561001057600080fd5b50611346806100206000396000f3fe608060405234801561001057600080fd5b506004361061004c5760003560e01c806302def0a2146100515780633618f1f41461006d578063514d719f14610089578063e9d11921146100bf575b600080fd5b61006b60048036038101906100669190610d73565b6100f5565b005b61008760048036038101906100829190610ea1565b61023b565b005b6100a3600480360381019061009e9190610fcf565b610384565b6040516100b6979695949392919061110a565b60405180910390f35b6100d960048036038101906100d49190610fcf565b61068b565b6040516100ec979695949392919061110a565b60405180910390f35b60006040518060e0016040528089815260200188815260200187815260200186815260200185815260200184815260200183600181111561013957610138611093565b5b81525090806001815401808255809150506001900390600052602060002090600702016000909190919091506000820151816000019080519060200190610181929190610b1b565b506020820151816001015560408201518160020190805190602001906101a8929190610b1b565b5060608201518160030190805190602001906101c5929190610b1b565b5060808201518160040190805190602001906101e2929190610b1b565b5060a08201518160050190805190602001906101ff929190610b1b565b5060c08201518160060160006101000a81548160ff0219169083600181111561022b5761022a611093565b5b0217905550505050505050505050565b600061024688610a93565b90507fffffffffffffffffffffffffffffffffffffffffffffffffffffffffffffffff8114156102ab576040517f08c379a00000000000000000000000000000000000000000000000000000000081526004016102a2906111e8565b60405180910390fd5b60008082815481106102c0576102bf611208565b5b90600052602060002090600702019050878160000190805190602001906102e8929190610b1b565b5086816002019080519060200190610301929190610b1b565b508581600301908051906020019061031a929190610b1b565b5084816004019080519060200190610333929190610b1b565b508381600501908051906020019061034c929190610b1b565b50828160060160006101000a81548160ff0219169083600181111561037457610373611093565b5b0217905550505050505050505050565b6000818154811061039457600080fd5b90600052602060002090600702016000915090508060000180546103b790611266565b80601f01602080910402602001604051908101604052809291908181526020018280546103e390611266565b80156104305780601f1061040557610100808354040283529160200191610430565b820191906000526020600020905b81548152906001019060200180831161041357829003601f168201915b50505050509080600101549080600201805461044b90611266565b80601f016020809104026020016040519081016040528092919081815260200182805461047790611266565b80156104c45780601f10610499576101008083540402835291602001916104c4565b820191906000526020600020905b8154815290600101906020018083116104a757829003601f168201915b5050505050908060030180546104d990611266565b80601f016020809104026020016040519081016040528092919081815260200182805461050590611266565b80156105525780601f1061052757610100808354040283529160200191610552565b820191906000526020600020905b81548152906001019060200180831161053557829003601f168201915b50505050509080600401805461056790611266565b80601f016020809104026020016040519081016040528092919081815260200182805461059390611266565b80156105e05780601f106105b5576101008083540402835291602001916105e0565b820191906000526020600020905b8154815290600101906020018083116105c357829003601f168201915b5050505050908060050180546105f590611266565b80601f016020809104026020016040519081016040528092919081815260200182805461062190611266565b801561066e5780601f106106435761010080835404028352916020019161066e565b820191906000526020600020905b81548152906001019060200180831161065157829003601f168201915b5050505050908060060160009054906101000a900460ff16905087565b606060006060806060806000806106a189610a93565b90507fffffffffffffffffffffffffffffffffffffffffffffffffffffffffffffffff811415610706576040517f08c379a00000000000000000000000000000000000000000000000000000000081526004016106fd906111e8565b60405180910390fd5b600080828154811061071b5761071a611208565b5b90600052602060002090600702016040518060e001604052908160008201805461074490611266565b80601f016020809104026020016040519081016040528092919081815260200182805461077090611266565b80156107bd5780601f10610792576101008083540402835291602001916107bd565b820191906000526020600020905b8154815290600101906020018083116107a057829003601f168201915b50505050508152602001600182015481526020016002820180546107e090611266565b80601f016020809104026020016040519081016040528092919081815260200182805461080c90611266565b80156108595780601f1061082e57610100808354040283529160200191610859565b820191906000526020600020905b81548152906001019060200180831161083c57829003601f168201915b5050505050815260200160038201805461087290611266565b80601f016020809104026020016040519081016040528092919081815260200182805461089e90611266565b80156108eb5780601f106108c0576101008083540402835291602001916108eb565b820191906000526020600020905b8154815290600101906020018083116108ce57829003601f168201915b5050505050815260200160048201805461090490611266565b80601f016020809104026020016040519081016040528092919081815260200182805461093090611266565b801561097d5780601f106109525761010080835404028352916020019161097d565b820191906000526020600020905b81548152906001019060200180831161096057829003601f168201915b5050505050815260200160058201805461099690611266565b80601f01602080910402602001604051908101604052809291908181526020018280546109c290611266565b8015610a0f5780601f106109e457610100808354040283529160200191610a0f565b820191906000526020600020905b8154815290600101906020018083116109f257829003601f168201915b505050505081526020016006820160009054906101000a900460ff166001811115610a3d57610a3c611093565b5b6001811115610a4f57610a4e611093565b5b815250509050806000015181602001518260400151836060015184608001518560a001518660c0015198509850985098509850985098505050919395979092949650565b600080600090505b600080549050811015610af1578260008281548110610abd57610abc611208565b5b9060005260206000209060070201600101541415610ade5780915050610b16565b8080610ae9906112c7565b915050610a9b565b507fffffffffffffffffffffffffffffffffffffffffffffffffffffffffffffffff90505b919050565b828054610b2790611266565b90600052602060002090601f016020900481019282610b495760008555610b90565b82601f10610b6257805160ff1916838001178555610b90565b82800160010185558215610b90579182015b82811115610b8f578251825591602001919060010190610b74565b5b509050610b9d9190610ba1565b5090565b5b80821115610bba576000816000905550600101610ba2565b5090565b6000604051905090565b600080fd5b600080fd5b600080fd5b600080fd5b6000601f19601f8301169050919050565b7f4e487b7100000000000000000000000000000000000000000000000000000000600052604160045260246000fd5b610c2582610bdc565b810181811067ffffffffffffffff82111715610c4457610c43610bed565b5b80604052505050565b6000610c57610bbe565b9050610c638282610c1c565b919050565b600067ffffffffffffffff821115610c8357610c82610bed565b5b610c8c82610bdc565b9050602081019050919050565b82818337600083830152505050565b6000610cbb610cb684610c68565b610c4d565b905082815260208101848484011115610cd757610cd6610bd7565b5b610ce2848285610c99565b509392505050565b600082601f830112610cff57610cfe610bd2565b5b8135610d0f848260208601610ca8565b91505092915050565b6000819050919050565b610d2b81610d18565b8114610d3657600080fd5b50565b600081359050610d4881610d22565b92915050565b60028110610d5b57600080fd5b50565b600081359050610d6d81610d4e565b92915050565b600080600080600080600060e0888a031215610d9257610d91610bc8565b5b600088013567ffffffffffffffff811115610db057610daf610bcd565b5b610dbc8a828b01610cea565b9750506020610dcd8a828b01610d39565b965050604088013567ffffffffffffffff811115610dee57610ded610bcd565b5b610dfa8a828b01610cea565b955050606088013567ffffffffffffffff811115610e1b57610e1a610bcd565b5b610e278a828b01610cea565b945050608088013567ffffffffffffffff811115610e4857610e47610bcd565b5b610e548a828b01610cea565b93505060a088013567ffffffffffffffff811115610e7557610e74610bcd565b5b610e818a828b01610cea565b92505060c0610e928a828b01610d5e565b91505092959891949750929550565b600080600080600080600060e0888a031215610ec057610ebf610bc8565b5b6000610ece8a828b01610d39565b975050602088013567ffffffffffffffff811115610eef57610eee610bcd565b5b610efb8a828b01610cea565b965050604088013567ffffffffffffffff811115610f1c57610f1b610bcd565b5b610f288a828b01610cea565b955050606088013567ffffffffffffffff811115610f4957610f48610bcd565b5b610f558a828b01610cea565b945050608088013567ffffffffffffffff811115610f7657610f75610bcd565b5b610f828a828b01610cea565b93505060a088013567ffffffffffffffff811115610fa357610fa2610bcd565b5b610faf8a828b01610cea565b92505060c0610fc08a828b01610d5e565b91505092959891949750929550565b600060208284031215610fe557610fe4610bc8565b5b6000610ff384828501610d39565b91505092915050565b600081519050919050565b600082825260208201905092915050565b60005b8381101561103657808201518184015260208101905061101b565b83811115611045576000848401525b50505050565b600061105682610ffc565b6110608185611007565b9350611070818560208601611018565b61107981610bdc565b840191505092915050565b61108d81610d18565b82525050565b7f4e487b7100000000000000000000000000000000000000000000000000000000600052602160045260246000fd5b600281106110d3576110d2611093565b5b50565b60008190506110e4826110c2565b919050565b60006110f4826110d6565b9050919050565b611104816110e9565b82525050565b600060e0820190508181036000830152611124818a61104b565b90506111336020830189611084565b8181036040830152611145818861104b565b90508181036060830152611159818761104b565b9050818103608083015261116d818661104b565b905081810360a0830152611181818561104b565b905061119060c08301846110fb565b98975050505050505050565b7f50726f64756374206e6f7420666f756e64000000000000000000000000000000600082015250565b60006111d2601183611007565b91506111dd8261119c565b602082019050919050565b60006020820190508181036000830152611201816111c5565b9050919050565b7f4e487b7100000000000000000000000000000000000000000000000000000000600052603260045260246000fd5b7f4e487b7100000000000000000000000000000000000000000000000000000000600052602260045260246000fd5b6000600282049050600182168061127e57607f821691505b6020821081141561129257611291611237565b5b50919050565b7f4e487b7100000000000000000000000000000000000000000000000000000000600052601160045260246000fd5b60006112d282610d18565b91507fffffffffffffffffffffffffffffffffffffffffffffffffffffffffffffffff82141561130557611304611298565b5b60018201905091905056fea2646970667358221220f5ecb8a4b75e4c0d97a532f7968836ed6af7c4f18de28a2697b1f40ee7bded3d64736f6c63430008080033",
					"opcodes": "PUSH1 0x80 PUSH1 0x40 MSTORE CALLVALUE DUP1 ISZERO PUSH2 0x10 JUMPI PUSH1 0x0 DUP1 REVERT JUMPDEST POP PUSH2 0x1346 DUP1 PUSH2 0x20 PUSH1 0x0 CODECOPY PUSH1 0x0 RETURN INVALID PUSH1 0x80 PUSH1 0x40 MSTORE CALLVALUE DUP1 ISZERO PUSH2 0x10 JUMPI PUSH1 0x0 DUP1 REVERT JUMPDEST POP PUSH1 0x4 CALLDATASIZE LT PUSH2 0x4C JUMPI PUSH1 0x0 CALLDATALOAD PUSH1 0xE0 SHR DUP1 PUSH4 0x2DEF0A2 EQ PUSH2 0x51 JUMPI DUP1 PUSH4 0x3618F1F4 EQ PUSH2 0x6D JUMPI DUP1 PUSH4 0x514D719F EQ PUSH2 0x89 JUMPI DUP1 PUSH4 0xE9D11921 EQ PUSH2 0xBF JUMPI JUMPDEST PUSH1 0x0 DUP1 REVERT JUMPDEST PUSH2 0x6B PUSH1 0x4 DUP1 CALLDATASIZE SUB DUP2 ADD SWAP1 PUSH2 0x66 SWAP2 SWAP1 PUSH2 0xD73 JUMP JUMPDEST PUSH2 0xF5 JUMP JUMPDEST STOP JUMPDEST PUSH2 0x87 PUSH1 0x4 DUP1 CALLDATASIZE SUB DUP2 ADD SWAP1 PUSH2 0x82 SWAP2 SWAP1 PUSH2 0xEA1 JUMP JUMPDEST PUSH2 0x23B JUMP JUMPDEST STOP JUMPDEST PUSH2 0xA3 PUSH1 0x4 DUP1 CALLDATASIZE SUB DUP2 ADD SWAP1 PUSH2 0x9E SWAP2 SWAP1 PUSH2 0xFCF JUMP JUMPDEST PUSH2 0x384 JUMP JUMPDEST PUSH1 0x40 MLOAD PUSH2 0xB6 SWAP8 SWAP7 SWAP6 SWAP5 SWAP4 SWAP3 SWAP2 SWAP1 PUSH2 0x110A JUMP JUMPDEST PUSH1 0x40 MLOAD DUP1 SWAP2 SUB SWAP1 RETURN JUMPDEST PUSH2 0xD9 PUSH1 0x4 DUP1 CALLDATASIZE SUB DUP2 ADD SWAP1 PUSH2 0xD4 SWAP2 SWAP1 PUSH2 0xFCF JUMP JUMPDEST PUSH2 0x68B JUMP JUMPDEST PUSH1 0x40 MLOAD PUSH2 0xEC SWAP8 SWAP7 SWAP6 SWAP5 SWAP4 SWAP3 SWAP2 SWAP1 PUSH2 0x110A JUMP JUMPDEST PUSH1 0x40 MLOAD DUP1 SWAP2 SUB SWAP1 RETURN JUMPDEST PUSH1 0x0 PUSH1 0x40 MLOAD DUP1 PUSH1 0xE0 ADD PUSH1 0x40 MSTORE DUP1 DUP10 DUP2 MSTORE PUSH1 0x20 ADD DUP9 DUP2 MSTORE PUSH1 0x20 ADD DUP8 DUP2 MSTORE PUSH1 0x20 ADD DUP7 DUP2 MSTORE PUSH1 0x20 ADD DUP6 DUP2 MSTORE PUSH1 0x20 ADD DUP5 DUP2 MSTORE PUSH1 0x20 ADD DUP4 PUSH1 0x1 DUP2 GT ISZERO PUSH2 0x139 JUMPI PUSH2 0x138 PUSH2 0x1093 JUMP JUMPDEST JUMPDEST DUP2 MSTORE POP SWAP1 DUP1 PUSH1 0x1 DUP2 SLOAD ADD DUP1 DUP3 SSTORE DUP1 SWAP2 POP POP PUSH1 0x1 SWAP1 SUB SWAP1 PUSH1 0x0 MSTORE PUSH1 0x20 PUSH1 0x0 KECCAK256 SWAP1 PUSH1 0x7 MUL ADD PUSH1 0x0 SWAP1 SWAP2 SWAP1 SWAP2 SWAP1 SWAP2 POP PUSH1 0x0 DUP3 ADD MLOAD DUP2 PUSH1 0x0 ADD SWAP1 DUP1 MLOAD SWAP1 PUSH1 0x20 ADD SWAP1 PUSH2 0x181 SWAP3 SWAP2 SWAP1 PUSH2 0xB1B JUMP JUMPDEST POP PUSH1 0x20 DUP3 ADD MLOAD DUP2 PUSH1 0x1 ADD SSTORE PUSH1 0x40 DUP3 ADD MLOAD DUP2 PUSH1 0x2 ADD SWAP1 DUP1 MLOAD SWAP1 PUSH1 0x20 ADD SWAP1 PUSH2 0x1A8 SWAP3 SWAP2 SWAP1 PUSH2 0xB1B JUMP JUMPDEST POP PUSH1 0x60 DUP3 ADD MLOAD DUP2 PUSH1 0x3 ADD SWAP1 DUP1 MLOAD SWAP1 PUSH1 0x20 ADD SWAP1 PUSH2 0x1C5 SWAP3 SWAP2 SWAP1 PUSH2 0xB1B JUMP JUMPDEST POP PUSH1 0x80 DUP3 ADD MLOAD DUP2 PUSH1 0x4 ADD SWAP1 DUP1 MLOAD SWAP1 PUSH1 0x20 ADD SWAP1 PUSH2 0x1E2 SWAP3 SWAP2 SWAP1 PUSH2 0xB1B JUMP JUMPDEST POP PUSH1 0xA0 DUP3 ADD MLOAD DUP2 PUSH1 0x5 ADD SWAP1 DUP1 MLOAD SWAP1 PUSH1 0x20 ADD SWAP1 PUSH2 0x1FF SWAP3 SWAP2 SWAP1 PUSH2 0xB1B JUMP JUMPDEST POP PUSH1 0xC0 DUP3 ADD MLOAD DUP2 PUSH1 0x6 ADD PUSH1 0x0 PUSH2 0x100 EXP DUP2 SLOAD DUP2 PUSH1 0xFF MUL NOT AND SWAP1 DUP4 PUSH1 0x1 DUP2 GT ISZERO PUSH2 0x22B JUMPI PUSH2 0x22A PUSH2 0x1093 JUMP JUMPDEST JUMPDEST MUL OR SWAP1 SSTORE POP POP POP POP POP POP POP POP POP POP JUMP JUMPDEST PUSH1 0x0 PUSH2 0x246 DUP9 PUSH2 0xA93 JUMP JUMPDEST SWAP1 POP PUSH32 0xFFFFFFFFFFFFFFFFFFFFFFFFFFFFFFFFFFFFFFFFFFFFFFFFFFFFFFFFFFFFFFFF DUP2 EQ ISZERO PUSH2 0x2AB JUMPI PUSH1 0x40 MLOAD PUSH32 0x8C379A000000000000000000000000000000000000000000000000000000000 DUP2 MSTORE PUSH1 0x4 ADD PUSH2 0x2A2 SWAP1 PUSH2 0x11E8 JUMP JUMPDEST PUSH1 0x40 MLOAD DUP1 SWAP2 SUB SWAP1 REVERT JUMPDEST PUSH1 0x0 DUP1 DUP3 DUP2 SLOAD DUP2 LT PUSH2 0x2C0 JUMPI PUSH2 0x2BF PUSH2 0x1208 JUMP JUMPDEST JUMPDEST SWAP1 PUSH1 0x0 MSTORE PUSH1 0x20 PUSH1 0x0 KECCAK256 SWAP1 PUSH1 0x7 MUL ADD SWAP1 POP DUP8 DUP2 PUSH1 0x0 ADD SWAP1 DUP1 MLOAD SWAP1 PUSH1 0x20 ADD SWAP1 PUSH2 0x2E8 SWAP3 SWAP2 SWAP1 PUSH2 0xB1B JUMP JUMPDEST POP DUP7 DUP2 PUSH1 0x2 ADD SWAP1 DUP1 MLOAD SWAP1 PUSH1 0x20 ADD SWAP1 PUSH2 0x301 SWAP3 SWAP2 SWAP1 PUSH2 0xB1B JUMP JUMPDEST POP DUP6 DUP2 PUSH1 0x3 ADD SWAP1 DUP1 MLOAD SWAP1 PUSH1 0x20 ADD SWAP1 PUSH2 0x31A SWAP3 SWAP2 SWAP1 PUSH2 0xB1B JUMP JUMPDEST POP DUP5 DUP2 PUSH1 0x4 ADD SWAP1 DUP1 MLOAD SWAP1 PUSH1 0x20 ADD SWAP1 PUSH2 0x333 SWAP3 SWAP2 SWAP1 PUSH2 0xB1B JUMP JUMPDEST POP DUP4 DUP2 PUSH1 0x5 ADD SWAP1 DUP1 MLOAD SWAP1 PUSH1 0x20 ADD SWAP1 PUSH2 0x34C SWAP3 SWAP2 SWAP1 PUSH2 0xB1B JUMP JUMPDEST POP DUP3 DUP2 PUSH1 0x6 ADD PUSH1 0x0 PUSH2 0x100 EXP DUP2 SLOAD DUP2 PUSH1 0xFF MUL NOT AND SWAP1 DUP4 PUSH1 0x1 DUP2 GT ISZERO PUSH2 0x374 JUMPI PUSH2 0x373 PUSH2 0x1093 JUMP JUMPDEST JUMPDEST MUL OR SWAP1 SSTORE POP POP POP POP POP POP POP POP POP POP JUMP JUMPDEST PUSH1 0x0 DUP2 DUP2 SLOAD DUP2 LT PUSH2 0x394 JUMPI PUSH1 0x0 DUP1 REVERT JUMPDEST SWAP1 PUSH1 0x0 MSTORE PUSH1 0x20 PUSH1 0x0 KECCAK256 SWAP1 PUSH1 0x7 MUL ADD PUSH1 0x0 SWAP2 POP SWAP1 POP DUP1 PUSH1 0x0 ADD DUP1 SLOAD PUSH2 0x3B7 SWAP1 PUSH2 0x1266 JUMP JUMPDEST DUP1 PUSH1 0x1F ADD PUSH1 0x20 DUP1 SWAP2 DIV MUL PUSH1 0x20 ADD PUSH1 0x40 MLOAD SWAP1 DUP2 ADD PUSH1 0x40 MSTORE DUP1 SWAP3 SWAP2 SWAP1 DUP2 DUP2 MSTORE PUSH1 0x20 ADD DUP3 DUP1 SLOAD PUSH2 0x3E3 SWAP1 PUSH2 0x1266 JUMP JUMPDEST DUP1 ISZERO PUSH2 0x430 JUMPI DUP1 PUSH1 0x1F LT PUSH2 0x405 JUMPI PUSH2 0x100 DUP1 DUP4 SLOAD DIV MUL DUP4 MSTORE SWAP2 PUSH1 0x20 ADD SWAP2 PUSH2 0x430 JUMP JUMPDEST DUP3 ADD SWAP2 SWAP1 PUSH1 0x0 MSTORE PUSH1 0x20 PUSH1 0x0 KECCAK256 SWAP1 JUMPDEST DUP2 SLOAD DUP2 MSTORE SWAP1 PUSH1 0x1 ADD SWAP1 PUSH1 0x20 ADD DUP1 DUP4 GT PUSH2 0x413 JUMPI DUP3 SWAP1 SUB PUSH1 0x1F AND DUP3 ADD SWAP2 JUMPDEST POP POP POP POP POP SWAP1 DUP1 PUSH1 0x1 ADD SLOAD SWAP1 DUP1 PUSH1 0x2 ADD DUP1 SLOAD PUSH2 0x44B SWAP1 PUSH2 0x1266 JUMP JUMPDEST DUP1 PUSH1 0x1F ADD PUSH1 0x20 DUP1 SWAP2 DIV MUL PUSH1 0x20 ADD PUSH1 0x40 MLOAD SWAP1 DUP2 ADD PUSH1 0x40 MSTORE DUP1 SWAP3 SWAP2 SWAP1 DUP2 DUP2 MSTORE PUSH1 0x20 ADD DUP3 DUP1 SLOAD PUSH2 0x477 SWAP1 PUSH2 0x1266 JUMP JUMPDEST DUP1 ISZERO PUSH2 0x4C4 JUMPI DUP1 PUSH1 0x1F LT PUSH2 0x499 JUMPI PUSH2 0x100 DUP1 DUP4 SLOAD DIV MUL DUP4 MSTORE SWAP2 PUSH1 0x20 ADD SWAP2 PUSH2 0x4C4 JUMP JUMPDEST DUP3 ADD SWAP2 SWAP1 PUSH1 0x0 MSTORE PUSH1 0x20 PUSH1 0x0 KECCAK256 SWAP1 JUMPDEST DUP2 SLOAD DUP2 MSTORE SWAP1 PUSH1 0x1 ADD SWAP1 PUSH1 0x20 ADD DUP1 DUP4 GT PUSH2 0x4A7 JUMPI DUP3 SWAP1 SUB PUSH1 0x1F AND DUP3 ADD SWAP2 JUMPDEST POP POP POP POP POP SWAP1 DUP1 PUSH1 0x3 ADD DUP1 SLOAD PUSH2 0x4D9 SWAP1 PUSH2 0x1266 JUMP JUMPDEST DUP1 PUSH1 0x1F ADD PUSH1 0x20 DUP1 SWAP2 DIV MUL PUSH1 0x20 ADD PUSH1 0x40 MLOAD SWAP1 DUP2 ADD PUSH1 0x40 MSTORE DUP1 SWAP3 SWAP2 SWAP1 DUP2 DUP2 MSTORE PUSH1 0x20 ADD DUP3 DUP1 SLOAD PUSH2 0x505 SWAP1 PUSH2 0x1266 JUMP JUMPDEST DUP1 ISZERO PUSH2 0x552 JUMPI DUP1 PUSH1 0x1F LT PUSH2 0x527 JUMPI PUSH2 0x100 DUP1 DUP4 SLOAD DIV MUL DUP4 MSTORE SWAP2 PUSH1 0x20 ADD SWAP2 PUSH2 0x552 JUMP JUMPDEST DUP3 ADD SWAP2 SWAP1 PUSH1 0x0 MSTORE PUSH1 0x20 PUSH1 0x0 KECCAK256 SWAP1 JUMPDEST DUP2 SLOAD DUP2 MSTORE SWAP1 PUSH1 0x1 ADD SWAP1 PUSH1 0x20 ADD DUP1 DUP4 GT PUSH2 0x535 JUMPI DUP3 SWAP1 SUB PUSH1 0x1F AND DUP3 ADD SWAP2 JUMPDEST POP POP POP POP POP SWAP1 DUP1 PUSH1 0x4 ADD DUP1 SLOAD PUSH2 0x567 SWAP1 PUSH2 0x1266 JUMP JUMPDEST DUP1 PUSH1 0x1F ADD PUSH1 0x20 DUP1 SWAP2 DIV MUL PUSH1 0x20 ADD PUSH1 0x40 MLOAD SWAP1 DUP2 ADD PUSH1 0x40 MSTORE DUP1 SWAP3 SWAP2 SWAP1 DUP2 DUP2 MSTORE PUSH1 0x20 ADD DUP3 DUP1 SLOAD PUSH2 0x593 SWAP1 PUSH2 0x1266 JUMP JUMPDEST DUP1 ISZERO PUSH2 0x5E0 JUMPI DUP1 PUSH1 0x1F LT PUSH2 0x5B5 JUMPI PUSH2 0x100 DUP1 DUP4 SLOAD DIV MUL DUP4 MSTORE SWAP2 PUSH1 0x20 ADD SWAP2 PUSH2 0x5E0 JUMP JUMPDEST DUP3 ADD SWAP2 SWAP1 PUSH1 0x0 MSTORE PUSH1 0x20 PUSH1 0x0 KECCAK256 SWAP1 JUMPDEST DUP2 SLOAD DUP2 MSTORE SWAP1 PUSH1 0x1 ADD SWAP1 PUSH1 0x20 ADD DUP1 DUP4 GT PUSH2 0x5C3 JUMPI DUP3 SWAP1 SUB PUSH1 0x1F AND DUP3 ADD SWAP2 JUMPDEST POP POP POP POP POP SWAP1 DUP1 PUSH1 0x5 ADD DUP1 SLOAD PUSH2 0x5F5 SWAP1 PUSH2 0x1266 JUMP JUMPDEST DUP1 PUSH1 0x1F ADD PUSH1 0x20 DUP1 SWAP2 DIV MUL PUSH1 0x20 ADD PUSH1 0x40 MLOAD SWAP1 DUP2 ADD PUSH1 0x40 MSTORE DUP1 SWAP3 SWAP2 SWAP1 DUP2 DUP2 MSTORE PUSH1 0x20 ADD DUP3 DUP1 SLOAD PUSH2 0x621 SWAP1 PUSH2 0x1266 JUMP JUMPDEST DUP1 ISZERO PUSH2 0x66E JUMPI DUP1 PUSH1 0x1F LT PUSH2 0x643 JUMPI PUSH2 0x100 DUP1 DUP4 SLOAD DIV MUL DUP4 MSTORE SWAP2 PUSH1 0x20 ADD SWAP2 PUSH2 0x66E JUMP JUMPDEST DUP3 ADD SWAP2 SWAP1 PUSH1 0x0 MSTORE PUSH1 0x20 PUSH1 0x0 KECCAK256 SWAP1 JUMPDEST DUP2 SLOAD DUP2 MSTORE SWAP1 PUSH1 0x1 ADD SWAP1 PUSH1 0x20 ADD DUP1 DUP4 GT PUSH2 0x651 JUMPI DUP3 SWAP1 SUB PUSH1 0x1F AND DUP3 ADD SWAP2 JUMPDEST POP POP POP POP POP SWAP1 DUP1 PUSH1 0x6 ADD PUSH1 0x0 SWAP1 SLOAD SWAP1 PUSH2 0x100 EXP SWAP1 DIV PUSH1 0xFF AND SWAP1 POP DUP8 JUMP JUMPDEST PUSH1 0x60 PUSH1 0x0 PUSH1 0x60 DUP1 PUSH1 0x60 DUP1 PUSH1 0x0 DUP1 PUSH2 0x6A1 DUP10 PUSH2 0xA93 JUMP JUMPDEST SWAP1 POP PUSH32 0xFFFFFFFFFFFFFFFFFFFFFFFFFFFFFFFFFFFFFFFFFFFFFFFFFFFFFFFFFFFFFFFF DUP2 EQ ISZERO PUSH2 0x706 JUMPI PUSH1 0x40 MLOAD PUSH32 0x8C379A000000000000000000000000000000000000000000000000000000000 DUP2 MSTORE PUSH1 0x4 ADD PUSH2 0x6FD SWAP1 PUSH2 0x11E8 JUMP JUMPDEST PUSH1 0x40 MLOAD DUP1 SWAP2 SUB SWAP1 REVERT JUMPDEST PUSH1 0x0 DUP1 DUP3 DUP2 SLOAD DUP2 LT PUSH2 0x71B JUMPI PUSH2 0x71A PUSH2 0x1208 JUMP JUMPDEST JUMPDEST SWAP1 PUSH1 0x0 MSTORE PUSH1 0x20 PUSH1 0x0 KECCAK256 SWAP1 PUSH1 0x7 MUL ADD PUSH1 0x40 MLOAD DUP1 PUSH1 0xE0 ADD PUSH1 0x40 MSTORE SWAP1 DUP2 PUSH1 0x0 DUP3 ADD DUP1 SLOAD PUSH2 0x744 SWAP1 PUSH2 0x1266 JUMP JUMPDEST DUP1 PUSH1 0x1F ADD PUSH1 0x20 DUP1 SWAP2 DIV MUL PUSH1 0x20 ADD PUSH1 0x40 MLOAD SWAP1 DUP2 ADD PUSH1 0x40 MSTORE DUP1 SWAP3 SWAP2 SWAP1 DUP2 DUP2 MSTORE PUSH1 0x20 ADD DUP3 DUP1 SLOAD PUSH2 0x770 SWAP1 PUSH2 0x1266 JUMP JUMPDEST DUP1 ISZERO PUSH2 0x7BD JUMPI DUP1 PUSH1 0x1F LT PUSH2 0x792 JUMPI PUSH2 0x100 DUP1 DUP4 SLOAD DIV MUL DUP4 MSTORE SWAP2 PUSH1 0x20 ADD SWAP2 PUSH2 0x7BD JUMP JUMPDEST DUP3 ADD SWAP2 SWAP1 PUSH1 0x0 MSTORE PUSH1 0x20 PUSH1 0x0 KECCAK256 SWAP1 JUMPDEST DUP2 SLOAD DUP2 MSTORE SWAP1 PUSH1 0x1 ADD SWAP1 PUSH1 0x20 ADD DUP1 DUP4 GT PUSH2 0x7A0 JUMPI DUP3 SWAP1 SUB PUSH1 0x1F AND DUP3 ADD SWAP2 JUMPDEST POP POP POP POP POP DUP2 MSTORE PUSH1 0x20 ADD PUSH1 0x1 DUP3 ADD SLOAD DUP2 MSTORE PUSH1 0x20 ADD PUSH1 0x2 DUP3 ADD DUP1 SLOAD PUSH2 0x7E0 SWAP1 PUSH2 0x1266 JUMP JUMPDEST DUP1 PUSH1 0x1F ADD PUSH1 0x20 DUP1 SWAP2 DIV MUL PUSH1 0x20 ADD PUSH1 0x40 MLOAD SWAP1 DUP2 ADD PUSH1 0x40 MSTORE DUP1 SWAP3 SWAP2 SWAP1 DUP2 DUP2 MSTORE PUSH1 0x20 ADD DUP3 DUP1 SLOAD PUSH2 0x80C SWAP1 PUSH2 0x1266 JUMP JUMPDEST DUP1 ISZERO PUSH2 0x859 JUMPI DUP1 PUSH1 0x1F LT PUSH2 0x82E JUMPI PUSH2 0x100 DUP1 DUP4 SLOAD DIV MUL DUP4 MSTORE SWAP2 PUSH1 0x20 ADD SWAP2 PUSH2 0x859 JUMP JUMPDEST DUP3 ADD SWAP2 SWAP1 PUSH1 0x0 MSTORE PUSH1 0x20 PUSH1 0x0 KECCAK256 SWAP1 JUMPDEST DUP2 SLOAD DUP2 MSTORE SWAP1 PUSH1 0x1 ADD SWAP1 PUSH1 0x20 ADD DUP1 DUP4 GT PUSH2 0x83C JUMPI DUP3 SWAP1 SUB PUSH1 0x1F AND DUP3 ADD SWAP2 JUMPDEST POP POP POP POP POP DUP2 MSTORE PUSH1 0x20 ADD PUSH1 0x3 DUP3 ADD DUP1 SLOAD PUSH2 0x872 SWAP1 PUSH2 0x1266 JUMP JUMPDEST DUP1 PUSH1 0x1F ADD PUSH1 0x20 DUP1 SWAP2 DIV MUL PUSH1 0x20 ADD PUSH1 0x40 MLOAD SWAP1 DUP2 ADD PUSH1 0x40 MSTORE DUP1 SWAP3 SWAP2 SWAP1 DUP2 DUP2 MSTORE PUSH1 0x20 ADD DUP3 DUP1 SLOAD PUSH2 0x89E SWAP1 PUSH2 0x1266 JUMP JUMPDEST DUP1 ISZERO PUSH2 0x8EB JUMPI DUP1 PUSH1 0x1F LT PUSH2 0x8C0 JUMPI PUSH2 0x100 DUP1 DUP4 SLOAD DIV MUL DUP4 MSTORE SWAP2 PUSH1 0x20 ADD SWAP2 PUSH2 0x8EB JUMP JUMPDEST DUP3 ADD SWAP2 SWAP1 PUSH1 0x0 MSTORE PUSH1 0x20 PUSH1 0x0 KECCAK256 SWAP1 JUMPDEST DUP2 SLOAD DUP2 MSTORE SWAP1 PUSH1 0x1 ADD SWAP1 PUSH1 0x20 ADD DUP1 DUP4 GT PUSH2 0x8CE JUMPI DUP3 SWAP1 SUB PUSH1 0x1F AND DUP3 ADD SWAP2 JUMPDEST POP POP POP POP POP DUP2 MSTORE PUSH1 0x20 ADD PUSH1 0x4 DUP3 ADD DUP1 SLOAD PUSH2 0x904 SWAP1 PUSH2 0x1266 JUMP JUMPDEST DUP1 PUSH1 0x1F ADD PUSH1 0x20 DUP1 SWAP2 DIV MUL PUSH1 0x20 ADD PUSH1 0x40 MLOAD SWAP1 DUP2 ADD PUSH1 0x40 MSTORE DUP1 SWAP3 SWAP2 SWAP1 DUP2 DUP2 MSTORE PUSH1 0x20 ADD DUP3 DUP1 SLOAD PUSH2 0x930 SWAP1 PUSH2 0x1266 JUMP JUMPDEST DUP1 ISZERO PUSH2 0x97D JUMPI DUP1 PUSH1 0x1F LT PUSH2 0x952 JUMPI PUSH2 0x100 DUP1 DUP4 SLOAD DIV MUL DUP4 MSTORE SWAP2 PUSH1 0x20 ADD SWAP2 PUSH2 0x97D JUMP JUMPDEST DUP3 ADD SWAP2 SWAP1 PUSH1 0x0 MSTORE PUSH1 0x20 PUSH1 0x0 KECCAK256 SWAP1 JUMPDEST DUP2 SLOAD DUP2 MSTORE SWAP1 PUSH1 0x1 ADD SWAP1 PUSH1 0x20 ADD DUP1 DUP4 GT PUSH2 0x960 JUMPI DUP3 SWAP1 SUB PUSH1 0x1F AND DUP3 ADD SWAP2 JUMPDEST POP POP POP POP POP DUP2 MSTORE PUSH1 0x20 ADD PUSH1 0x5 DUP3 ADD DUP1 SLOAD PUSH2 0x996 SWAP1 PUSH2 0x1266 JUMP JUMPDEST DUP1 PUSH1 0x1F ADD PUSH1 0x20 DUP1 SWAP2 DIV MUL PUSH1 0x20 ADD PUSH1 0x40 MLOAD SWAP1 DUP2 ADD PUSH1 0x40 MSTORE DUP1 SWAP3 SWAP2 SWAP1 DUP2 DUP2 MSTORE PUSH1 0x20 ADD DUP3 DUP1 SLOAD PUSH2 0x9C2 SWAP1 PUSH2 0x1266 JUMP JUMPDEST DUP1 ISZERO PUSH2 0xA0F JUMPI DUP1 PUSH1 0x1F LT PUSH2 0x9E4 JUMPI PUSH2 0x100 DUP1 DUP4 SLOAD DIV MUL DUP4 MSTORE SWAP2 PUSH1 0x20 ADD SWAP2 PUSH2 0xA0F JUMP JUMPDEST DUP3 ADD SWAP2 SWAP1 PUSH1 0x0 MSTORE PUSH1 0x20 PUSH1 0x0 KECCAK256 SWAP1 JUMPDEST DUP2 SLOAD DUP2 MSTORE SWAP1 PUSH1 0x1 ADD SWAP1 PUSH1 0x20 ADD DUP1 DUP4 GT PUSH2 0x9F2 JUMPI DUP3 SWAP1 SUB PUSH1 0x1F AND DUP3 ADD SWAP2 JUMPDEST POP POP POP POP POP DUP2 MSTORE PUSH1 0x20 ADD PUSH1 0x6 DUP3 ADD PUSH1 0x0 SWAP1 SLOAD SWAP1 PUSH2 0x100 EXP SWAP1 DIV PUSH1 0xFF AND PUSH1 0x1 DUP2 GT ISZERO PUSH2 0xA3D JUMPI PUSH2 0xA3C PUSH2 0x1093 JUMP JUMPDEST JUMPDEST PUSH1 0x1 DUP2 GT ISZERO PUSH2 0xA4F JUMPI PUSH2 0xA4E PUSH2 0x1093 JUMP JUMPDEST JUMPDEST DUP2 MSTORE POP POP SWAP1 POP DUP1 PUSH1 0x0 ADD MLOAD DUP2 PUSH1 0x20 ADD MLOAD DUP3 PUSH1 0x40 ADD MLOAD DUP4 PUSH1 0x60 ADD MLOAD DUP5 PUSH1 0x80 ADD MLOAD DUP6 PUSH1 0xA0 ADD MLOAD DUP7 PUSH1 0xC0 ADD MLOAD SWAP9 POP SWAP9 POP SWAP9 POP SWAP9 POP SWAP9 POP SWAP9 POP SWAP9 POP POP POP SWAP2 SWAP4 SWAP6 SWAP8 SWAP1 SWAP3 SWAP5 SWAP7 POP JUMP JUMPDEST PUSH1 0x0 DUP1 PUSH1 0x0 SWAP1 POP JUMPDEST PUSH1 0x0 DUP1 SLOAD SWAP1 POP DUP2 LT ISZERO PUSH2 0xAF1 JUMPI DUP3 PUSH1 0x0 DUP3 DUP2 SLOAD DUP2 LT PUSH2 0xABD JUMPI PUSH2 0xABC PUSH2 0x1208 JUMP JUMPDEST JUMPDEST SWAP1 PUSH1 0x0 MSTORE PUSH1 0x20 PUSH1 0x0 KECCAK256 SWAP1 PUSH1 0x7 MUL ADD PUSH1 0x1 ADD SLOAD EQ ISZERO PUSH2 0xADE JUMPI DUP1 SWAP2 POP POP PUSH2 0xB16 JUMP JUMPDEST DUP1 DUP1 PUSH2 0xAE9 SWAP1 PUSH2 0x12C7 JUMP JUMPDEST SWAP2 POP POP PUSH2 0xA9B JUMP JUMPDEST POP PUSH32 0xFFFFFFFFFFFFFFFFFFFFFFFFFFFFFFFFFFFFFFFFFFFFFFFFFFFFFFFFFFFFFFFF SWAP1 POP JUMPDEST SWAP2 SWAP1 POP JUMP JUMPDEST DUP3 DUP1 SLOAD PUSH2 0xB27 SWAP1 PUSH2 0x1266 JUMP JUMPDEST SWAP1 PUSH1 0x0 MSTORE PUSH1 0x20 PUSH1 0x0 KECCAK256 SWAP1 PUSH1 0x1F ADD PUSH1 0x20 SWAP1 DIV DUP2 ADD SWAP3 DUP3 PUSH2 0xB49 JUMPI PUSH1 0x0 DUP6 SSTORE PUSH2 0xB90 JUMP JUMPDEST DUP3 PUSH1 0x1F LT PUSH2 0xB62 JUMPI DUP1 MLOAD PUSH1 0xFF NOT AND DUP4 DUP1 ADD OR DUP6 SSTORE PUSH2 0xB90 JUMP JUMPDEST DUP3 DUP1 ADD PUSH1 0x1 ADD DUP6 SSTORE DUP3 ISZERO PUSH2 0xB90 JUMPI SWAP2 DUP3 ADD JUMPDEST DUP3 DUP2 GT ISZERO PUSH2 0xB8F JUMPI DUP3 MLOAD DUP3 SSTORE SWAP2 PUSH1 0x20 ADD SWAP2 SWAP1 PUSH1 0x1 ADD SWAP1 PUSH2 0xB74 JUMP JUMPDEST JUMPDEST POP SWAP1 POP PUSH2 0xB9D SWAP2 SWAP1 PUSH2 0xBA1 JUMP JUMPDEST POP SWAP1 JUMP JUMPDEST JUMPDEST DUP1 DUP3 GT ISZERO PUSH2 0xBBA JUMPI PUSH1 0x0 DUP2 PUSH1 0x0 SWAP1 SSTORE POP PUSH1 0x1 ADD PUSH2 0xBA2 JUMP JUMPDEST POP SWAP1 JUMP JUMPDEST PUSH1 0x0 PUSH1 0x40 MLOAD SWAP1 POP SWAP1 JUMP JUMPDEST PUSH1 0x0 DUP1 REVERT JUMPDEST PUSH1 0x0 DUP1 REVERT JUMPDEST PUSH1 0x0 DUP1 REVERT JUMPDEST PUSH1 0x0 DUP1 REVERT JUMPDEST PUSH1 0x0 PUSH1 0x1F NOT PUSH1 0x1F DUP4 ADD AND SWAP1 POP SWAP2 SWAP1 POP JUMP JUMPDEST PUSH32 0x4E487B7100000000000000000000000000000000000000000000000000000000 PUSH1 0x0 MSTORE PUSH1 0x41 PUSH1 0x4 MSTORE PUSH1 0x24 PUSH1 0x0 REVERT JUMPDEST PUSH2 0xC25 DUP3 PUSH2 0xBDC JUMP JUMPDEST DUP2 ADD DUP2 DUP2 LT PUSH8 0xFFFFFFFFFFFFFFFF DUP3 GT OR ISZERO PUSH2 0xC44 JUMPI PUSH2 0xC43 PUSH2 0xBED JUMP JUMPDEST JUMPDEST DUP1 PUSH1 0x40 MSTORE POP POP POP JUMP JUMPDEST PUSH1 0x0 PUSH2 0xC57 PUSH2 0xBBE JUMP JUMPDEST SWAP1 POP PUSH2 0xC63 DUP3 DUP3 PUSH2 0xC1C JUMP JUMPDEST SWAP2 SWAP1 POP JUMP JUMPDEST PUSH1 0x0 PUSH8 0xFFFFFFFFFFFFFFFF DUP3 GT ISZERO PUSH2 0xC83 JUMPI PUSH2 0xC82 PUSH2 0xBED JUMP JUMPDEST JUMPDEST PUSH2 0xC8C DUP3 PUSH2 0xBDC JUMP JUMPDEST SWAP1 POP PUSH1 0x20 DUP2 ADD SWAP1 POP SWAP2 SWAP1 POP JUMP JUMPDEST DUP3 DUP2 DUP4 CALLDATACOPY PUSH1 0x0 DUP4 DUP4 ADD MSTORE POP POP POP JUMP JUMPDEST PUSH1 0x0 PUSH2 0xCBB PUSH2 0xCB6 DUP5 PUSH2 0xC68 JUMP JUMPDEST PUSH2 0xC4D JUMP JUMPDEST SWAP1 POP DUP3 DUP2 MSTORE PUSH1 0x20 DUP2 ADD DUP5 DUP5 DUP5 ADD GT ISZERO PUSH2 0xCD7 JUMPI PUSH2 0xCD6 PUSH2 0xBD7 JUMP JUMPDEST JUMPDEST PUSH2 0xCE2 DUP5 DUP3 DUP6 PUSH2 0xC99 JUMP JUMPDEST POP SWAP4 SWAP3 POP POP POP JUMP JUMPDEST PUSH1 0x0 DUP3 PUSH1 0x1F DUP4 ADD SLT PUSH2 0xCFF JUMPI PUSH2 0xCFE PUSH2 0xBD2 JUMP JUMPDEST JUMPDEST DUP2 CALLDATALOAD PUSH2 0xD0F DUP5 DUP3 PUSH1 0x20 DUP7 ADD PUSH2 0xCA8 JUMP JUMPDEST SWAP2 POP POP SWAP3 SWAP2 POP POP JUMP JUMPDEST PUSH1 0x0 DUP2 SWAP1 POP SWAP2 SWAP1 POP JUMP JUMPDEST PUSH2 0xD2B DUP2 PUSH2 0xD18 JUMP JUMPDEST DUP2 EQ PUSH2 0xD36 JUMPI PUSH1 0x0 DUP1 REVERT JUMPDEST POP JUMP JUMPDEST PUSH1 0x0 DUP2 CALLDATALOAD SWAP1 POP PUSH2 0xD48 DUP2 PUSH2 0xD22 JUMP JUMPDEST SWAP3 SWAP2 POP POP JUMP JUMPDEST PUSH1 0x2 DUP2 LT PUSH2 0xD5B JUMPI PUSH1 0x0 DUP1 REVERT JUMPDEST POP JUMP JUMPDEST PUSH1 0x0 DUP2 CALLDATALOAD SWAP1 POP PUSH2 0xD6D DUP2 PUSH2 0xD4E JUMP JUMPDEST SWAP3 SWAP2 POP POP JUMP JUMPDEST PUSH1 0x0 DUP1 PUSH1 0x0 DUP1 PUSH1 0x0 DUP1 PUSH1 0x0 PUSH1 0xE0 DUP9 DUP11 SUB SLT ISZERO PUSH2 0xD92 JUMPI PUSH2 0xD91 PUSH2 0xBC8 JUMP JUMPDEST JUMPDEST PUSH1 0x0 DUP9 ADD CALLDATALOAD PUSH8 0xFFFFFFFFFFFFFFFF DUP2 GT ISZERO PUSH2 0xDB0 JUMPI PUSH2 0xDAF PUSH2 0xBCD JUMP JUMPDEST JUMPDEST PUSH2 0xDBC DUP11 DUP3 DUP12 ADD PUSH2 0xCEA JUMP JUMPDEST SWAP8 POP POP PUSH1 0x20 PUSH2 0xDCD DUP11 DUP3 DUP12 ADD PUSH2 0xD39 JUMP JUMPDEST SWAP7 POP POP PUSH1 0x40 DUP9 ADD CALLDATALOAD PUSH8 0xFFFFFFFFFFFFFFFF DUP2 GT ISZERO PUSH2 0xDEE JUMPI PUSH2 0xDED PUSH2 0xBCD JUMP JUMPDEST JUMPDEST PUSH2 0xDFA DUP11 DUP3 DUP12 ADD PUSH2 0xCEA JUMP JUMPDEST SWAP6 POP POP PUSH1 0x60 DUP9 ADD CALLDATALOAD PUSH8 0xFFFFFFFFFFFFFFFF DUP2 GT ISZERO PUSH2 0xE1B JUMPI PUSH2 0xE1A PUSH2 0xBCD JUMP JUMPDEST JUMPDEST PUSH2 0xE27 DUP11 DUP3 DUP12 ADD PUSH2 0xCEA JUMP JUMPDEST SWAP5 POP POP PUSH1 0x80 DUP9 ADD CALLDATALOAD PUSH8 0xFFFFFFFFFFFFFFFF DUP2 GT ISZERO PUSH2 0xE48 JUMPI PUSH2 0xE47 PUSH2 0xBCD JUMP JUMPDEST JUMPDEST PUSH2 0xE54 DUP11 DUP3 DUP12 ADD PUSH2 0xCEA JUMP JUMPDEST SWAP4 POP POP PUSH1 0xA0 DUP9 ADD CALLDATALOAD PUSH8 0xFFFFFFFFFFFFFFFF DUP2 GT ISZERO PUSH2 0xE75 JUMPI PUSH2 0xE74 PUSH2 0xBCD JUMP JUMPDEST JUMPDEST PUSH2 0xE81 DUP11 DUP3 DUP12 ADD PUSH2 0xCEA JUMP JUMPDEST SWAP3 POP POP PUSH1 0xC0 PUSH2 0xE92 DUP11 DUP3 DUP12 ADD PUSH2 0xD5E JUMP JUMPDEST SWAP2 POP POP SWAP3 SWAP6 SWAP9 SWAP2 SWAP5 SWAP8 POP SWAP3 SWAP6 POP JUMP JUMPDEST PUSH1 0x0 DUP1 PUSH1 0x0 DUP1 PUSH1 0x0 DUP1 PUSH1 0x0 PUSH1 0xE0 DUP9 DUP11 SUB SLT ISZERO PUSH2 0xEC0 JUMPI PUSH2 0xEBF PUSH2 0xBC8 JUMP JUMPDEST JUMPDEST PUSH1 0x0 PUSH2 0xECE DUP11 DUP3 DUP12 ADD PUSH2 0xD39 JUMP JUMPDEST SWAP8 POP POP PUSH1 0x20 DUP9 ADD CALLDATALOAD PUSH8 0xFFFFFFFFFFFFFFFF DUP2 GT ISZERO PUSH2 0xEEF JUMPI PUSH2 0xEEE PUSH2 0xBCD JUMP JUMPDEST JUMPDEST PUSH2 0xEFB DUP11 DUP3 DUP12 ADD PUSH2 0xCEA JUMP JUMPDEST SWAP7 POP POP PUSH1 0x40 DUP9 ADD CALLDATALOAD PUSH8 0xFFFFFFFFFFFFFFFF DUP2 GT ISZERO PUSH2 0xF1C JUMPI PUSH2 0xF1B PUSH2 0xBCD JUMP JUMPDEST JUMPDEST PUSH2 0xF28 DUP11 DUP3 DUP12 ADD PUSH2 0xCEA JUMP JUMPDEST SWAP6 POP POP PUSH1 0x60 DUP9 ADD CALLDATALOAD PUSH8 0xFFFFFFFFFFFFFFFF DUP2 GT ISZERO PUSH2 0xF49 JUMPI PUSH2 0xF48 PUSH2 0xBCD JUMP JUMPDEST JUMPDEST PUSH2 0xF55 DUP11 DUP3 DUP12 ADD PUSH2 0xCEA JUMP JUMPDEST SWAP5 POP POP PUSH1 0x80 DUP9 ADD CALLDATALOAD PUSH8 0xFFFFFFFFFFFFFFFF DUP2 GT ISZERO PUSH2 0xF76 JUMPI PUSH2 0xF75 PUSH2 0xBCD JUMP JUMPDEST JUMPDEST PUSH2 0xF82 DUP11 DUP3 DUP12 ADD PUSH2 0xCEA JUMP JUMPDEST SWAP4 POP POP PUSH1 0xA0 DUP9 ADD CALLDATALOAD PUSH8 0xFFFFFFFFFFFFFFFF DUP2 GT ISZERO PUSH2 0xFA3 JUMPI PUSH2 0xFA2 PUSH2 0xBCD JUMP JUMPDEST JUMPDEST PUSH2 0xFAF DUP11 DUP3 DUP12 ADD PUSH2 0xCEA JUMP JUMPDEST SWAP3 POP POP PUSH1 0xC0 PUSH2 0xFC0 DUP11 DUP3 DUP12 ADD PUSH2 0xD5E JUMP JUMPDEST SWAP2 POP POP SWAP3 SWAP6 SWAP9 SWAP2 SWAP5 SWAP8 POP SWAP3 SWAP6 POP JUMP JUMPDEST PUSH1 0x0 PUSH1 0x20 DUP3 DUP5 SUB SLT ISZERO PUSH2 0xFE5 JUMPI PUSH2 0xFE4 PUSH2 0xBC8 JUMP JUMPDEST JUMPDEST PUSH1 0x0 PUSH2 0xFF3 DUP5 DUP3 DUP6 ADD PUSH2 0xD39 JUMP JUMPDEST SWAP2 POP POP SWAP3 SWAP2 POP POP JUMP JUMPDEST PUSH1 0x0 DUP2 MLOAD SWAP1 POP SWAP2 SWAP1 POP JUMP JUMPDEST PUSH1 0x0 DUP3 DUP3 MSTORE PUSH1 0x20 DUP3 ADD SWAP1 POP SWAP3 SWAP2 POP POP JUMP JUMPDEST PUSH1 0x0 JUMPDEST DUP4 DUP2 LT ISZERO PUSH2 0x1036 JUMPI DUP1 DUP3 ADD MLOAD DUP2 DUP5 ADD MSTORE PUSH1 0x20 DUP2 ADD SWAP1 POP PUSH2 0x101B JUMP JUMPDEST DUP4 DUP2 GT ISZERO PUSH2 0x1045 JUMPI PUSH1 0x0 DUP5 DUP5 ADD MSTORE JUMPDEST POP POP POP POP JUMP JUMPDEST PUSH1 0x0 PUSH2 0x1056 DUP3 PUSH2 0xFFC JUMP JUMPDEST PUSH2 0x1060 DUP2 DUP6 PUSH2 0x1007 JUMP JUMPDEST SWAP4 POP PUSH2 0x1070 DUP2 DUP6 PUSH1 0x20 DUP7 ADD PUSH2 0x1018 JUMP JUMPDEST PUSH2 0x1079 DUP2 PUSH2 0xBDC JUMP JUMPDEST DUP5 ADD SWAP2 POP POP SWAP3 SWAP2 POP POP JUMP JUMPDEST PUSH2 0x108D DUP2 PUSH2 0xD18 JUMP JUMPDEST DUP3 MSTORE POP POP JUMP JUMPDEST PUSH32 0x4E487B7100000000000000000000000000000000000000000000000000000000 PUSH1 0x0 MSTORE PUSH1 0x21 PUSH1 0x4 MSTORE PUSH1 0x24 PUSH1 0x0 REVERT JUMPDEST PUSH1 0x2 DUP2 LT PUSH2 0x10D3 JUMPI PUSH2 0x10D2 PUSH2 0x1093 JUMP JUMPDEST JUMPDEST POP JUMP JUMPDEST PUSH1 0x0 DUP2 SWAP1 POP PUSH2 0x10E4 DUP3 PUSH2 0x10C2 JUMP JUMPDEST SWAP2 SWAP1 POP JUMP JUMPDEST PUSH1 0x0 PUSH2 0x10F4 DUP3 PUSH2 0x10D6 JUMP JUMPDEST SWAP1 POP SWAP2 SWAP1 POP JUMP JUMPDEST PUSH2 0x1104 DUP2 PUSH2 0x10E9 JUMP JUMPDEST DUP3 MSTORE POP POP JUMP JUMPDEST PUSH1 0x0 PUSH1 0xE0 DUP3 ADD SWAP1 POP DUP2 DUP2 SUB PUSH1 0x0 DUP4 ADD MSTORE PUSH2 0x1124 DUP2 DUP11 PUSH2 0x104B JUMP JUMPDEST SWAP1 POP PUSH2 0x1133 PUSH1 0x20 DUP4 ADD DUP10 PUSH2 0x1084 JUMP JUMPDEST DUP2 DUP2 SUB PUSH1 0x40 DUP4 ADD MSTORE PUSH2 0x1145 DUP2 DUP9 PUSH2 0x104B JUMP JUMPDEST SWAP1 POP DUP2 DUP2 SUB PUSH1 0x60 DUP4 ADD MSTORE PUSH2 0x1159 DUP2 DUP8 PUSH2 0x104B JUMP JUMPDEST SWAP1 POP DUP2 DUP2 SUB PUSH1 0x80 DUP4 ADD MSTORE PUSH2 0x116D DUP2 DUP7 PUSH2 0x104B JUMP JUMPDEST SWAP1 POP DUP2 DUP2 SUB PUSH1 0xA0 DUP4 ADD MSTORE PUSH2 0x1181 DUP2 DUP6 PUSH2 0x104B JUMP JUMPDEST SWAP1 POP PUSH2 0x1190 PUSH1 0xC0 DUP4 ADD DUP5 PUSH2 0x10FB JUMP JUMPDEST SWAP9 SWAP8 POP POP POP POP POP POP POP POP JUMP JUMPDEST PUSH32 0x50726F64756374206E6F7420666F756E64000000000000000000000000000000 PUSH1 0x0 DUP3 ADD MSTORE POP JUMP JUMPDEST PUSH1 0x0 PUSH2 0x11D2 PUSH1 0x11 DUP4 PUSH2 0x1007 JUMP JUMPDEST SWAP2 POP PUSH2 0x11DD DUP3 PUSH2 0x119C JUMP JUMPDEST PUSH1 0x20 DUP3 ADD SWAP1 POP SWAP2 SWAP1 POP JUMP JUMPDEST PUSH1 0x0 PUSH1 0x20 DUP3 ADD SWAP1 POP DUP2 DUP2 SUB PUSH1 0x0 DUP4 ADD MSTORE PUSH2 0x1201 DUP2 PUSH2 0x11C5 JUMP JUMPDEST SWAP1 POP SWAP2 SWAP1 POP JUMP JUMPDEST PUSH32 0x4E487B7100000000000000000000000000000000000000000000000000000000 PUSH1 0x0 MSTORE PUSH1 0x32 PUSH1 0x4 MSTORE PUSH1 0x24 PUSH1 0x0 REVERT JUMPDEST PUSH32 0x4E487B7100000000000000000000000000000000000000000000000000000000 PUSH1 0x0 MSTORE PUSH1 0x22 PUSH1 0x4 MSTORE PUSH1 0x24 PUSH1 0x0 REVERT JUMPDEST PUSH1 0x0 PUSH1 0x2 DUP3 DIV SWAP1 POP PUSH1 0x1 DUP3 AND DUP1 PUSH2 0x127E JUMPI PUSH1 0x7F DUP3 AND SWAP2 POP JUMPDEST PUSH1 0x20 DUP3 LT DUP2 EQ ISZERO PUSH2 0x1292 JUMPI PUSH2 0x1291 PUSH2 0x1237 JUMP JUMPDEST JUMPDEST POP SWAP2 SWAP1 POP JUMP JUMPDEST PUSH32 0x4E487B7100000000000000000000000000000000000000000000000000000000 PUSH1 0x0 MSTORE PUSH1 0x11 PUSH1 0x4 MSTORE PUSH1 0x24 PUSH1 0x0 REVERT JUMPDEST PUSH1 0x0 PUSH2 0x12D2 DUP3 PUSH2 0xD18 JUMP JUMPDEST SWAP2 POP PUSH32 0xFFFFFFFFFFFFFFFFFFFFFFFFFFFFFFFFFFFFFFFFFFFFFFFFFFFFFFFFFFFFFFFF DUP3 EQ ISZERO PUSH2 0x1305 JUMPI PUSH2 0x1304 PUSH2 0x1298 JUMP JUMPDEST JUMPDEST PUSH1 0x1 DUP3 ADD SWAP1 POP SWAP2 SWAP1 POP JUMP INVALID LOG2 PUSH5 0x6970667358 0x22 SLT KECCAK256 CREATE2 0xEC 0xB8 LOG4 0xB7 0x5E 0x4C 0xD SWAP8 0xA5 ORIGIN 0xF7 SWAP7 DUP9 CALLDATASIZE 0xED PUSH11 0xF7C4F18DE28A2697B1F40E 0xE7 0xBD 0xED RETURNDATASIZE PUSH5 0x736F6C6343 STOP ADDMOD ADDMOD STOP CALLER "
				},
				"gasEstimates": {
					"creation": {
						"codeDepositCost": "986800",
						"executionCost": "1027",
						"totalCost": "987827"
					},
					"external": {
						"urunEkle(string,uint256,string,string,string,string,uint8)": "infinite",
						"urunGuncelle(uint256,string,string,string,string,string,uint8)": "infinite",
						"urunSorgula(uint256)": "infinite",
						"urunler(uint256)": "infinite"
					},
					"internal": {
						"findUrunIndex(uint256)": "infinite"
					}
				},
				"methodIdentifiers": {
					"urunEkle(string,uint256,string,string,string,string,uint8)": "02def0a2",
					"urunGuncelle(uint256,string,string,string,string,string,uint8)": "3618f1f4",
					"urunSorgula(uint256)": "e9d11921",
					"urunler(uint256)": "514d719f"
				}
			},
			"storageLayout": {
				"storage": [
					{
						"astId": 24,
						"contract": "contracts/HelloWorld.sol:urun_contract",
						"label": "urunler",
						"offset": 0,
						"slot": "0",
						"type": "t_array(t_struct(urun)20_storage)dyn_storage"
					}
				],
				"types": {
					"t_array(t_struct(urun)20_storage)dyn_storage": {
						"base": "t_struct(urun)20_storage",
						"encoding": "dynamic_array",
						"label": "struct urun_contract.urun[]",
						"numberOfBytes": "32"
					},
					"t_enum(Durum)4": {
						"encoding": "inplace",
						"label": "enum urun_contract.Durum",
						"numberOfBytes": "1"
					},
					"t_string_storage": {
						"encoding": "bytes",
						"label": "string",
						"numberOfBytes": "32"
					},
					"t_struct(urun)20_storage": {
						"encoding": "inplace",
						"label": "struct urun_contract.urun",
						"members": [
							{
								"astId": 6,
								"contract": "contracts/HelloWorld.sol:urun_contract",
								"label": "urun_ismi",
								"offset": 0,
								"slot": "0",
								"type": "t_string_storage"
							},
							{
								"astId": 8,
								"contract": "contracts/HelloWorld.sol:urun_contract",
								"label": "hashed_id",
								"offset": 0,
								"slot": "1",
								"type": "t_uint256"
							},
							{
								"astId": 10,
								"contract": "contracts/HelloWorld.sol:urun_contract",
								"label": "uretici",
								"offset": 0,
								"slot": "2",
								"type": "t_string_storage"
							},
							{
								"astId": 12,
								"contract": "contracts/HelloWorld.sol:urun_contract",
								"label": "tedarikci",
								"offset": 0,
								"slot": "3",
								"type": "t_string_storage"
							},
							{
								"astId": 14,
								"contract": "contracts/HelloWorld.sol:urun_contract",
								"label": "onayNumarasi",
								"offset": 0,
								"slot": "4",
								"type": "t_string_storage"
							},
							{
								"astId": 16,
								"contract": "contracts/HelloWorld.sol:urun_contract",
								"label": "isletmeOnayNumarasi",
								"offset": 0,
								"slot": "5",
								"type": "t_string_storage"
							},
							{
								"astId": 19,
								"contract": "contracts/HelloWorld.sol:urun_contract",
								"label": "durum",
								"offset": 0,
								"slot": "6",
								"type": "t_enum(Durum)4"
							}
						],
						"numberOfBytes": "224"
					},
					"t_uint256": {
						"encoding": "inplace",
						"label": "uint256",
						"numberOfBytes": "32"
					}
				}
			},
			"userdoc": {
				"kind": "user",
				"methods": {},
				"version": 1
			}
		}
	}
}